:100000000C94BA000C94E2000C94E2000C94E20010
:100010000C94E2000C94E2000C94E2000C94E200D8
:100020000C94E2000C94E2000C94E2000C94391D54
:100030000C94E2000C94E2000C94E2000C94E200B8
:100040000C94D71F0C94E2000C940A230C943C23CC
:100050000C94E2000C94E2000C94E2000C94E20098
:100060000C94E2000C94E2000C1741177617AB17C2
:10007000E017EB171F1834185618A018A018A0186E
:10008000A018A018A018A018A018A018A018A018B0
:100090007918084AD73B3BCE016E84BCBFFDC12F07
:1000A0003D6C74319ABD56833DDA3D00C77F11BE69
:1000B000D9E4BB4C3E916BAAAABE000000803F056C
:1000C000A84CCDB2D44EB93836A9020C50B991869D
:1000D00088083CA6AAAA2ABE000000803F000000B3
:1000E00000080002010000030407000000000000F7
:1000F00000000102040810204080010204081020C2
:10010000010204081020040404040404040402028C
:1001100002020202030303030303000000002500A0
:1001200028002B0000000000240027002A004E4178
:100130004E494E495459494E46CDCCCC3D0AD72361
:100140003C17B7D13877CC2B329595E6241FB14FA9
:100150000A000020410000C84200401C4620BCBEEE
:100160004CCA1B0E5AAEC59D7400460AC0182F1DFE
:100170006C23351D11241FBECFEFD8E0DEBFCDBFED
:1001800013E0A0E0B1E0E6EEFEE502C005900D92BE
:10019000A63DB107D9F726E0A6EDB3E001C01D9258
:1001A000A237B207E1F711E0C2E7D1E004C022971D
:1001B000FE010E94602BCA36D107C9F70E94B02306
:1001C0000C94662F0C940000CF93DF93CAE0D1E02B
:1001D00081E0C231D80729F061E089910E9456215F
:1001E000F7CFDF91CF910895CF93DF93CAE0D1E0AD
:1001F00081E0C231D80729F060E089910E948F2107
:10020000F7CFDF91CF9108950F931F93CF93DF9393
:100210000EE514E061E0F80180810E945621C0E6FD
:10022000D4E061E088810E94562160E0F80180817D
:100230000E948F2160E08881DF91CF911F910F9103
:100240000C948F21609162047091630489ED93E0B6
:100250000E948F1E609164047091650486ED93E0A6
:100260000C948F1E89ED93E00E94951E86ED93E01D
:100270000C94951E2091620430916304281739076D
:1002800019F489ED93E009C020916404309165046C
:100290002817390721F486ED93E00C94D61E0895B3
:1002A000BC0180913E0490913F048230910519F089
:1002B000039731F00895809162049091630404C023
:1002C00080916404909165040C943A01BC01809182
:1002D0003E0490913F04009719F0019771F0089542
:1002E0006F3F710519F06115710521F461E080918E
:1002F0005E040CC080915E040DC06F3F710519F063
:100300006115710529F461E0809160040C948F21DE
:10031000809160040C94CE20BC0180913E049091A9
:100320003F04009719F0019759F008956115710580
:1003300021F460E080915E0409C080915E040AC0EF
:100340006115710529F460E0809160040C948F219F
:10035000809160040C94CE2020913E0430913F04A3
:1003600037FD0AC0223031052CF02430310524F449
:100370000C9450010C946601089520913E04309134
:100380003F0437FD0AC0223031052CF024303105FE
:1003900024F40C9450010C948C01089597FD05C031
:1003A0000E94B12021E0892B09F020E0822F0895DE
:1003B000CF92EF92FF920F931F93CF93DF93EB01B6
:1003C000E216F3060407150771F00E94CE01882398
:1003D00011F0CC2041F0CE010E94CE01882329F0FB
:1003E00081E0CC2019F080E001C081E0DF91CF9165
:1003F0001F910F91FF90EF90CF90089520914004AE
:10040000309141048217930749F461E070E044237E
:1004100011F060E070E086EF93E00FC0209142049D
:10042000309143048217930751F461E070E0442354
:1004300011F060E070E08CED93E00E94AF1F85E06A
:1004400090E00C946C200E94232A0E949728089523
:10045000CF93C2E061E08C2F0E94562160E08C2F88
:100460000E948F21CF5FCE30A9F760E08EE00E941E
:10047000562160E08FE00E94562160E080E10E94FA
:10048000562160E081E10E94562160E082E10E94F5
:10049000562160E083E10E94562160E084E10E94E1
:1004A000562160E085E1CF910C9456210F931F9364
:1004B000CF93DF93CDB7DEB72A970FB6F894DEBFA0
:1004C0000FBECDBF19821A821B821C82FE01359697
:1004D00096E0DF011D929A95E9F790E0292F30E030
:1004E0002417350734F5FB01E20FF31F2081A1E04B
:1004F000A90F28131CC01A2FFE0131960BE0090F1B
:10050000CF01212F30E02417350764F4101751F084
:10051000260F371FD9012C91322F3F7D19F02193DF
:100520001F5FEFCF60E070E00E94832D05C09A2F1F
:10053000D5CF60E070E0CB012A960FB6F894DEBF0D
:100540000FBECDBFDF91CF911F910F91089563E052
:1005500070E08EE191E00E94631063E070E082E25F
:1005600091E00E94631063E070E086E291E00C94F9
:10057000631062E170E08AE291E00E94631063E13F
:1005800070E08CE391E00E94631063E170E08FE41F
:1005900091E00E94631062E170E082E691E00C94C9
:1005A00063100F931F934017510784F0801B910B2A
:1005B000841795075CF02017310744F0601B710B1E
:1005C00081E0621773071CF080E001C081E01F9199
:1005D0000F910895CF93DF93EC0180913E049091A9
:1005E0003F040297029738F0CE010297029740F439
:1005F0000E94220105C0C230D10510F40E943201D0
:10060000D0933F04C0933E04DF91CF9108950895A5
:1006100008950895089508950895883549F44093FC
:1006200066045093670460936804709369040895A6
:10063000893549F440936A0450936B0460936C04C9
:1006400070936D0408958A3541F440936E0450937D
:100650006F046093700470937104089590937F0405
:1006600080937E04089508950F931F93CF93DF9393
:100670008E3F2FEF9207D1F08F3FEFEF9E0731F0C3
:10068000039609F057C0C0E0D0E005C004E114E0D3
:10069000C4E0D0E043C040E0BE0189E095E00E94A4
:1006A000280B2196C037D105B1F744C088E59FE4F7
:1006B000A2E4B2E48093100490931104A093120476
:1006C000B093130400E114E0C0E0D0E0F8014191E0
:1006D0008F01BE0189E095E00E94280B2196C0376A
:1006E000D105A1F7409110045091110460911204BA
:1006F000709113042AE030E08EEC95E00E94EF2424
:100700002AE030E048E55FE462E472E48EEC95E0D4
:10071000DF91CF911F910F910C94EF24F80141913B
:100720008F01BE0189E095E00E94280B2196CE3210
:10073000D105A1F7DF91CF911F910F9108950F93EC
:100740001F93CF93DF93029669F500E114E0C0E0B8
:10075000D0E0BE0189E095E00E94250BF80181936D
:100760008F012196C430D105A1F78091100490919A
:100770001104A0911204B091130488359F44A2443F
:10078000B24481F400E114E0C0E0D0E0BE0189E0B1
:1007900095E00E94250BF80181938F012196C037C7
:1007A000D105A1F7DF91CF911F910F91089510927C
:1007B000100410921104109212041092130410925B
:1007C0003F0410923E048FE690E0909341048093A2
:1007D00040048EED90E0909343048093420486E0C1
:1007E00090E090934504809344048FEF9FEF9093A3
:1007F000470480934604909349048093480427E07B
:1008000030E030934B0420934A0490934D0480933E
:100810004C0490934F0480934E0490935104809322
:100820005004909353048093520490935504809302
:1008300054049093570480935604909359048093E2
:10084000580490935B0480935A0490935D048093C2
:100850005C048AE090E090935F0480935E048BE0F8
:1008600090E090936104809360048CE090E090931A
:100870006304809362048DE090E09093650480931C
:10088000640480E090E0A0E2B1E480936604909379
:100890006704A0936804B093690480936A049093FA
:1008A0006B04A0936C04B0936D0480936E049093DA
:1008B0006F04A0937004B093710480E090E0AEE701
:1008C000B3E48093720490937304A0937404B09380
:1008D00075048093760490937704A0937804B09382
:1008E000790480937A0490937B04A0937C04B09362
:1008F0007D048CED95E090937F0480937E048EEFD1
:100900009FEF0E949F030E94280280913E049091D5
:100910003F04029718F40E94040102C00E942201C1
:100920000E94E4000C94F400029609F00EC164EBFE
:1009300071E08EEC95E00E94FD236091400470917F
:1009400041044AE050E08EEC95E00E94CF2466EB33
:1009500071E08EEC95E00E94FD236091420470915D
:1009600043044AE050E08EEC95E00E94CF2466EB11
:1009700071E08EEC95E00E94FD2360914604709139
:1009800047044AE050E08EEC95E00E94CF2466EBED
:1009900071E08EEC95E00E94FD2360914804709117
:1009A00049044AE050E08EEC95E00E94CF2466EBCB
:1009B00071E08EEC95E00E94FD23609152047091ED
:1009C00053044AE050E08EEC95E00E94CF2466EBA1
:1009D00071E08EEC95E00E94FD23609154047091CB
:1009E00055044AE050E08EEC95E00E94CF2466EB7F
:1009F00071E08EEC95E00E94FD2360914C047091B3
:100A00004D044AE050E08EEC95E00E94CF2466EB66
:100A100071E08EEC95E00E94FD2360914E04709190
:100A20004F044AE050E08EEC95E00E94CF2466EB44
:100A300071E08EEC95E00E94FD2360915E04709160
:100A40005F044AE050E08EEC95E00E94CF2466EB14
:100A500071E08EEC95E00E94FD236091600470913E
:100A600061044AE050E08EEC95E00E94CF2466EBF2
:100A700071E08EEC95E00E94FD236091620470911C
:100A800063044AE050E08EEC95E00E94CF2466EBD0
:100A900071E08EEC95E00E94FD23609164047091FA
:100AA00065044AE050E08EEC95E00E94CF2466EBAE
:100AB00071E08EEC95E00E94FD2340916604509118
:100AC0006704609168047091690422E030E08EEC64
:100AD00095E00E94172666EB71E08EEC95E00E948F
:100AE000FD2340916A0450916B0460916C047091F5
:100AF0006D0422E030E08EEC95E00E94172666EB54
:100B000071E08EEC95E00E94FD2360917E0470916F
:100B10007F044AE050E08EEC95E00E94CF2466EB23
:100B200071E08EEC95E00E94FD2360913E0470918F
:100B30003F044AE050E08EEC95E00E94CF2468EB41
:100B400071E08EEC95E00C94FD230895611571051C
:100B50008105910511F00C94442008954F925F9205
:100B60006F927F928F929F92AF92BF92CF92DF92BD
:100B7000EF92FF920F931F93CF93DF936A012AE0C6
:100B8000289F5001299FB00C1124269F4001279FC8
:100B9000900C1124E12CF12C2A01662457FC60945E
:100BA000762CC0E0D0E06DE070E08AEB91E00E942E
:100BB000631084019701AE016CEB72E08CEB92E064
:100BC0000E94D102882301F1C701B5010E94092BBF
:100BD000892B51F0CE01B5010E94092B892B21F000
:100BE000CB3B82E0D80781F468E070E088EC91E0CC
:100BF0000E946310C301B2010E94A60563E070E089
:100C000084EA91E00E9463102196CC3B82E0D807F1
:100C100051F66DE070E087E891E00E9463106EE0AD
:100C200070E085E991E00E9463108FEFE81AF80AFE
:100C30008CEBE81682E0F80609F0B3CFCCEBD2E0FB
:100C4000EE24D7FCE094FE2C6DE070E08AEB91E09E
:100C50000E94631068E070E088EC91E00E946310ED
:100C6000C701B6010E94A60563E070E084EA91E046
:100C70000E946310219741F7DF91CF911F910F914F
:100C8000FF90EF90DF90CF90BF90AF909F908F90AC
:100C90007F906F905F904F900895AF92BF92CF92E8
:100CA000DF92EF92FF920F931F93CF93DF937C011C
:100CB0006B015A0180E50E9456020E949728EB01C1
:100CC0001C161D0614F0C2E3D0E0A501B60184E4B1
:100CD0000E9456020E9497288B011616170614F0E0
:100CE00003E010E0A501B6018DE40E9456020E94C7
:100CF00097286B01161617061CF085E0C82ED12C1C
:100D00000E94A70281E0E816F10429F082E0E816CB
:100D1000F10451F14EC0AE01B601C8010E94AE050A
:100D200061E170E081ED91E00E9463100E94B902E0
:100D300066E170E083EE91E00E94631063E070E092
:100D40008AEF91E00E94631061E170E08EEF91E024
:100D5000DF91CF911F910F91FF90EF90DF90CF9097
:100D6000BF90AF900C94631060E170E08DE092E072
:100D70000E94631061E170E08EE192E00E946310D6
:100D800061E170E080E392E00E94631060E170E056
:100D900082E492E00E94631065E170E083E592E0F6
:100DA0000E94631065E170E089E692E00E946310A2
:100DB000DBCFDF91CF911F910F91FF90EF90DF90EC
:100DC000CF90BF90AF900895CF92DF92EF92FF92B5
:100DD0006115710581059105D9F0611520E472074F
:100DE0008105910570F028EE33E040E050E00E946C
:100DF0001D2B6B017C01CA01B9010E94A605C60129
:100E000001C0CB01FF90EF90DF90CF900C946C204D
:100E1000FF90EF90DF90CF9008954F925F926F9286
:100E20007F928F929F92AF92BF92CF92DF92EF927A
:100E3000FF920F931F93CF93DF931F92CDB7DEB72F
:100E40004C016B015A0127013801440C551C661CEA
:100E5000771C00E010E00A151B0574F4422FB60160
:100E6000C40129830E94FE01C301B2010E94E4066D
:100E70000F5F1F4F2981EFCF0F90DF91CF911F910F
:100E80000F91FF90EF90DF90CF90BF90AF909F9029
:100E90008F907F906F905F904F9008952F923F9228
:100EA0004F925F926F927F928F929F92AF92BF927A
:100EB000CF92DF92EF92FF920F931F93CF93DF9326
:100EC000CDB7DEB764970FB6F894DEBF0FBECDBFC7
:100ED0009C8B8B8B7A8369835D834C830A871B870A
:100EE0002C873D87DA010D911D912D913C91FA01DE
:100EF00084819581A681B78180179107A207B307E6
:100F000014F4D901C801EC81FD8100851185228589
:100F10003385BC01CD01601771078207930714F474
:100F2000C901B801609380047093810480938204A6
:100F30009093830422E030E040E050E00E943F2B99
:100F4000882499245401821A930AA40AB50A3324E6
:100F50003394A981BA814D915D916D917C91EB891A
:100F6000FC8980819181A281B381481759076A0762
:100F70007B070CF4312CF1E0FB83A981BA81149634
:100F80004D915D916D917C911797EB89FC898481DE
:100F90009581A681B781481759076A077B070CF42A
:100FA0001B8222242394A981BA8118964D915D91C8
:100FB0006D917C911B97EB89FC8980859185A28539
:100FC000B385481759076A077B070CF4212C8E82DA
:100FD0009F82A886B9862401350181E0F32DF82788
:100FE000F98B2B8128272A8BA981BA81ED90FD905E
:100FF0000D911C91EB89FC892081318142815381C3
:1010000060914C0470914D04C32C809152049091D6
:1010100053040E94D8018E87A981BA811496ED905D
:10102000FD900D911C911797EB89FC8924813581E6
:101030004681578160914E0470914F04CB8080911E
:101040005404909155040E94D8018F87A981BA81D8
:101050001896ED90FD900D911C911B97EB89FC89E2
:1010600020853185428553856091500470915104EB
:10107000C22C80915604909157040E94D801888B0D
:10108000FE85FF23E9F1EC81FD8180819181A281C0
:10109000B381880E991EAA1EBB1E181419041A04C7
:1010A0001B040CF0ACC06091460470914704432DC2
:1010B00080914004909141040E94FE01809180043F
:1010C00090918104A0918204B0918304881A990AB6
:1010D000AA0ABB0AEB89FC8980819181A281B38134
:1010E000332021F00196A11DB11D05C00197A10972
:1010F000B109EB89FC8980839183A283B3837FC08C
:1011000080915204909153040E94CE01811109C034
:1011100080914C0490914D040E94CE01882309F4E3
:101120006EC0C0906505D0906605E0906705F090B0
:101130006805AB89BC896D917D918D919C910E94D0
:10114000CA28A70196010E942F2820E030E040E243
:1011500051E40E94232A0E9497280E94CA2820E076
:1011600030E040E251E40E942F28311081C120E09C
:1011700030E040EC5FE30E944F2760934505709399
:101180004605809347059093480520914505309189
:1011900046054091470550914805C701B6010E9498
:1011A000232A0E949728A981BA816D937D938D93FC
:1011B0009C931397EB89FC890081118122813381F3
:1011C000AB01BC01401B510B620B730B77FF07C0D7
:1011D00070956095509541955F4F6F4F7F4F80910F
:1011E000460490914704EA84FB840C851D85298977
:1011F000BC0180914004909141040E940D07FF853D
:10120000FF23F1F1EC81FD8184819581A681B78175
:10121000480E591E6A1E7B1E14141504160417046A
:101220000CF0AFC060914804709149044B818091EB
:101230004204909143040E94FE01809180049091A9
:101240008104A0918204B0918304481A590A6A0A61
:101250007B0AEB89FC8984819581A681B781FB811A
:10126000FF2321F00196A11DB11D03C00197A10923
:10127000B109EB89FC8984839583A683B78381C0F8
:1012800080915404909155040E94CE01811109C0AF
:1012900080914E0490914F040E94CE01882309F45E
:1012A00070C0C0906105D0906205E0906305F09039
:1012B0006405EB89FC8964817581868197810E9430
:1012C000CA28A70196010E942F2820E030E040E2C2
:1012D00051E40E94232A0E9497280E94CA2820E0F5
:1012E00030E040E251E40E942F28FB81F111C7C099
:1012F00020E030E040EC5FE30E944F276093490517
:1013000070934A0580934B0590934C0520914905B5
:1013100030914A0540914B0550914C05C701B601EB
:101320000E94232A0E949728A981BA8114966D935E
:101330007D938D939C931797EB89FC89048115818C
:1013400026813781AB01BC01401B510B620B730B33
:1013500077FF07C070956095509541955F4F6F4F2F
:101360007F4F8091480490914904EA84FB840C8566
:101370001D852A89BC0180914204909143040E94FA
:101380000D07F889FF2309F44BC0EC81FD818085AE
:101390009185A285B3852E813F8148855985280F87
:1013A000391F4A1F5B1F2E833F83488759871216B8
:1013B000130614061506A4F560914A0470914B04B7
:1013C000422D80914404909145040E94FE01809139
:1013D000800490918104A0918204B09183042E81B5
:1013E0003F8148855985281B390B4A0B5B0B2E839F
:1013F0003F8348875987EB89FC8980859185A28541
:10140000B385222021F00196A11DB11D05C00197D1
:10141000A109B109EB89FC8980879187A287B387ED
:101420006A857B858C859D850E94E406FE85F11189
:10143000DBCD2F852111D8CD38893111D5CD6496DA
:101440000FB6F894DEBF0FBECDBFDF91CF911F91D5
:101450000F91FF90EF90DF90CF90BF90AF909F9053
:101460008F907F906F905F904F903F902F90089556
:1014700020E030E040EC5FE30E944E277ECE20E08B
:1014800030E040EC5FE30E944E2738CFEF92FF92AE
:101490000F931F9325E0E22EF12C04E010E023E0EF
:1014A00030E042E050E064E170E086EF93E00E94BB
:1014B0003B1F39E0E32EF12C08E010E027E030E09C
:1014C00046E050E064E170E08CED93E00E943B1F49
:1014D00089ED93E00E94F51D86ED93E01F910F9139
:1014E000FF90EF900C94F51D0E94E20A0E94D70332
:1014F0000E945C0E0E9402196CE373E08EEC95E092
:101500000E941A246FE573E08EEC95E00E941A2485
:1015100063E070E08EE191E00C946310CF93DF9371
:101520000E94F50A0E94BC0A8A3051F40E94F00A17
:10153000EC010E94ED0ABE010E9463100E94D30AD2
:101540000E94BC0A8B3351F40E94F00AEC010E9405
:10155000ED0ABE010E94B51A0E94D30A0E94C70A72
:10156000892B11F00E94F400DF91CF910C9433038A
:101570000C94740A0C948E0A8091860490918704CE
:10158000892B19F080910805089580E0089581E085
:1015900090E020918404309185042131374214F485
:1015A00080E090E00895E8E8F4E085E0E830F807AE
:1015B00011F01192FACF10928704109286041092C3
:1015C0000805089526E040E052EC61E070E08EEC02
:1015D00095E00E94A8220C94D30A88E894E008952C
:1015E000809186049091870408958EEC95E00E9486
:1015F000C52118161906DCF48EEC95E00E94DE2158
:101600008093080510928504109284048A30E1F0DA
:101610002091860430918704F901E857FB4F8083BD
:101620002F5F3F4F30938704209386040895809165
:10163000840490918504019690938504809384049A
:1016400085E090E00C946C200895CB010C94162F4B
:10165000CB01642F0C941E2F0F931F93CF93DF9316
:10166000CDB7DEB72A970FB6F894DEBF0FBECDBF59
:1016700019821A821B821C82FE01359696E0DF01D8
:101680001D929A95E9F790E0292F30E0241735074D
:1016900034F5FB01E20FF31F2081A1E0A90F28130D
:1016A0001CC01A2FFE0131960BE0090FCF01212F2C
:1016B00030E02417350764F4101751F0260F371F58
:1016C000D9012C91322F3F7D19F021931F5FEFCF6D
:1016D00060E070E00E94832D05C09A2FD5CF60E0B6
:1016E00070E0CB012A960FB6F894DEBF0FBECDBFD7
:1016F000DF91CF911F910F91089590E0292F30E055
:101700002417350744F4FB01E20FF31F208128174B
:1017100021F09F5FF3CF80E0089581E008952F923C
:101720003F924F925F926F927F928F929F92AF9271
:10173000BF92CF92DF92EF92FF920F931F93CF93BE
:10174000DF93CDB7DEB76C970FB6F894DEBF0FBE50
:10175000CDBF1C012A013B018901DC011896CD9007
:10176000DD90ED90FC901B978D919D910D90BC911B
:10177000A02D89839A83AB83BC839C01AD01C701F3
:10178000B6010E944E2720E030E040E450E40E9481
:10179000232A69877A878B879C87A7019601F101A5
:1017A00060897189828993890E944E2720E030E008
:1017B00040E450E40E94232A29853A854B855C85C4
:1017C0000E944E27698B7A8B8B8B9C8BD1011C9648
:1017D0008D909D90AD90BC901F9714968D919D918A
:1017E0000D90BC91A02D8D839E83AF83B8879C0103
:1017F000AD01C501B4010E944E2720E030E040E475
:1018000050E40E94232A6B017C01A5019401F1019F
:1018100064897589868997890E944E2720E030E087
:1018200040E450E40E94232AA70196010E944E271B
:101830004B015C01A3019201C301B2010E94232A62
:101840006D877E878F87988BA30192010E94232A40
:101850006D8B7E8B8F8B988F2D813E814F8158852C
:10186000D1015C966D917D918D919C915F970E94C5
:101870004E27A70196010E944E27A50194010E94C0
:101880004E272D893E894F89588D0E94232A698FC2
:101890007A8F8B8F9C8F2D853E854F855889C5010A
:1018A000B4010E94232A9B01AC01698D7A8D8B8D36
:1018B0009C8D0E944F274B015C01A3019201C7013F
:1018C000B6010E94232A9B01AC01C501B4010E940C
:1018D0004F272D813E814F8158850E944F276B01F4
:1018E0007C0129813A814B815C81F101608D718D90
:1018F000828D938D0E944E2729853A854B855C8584
:101900000E944E2729893A894B895C890E944E277B
:101910002D893E894F89588D0E94232A4B015C01F5
:101920002D853E854F85588969897A898B899C895F
:101930000E94232A9B01AC01C501B4010E944F27DC
:101940004B015C01A301920169857A858B859C8599
:101950000E94232A9B01AC01C501B4010E944F27BC
:1019600029813A814B815C810E944F27D8016D9378
:101970007D938D939C931397F801C482D582E68260
:10198000F7826C960FB6F894DEBF0FBECDBFDF9125
:10199000CF911F910F91FF90EF90DF90CF90BF906C
:1019A000AF909F908F907F906F905F904F903F90FF
:1019B0002F9008958F929F92AF92BF92CF92DF9215
:1019C000EF92FF92CF938090450590904605A090AE
:1019D0004705B0904805209151053091520540913E
:1019E000530550915405C501B4010E944E276B0167
:1019F0007C0120E030E0A9010E94182A181624F08A
:101A0000F7FAF094F7F8F094C0923905D0923A05BD
:101A1000E0923B05F0923C0520915505309156052A
:101A200040915705509158056091490570914A05BC
:101A300080914B0590914C050E944E276B017C01D3
:101A400020E030E0A9010E94182A181624F0F7FAC5
:101A5000F094F7F8F094C0923D05D0923E05E092E4
:101A60003F05F09240052091590530915A0540916B
:101A70005B0550915C0560914D0570914E0580911C
:101A80004F05909150050E944E276B017C0120E08C
:101A900030E0A9010E94182A181624F0F7FAF094F1
:101AA000F7F8F094C0924105D0924205E0924305C8
:101AB000F092440560916505709166058091670517
:101AC00090916805A50194010E942302609321056D
:101AD0007093220580932305909324052091490556
:101AE00030914A0540914B0550914C05609161053C
:101AF0007091620580916305909164050E942302B4
:101B000060932505709326058093270590932805FB
:101B100020914D0530914E0540914F055091500553
:101B200060915D0570915E0580915F059091600503
:101B30000E9423026093290570932A0580932B0548
:101B400090932C058090210590902205A09023056C
:101B5000B0902405C0902D05D0902E05E0902F0563
:101B6000F09030058C189D08AE08BF08B7FE08C07D
:101B7000B094A09490948094811C911CA11CB11CE1
:101B80008092150590921605A0921705B09218053F
:101B90008090250590902605A0902705B0902805F7
:101BA000C0903105D0903205E0903305F0903405B7
:101BB0008C189D08AE08BF08B7FE08C0B094A0946A
:101BC00090948094811C911CA11CB11C80921905D9
:101BD00090921A05A0921B05B0921C05C090350585
:101BE000D0903605E0903705F0903805DC01CB0148
:101BF0008C199D09AE09BF09B7FF07C0B095A09524
:101C0000909581959F4FAF4FBF4F80931D05909347
:101C10001E05A0931F05B0932005C1E0209151053A
:101C200030915205409153055091540560914505FE
:101C30007091460580914705909148050E94182AA9
:101C400087FDC0E0C0931401C1E02091550530919B
:101C5000560540915705509158056091490570917E
:101C60004A0580914B0590914C050E94182A87FDEA
:101C7000C0E0C0931301C1E02091590530915A058D
:101C800040915B0550915C0560914D0570914E054A
:101C900080914F05909150050E94182A87FDC0E061
:101CA000C0931201CF91FF90EF90DF90CF90BF9043
:101CB000AF909F908F900895109251051092520509
:101CC0001092530510925405109255051092560526
:101CD00010925705109258051092590510925A0506
:101CE00010925B0510925C05109245051092460516
:101CF00010924705109248051092490510924A0526
:101D000010924B0510924C0510924D0510924E0505
:101D100010924F05109250058091660490916704CF
:101D2000A0916804B091690480936505909366055D
:101D3000A0936705B093680580916A0490916B0445
:101D4000A0916C04B0916D0480936105909362053D
:101D5000A0936305B093640580916E0490916F0425
:101D6000A0917004B091710480935D0590935E051D
:101D7000A0935F05B09360050C94DA0C8F929F924C
:101D8000AF92BF92CF92DF92EF92FF920F931F9389
:101D9000CF93DF934B015C01609351057093520523
:101DA000809353059093540585E5C82E85E0D82E81
:101DB000F6012083318342835383C9E5D5E0E8826D
:101DC000F9820A831B836091650570916605809195
:101DD000670590916805A50194010E942302609314
:101DE0002D0570932E0580932F0590933005F601F5
:101DF000208131814281538160916105709162053A
:101E000080916305909164050E94230260933105DF
:101E1000709332058093330590933405288139817E
:101E20004A815B8160915D0570915E0580915F05DF
:101E3000909160050E9423026093350570933605EA
:101E40008093370590933805DF91CF911F910F91C3
:101E5000FF90EF90DF90CF90BF90AF909F908F90CA
:101E60000C94DA0C4F925F926F927F928F929F92B6
:101E7000AF92BF92CF92DF92EF92FF92CF93DF9318
:101E800000D000D0CDB7DEB76B017C016091390581
:101E900070913A0580913B0590913C0580903D05FD
:101EA00090903E05A0903F05B090400540904105C0
:101EB0005090420560904305709044059B01AC0131
:101EC0000E94232A69837A838B839C83A5019401D2
:101ED000C501B4010E94232A9B01AC0169817A816A
:101EE0008B819C810E944F274B015C01A3019201D1
:101EF000C301B2010E94232A9B01AC01C501B401B8
:101F00000E944F270E94902A2B013C014091150509
:101F1000509116056091170570911805809119056B
:101F200090911A05A0911B05B0911C05F0911D051B
:101F3000E0911E0530911F05209120058F2E9E2EC9
:101F4000A32EB22E84179507A607B70744F484166C
:101F50009506A606B70654F44A015B0107C0881629
:101F60009906AA06BB0614F44C015D0120E030E09E
:101F7000A901C701B6010E942828882361F18114B4
:101F80009104A104B10439F120EC31EE44E65CE4A3
:101F9000C301B2010E94232AA70196010E942F28A3
:101FA0006B017C01C501B4010E94CA289B01AC01F0
:101FB000C701B6010E942F2820E030E042E852E439
:101FC0000E944E276B017C0120E030E0A9010E94B5
:101FD000282887FF03C0C12CD12C7601C701B60188
:101FE0000E9497280F900F900F900F90DF91CF9144
:101FF000FF90EF90DF90CF90BF90AF909F908F9029
:102000007F906F905F904F9008950F931F938B0177
:102010009C0145E155E061E275E08DE295E00E94AA
:102020004E078091450590914605A0914705B091D6
:1020300048058093510590935205A0935305B093A2
:1020400054058091490590914A05A0914B05B091A6
:102050004C058093550590935605A0935705B09372
:10206000580580914D0590914E05A0914F05B09176
:1020700050058093590590935A05A0935B05B09342
:102080005C051F910F910C94DA0C80911D059091C5
:102090001E05A0911F05B0912005181619061A06F5
:1020A0001B062CF460E070E88BEB94E40AC06091AE
:1020B0007E0470917F04882777FD8095982F0E9479
:1020C000CA280C94320F2F923F924F925F926F92D8
:1020D0007F928F929F92AF92BF92CF92DF92EF92B8
:1020E000FF920F931F93CF93DF93CDB7DEB7CB54FF
:1020F000D1090FB6F894DEBF0FBECDBF1C012B0176
:10210000DC018C918F3211F40C94A018873421F0EB
:102110008855833008F004C6A201B10187E40E940B
:102120002C0B0E94972869A77AA78BA79CA7B9A513
:10213000B9AF09A51AA511270430110508F081C00F
:1021400080911405A201B101882309F446C088E5F5
:102150000E947D0B882341F0A201B10188E50E9415
:102160002C0B4B015C0108C08090510590905205EA
:10217000A0905305B0905405A201B10189E50E94D9
:102180007D0B882341F0A201B10189E50E942C0B4F
:102190006B017C0108C0C0905505D0905605E090B9
:1021A0005705F0905805A201B1018AE50E947D0B08
:1021B000882331F0A201B1018AE50E942C0B3CC0BA
:1021C0002091590530915A0540915B0550915C056D
:1021D0002DA73EA74FA758AB3DC088E50E942C0B0A
:1021E000209151053091520540915305509154056D
:1021F0000E944F274B015C01A201B10189E50E94B9
:102200002C0B209155053091560540915705509162
:1022100058050E944F276B017C01A201B1018AE59C
:102220000E942C0B2091590530915A0540915B0575
:1022300050915C050E944F276DA77EA78FA798AB92
:1022400009C01DA61EA61FA618AAC12CD12C760156
:1022500046015701A201B1018CE40E942C0B0E949F
:1022600097287093130560931205161617061CF431
:10227000CB010E94AC010431110509F4D9C3FCF46F
:102280000430110524F402301105BCF1A0C0043063
:10229000110509F025C5A201B10180E50E942C0BB2
:1022A00020E030E04AE754E40E94232A0E94972865
:1022B000882777FD8095982F0E94E40626C50E3169
:1022C000110509F429C44CF40531110509F4E5C3DD
:1022D0000C31110509F48FC403C50B35110509F440
:1022E000F2C40C35110509F4F1C40A35110509F0E1
:1022F000F7C481E08093140508C58092450590924B
:102300004605A0924705B0924805C0924905D09273
:102310004A05E0924B05F0924C058DA59EA5AFA510
:10232000B8A980934D0590934E05A0934F05B093A7
:1023300050050E94DA0CA201B10187E40E947D0BD6
:102340008823F9F099AD9130C9F4A201B10186E476
:102350000E942C0B0E9497281616170694F48827C3
:1023600077FD8095982F0E94CA2860930E05709380
:102370000F05809310059093110503C00E9445102E
:1023800015C0C0900E05D0900F05E0901005F0909C
:10239000110520E030E0A901C701B6010E94182A0A
:1023A000181664F7C701B6010E94320F60930A0540
:1023B00070930B0580930C0590930D0560910A05B1
:1023C00070910B0580910C0590910D0530C4A20110
:1023D000B10182E40E942C0B0E94972863307105A2
:1023E00009F07DC18091510590915205A09153054E
:1023F000B091540589839A83AB83BC838091550542
:1024000090915605A0915705B09158058D839E83F4
:10241000AF83B887A201B10181E60E942C0B6987C6
:102420007A878B879C87A201B10182E60E942C0BE0
:102430006D877E878F87988BA201B10183E60E940A
:102440002C0B698B7A8B8B8B9C8BA201B10184E660
:102450000E942C0B6D8B7E8B8F8B988FA201B1010C
:1024600085E60E942C0B698F7A8F8B8F9C8FA2013F
:10247000B10186E60E942C0B6D8F7E8F8F8F98A303
:10248000A980BA800B811C819D808E80AF812796A8
:10249000AFAF2797B8852896BFAF2897C12CD12C0E
:1024A0007601612C712CB301882777FD8095982FD8
:1024B0000E94CA2829E33EE843EE5DE30E94232AF6
:1024C000AB01BC019E012F5D3F4FCE0101960E94E2
:1024D0008F0BE9A1E9ABFAA1FDAB2BA129AF3CA180
:1024E0003AAF9F0149AD5AADB501C8010E944E27D0
:1024F00069A77AA78BA79CA71DA10EA14FA14EAFDC
:1025000058A523965FAF2397212F302F692D782D63
:1025100027968FAD279728969FAD28970E944E2724
:102520004B015C0129A53AA54BA55CA5CA01B901DF
:102530000E94232A69A77AA78BA79CA7A5019401CB
:10254000C501B4010E94232A9B01AC0169A57AA5AB
:102550008BA59CA50E944F274B015C0120E030E039
:10256000A9010E94182A181664F4C501B4010E943A
:10257000902A9B01AC01C701B6010E944F276B0155
:102580007C018FEF681A780A9AE06916710481F06D
:102590004801AEAD2796AFAF27972396BFAD2397DF
:1025A0002896BFAF2897A9A8BDA809AD1AAD7BCFC3
:1025B00020911701309118014091190150911A0191
:1025C000C701B6010E942F280E9415280E94972853
:1025D0003B01623071051CF492E0692E712CB3014D
:1025E00061507109882777FD8095982F0E94CA282D
:1025F0009B01AC0160E070E080E89FE30E942F281F
:102600004B015C0100E010E0B801882777FD809560
:10261000982F0E94CA28A50194010E94232AAB0189
:10262000BC019E012F5D3F4FCE0101960E948F0B92
:102630008DA19EA1AFA1B8A549A15AA16BA17CA172
:1026400040934505509346056093470570934805B0
:102650008093490590934A05A0934B05B0934C0590
:102660002DA53EA54FA558A920934D0530934E05A5
:1026700040934F05509350050E94DA0CC0900E0510
:10268000D0900F05E0901005F090110520E030E0AB
:10269000A901C701B6010E94182A18162CF4C70117
:1026A000B6010E94320F02C00E94451060930A05D5
:1026B00070930B0580930C0590930D0560910A05AE
:1026C00070910B0580910C0590910D050E940510ED
:1026D0000F5F1F4F061517050CF496CF16C3A20106
:1026E000B10189E40E942C0B2091510530915205D3
:1026F00040915305509154050E944F276AAF7BAF1C
:102700008CAF9DAFA201B1018AE40E942C0B2091F5
:10271000550530915605409157055091580529A708
:102720003AA74BA75CA70E944F2722966CAF7DAFBC
:102730008EAF9FAF22972AAD3BAD4CAD5DAD6091A2
:1027400051057091520580915305909154050E9456
:102750004E2769AB7AAB8BAB9CAB22962CAD3DADD3
:102760004EAD5FAD229769A57AA58BA59CA50E9469
:102770004E276DAB7EAB8FAB98AF2AAD3BAD4CAD6A
:102780005DADC501B4010E944E274B015C0122964C
:102790002CAD3DAD4EAD5FAD2297C701B6010E9495
:1027A0004E276B017C0139AD323089F4A5019401CB
:1027B0000E94C22769A77AA78BA79CA729A93AA933
:1027C0004BA95CA96DA97EA98FA998AD12C029A9B2
:1027D0003AA94BA95CA96DA97EA98FA998AD0E94C1
:1027E000C22769A77AA78BA79CA7A5019401C70157
:1027F000B6010E94C2276B017C0129A53AA54BA511
:102800005CA50E942828181654F02BED3FE049ECF7
:1028100050E4C701B6010E944F276B017C0129A536
:102820003AA54BA55CA5C701B6010E944E27269686
:102830006CAF7DAF8EAF9FAF269729A93AA94BA960
:102840005CA9CA01B9010E94232A6B017C012DA950
:102850003EA94FA958ADCA01B9010E94232A9B0184
:10286000AC01C701B6010E944F270E94902A6B015C
:102870007C0126962CAD3DAD4EAD5FAD26970E94F6
:10288000232A20911701309118014091190150918C
:102890001A010E942F280E9415280E9497283B01A8
:1028A00001E010E0CB01AA2797FDA095BA2F89ABD4
:1028B0009AABABABBCAB601671060CF426C299ADFB
:1028C000933021F0B301601B710B01C0B801882760
:1028D00077FD8095982F0E94CA284B015C0169A959
:1028E0007AA98BA99CA90E94CA289B01AC01C501A9
:1028F000B4010E942F289B01AC0126966CAD7DADE2
:102900008EAD9FAD26970E94232A9B01AC0169A53D
:102910007AA58BA59CA50E944F274B015C010E94C4
:102920002C289B01AC01C501B40129962FAF299732
:102930002A963FAF2A972B964FAF2B972C965FAFD7
:102940002C970E94862A4B015C0129962FAD29976E
:102950002A963FAD2A972B964FAD2B972C965FADBD
:102960002C97C701B6010E94232A9B01AC016AADD6
:102970007BAD8CAD9DAD0E944F2760934505709354
:1029800046058093470590934805A5019401C7012A
:10299000B6010E94232A9B01AC0122966CAD7DAD4D
:1029A0008EAD9FAD22970E944F276093490570938B
:1029B0004A0580934B0590934C052DA53EA54FA548
:1029C00058A920934D0530934E0540934F055093E1
:1029D00050050E94DA0C80900E0590900F05A09093
:1029E0001005B090110520E030E0A901C501B40147
:1029F0000E94182A18162CF4C501B4010E94320F47
:102A000002C00E94451060930A0570930B058093E5
:102A10000C0590930D0560910A0570910B0580914E
:102A20000C0590910D050E9405100F5F1F4F43CFBD
:102A30008091720490917304A0917404B091750414
:102A40008093650590936605A0936705B09368052C
:102A50008091760490917704A0917804B0917904E4
:102A60008093610590936205A0936305B09364051C
:102A700080917A0490917B04A0917C04B0917D04B4
:102A800080935D0590935E05A0935F05B09360050C
:102A900089E092E0A1E8BBE334C0809166049091A4
:102AA0006704A0916804B0916904809365059093D0
:102AB0006605A0936705B093680580916A049091BC
:102AC0006B04A0916C04B0916D04809361059093A8
:102AD0006205A0936305B093640580916E049091A4
:102AE0006F04A0917004B091710480935D05909380
:102AF0005E05A0935F05B09360058DEC9CECACEC9B
:102B0000BDE38093170190931801A0931901B0932E
:102B10001A010E94DA0CF9C0A201B10188E50E94F5
:102B20002C0B6B017C01A201B10189E50E942C0BE9
:102B30004B015C01A201B1018AE50E942C0B6DA73B
:102B40007EA78FA798AB80911405882309F472C0E3
:102B5000A201B10188E50E947D0B811108C0C090DF
:102B60005105D0905205E0905305F0905405A20114
:102B7000B10189E50E947D0B811108C08090550547
:102B800090905605A0905705B0905805A201B1014C
:102B90008AE50E947D0B81110CC0809159059091AE
:102BA0005A05A0915B05B0915C058DA79EA7AFA7C4
:102BB000B8ABC0924505D0924605E0924705F09229
:102BC00048058092490590924A05A0924B05B09223
:102BD0004C052DA53EA54FA558A920934D05309332
:102BE0004E0540934F05509350050E94DA0C0E9409
:102BF00045100E940510109245051092460510924E
:102C00004705109248051092490510924A05109206
:102C10004B0510924C0510924D0510924E051092E6
:102C20004F05109250050E94DA0C0E9445100E9438
:102C300005106BC02091590530915A0540915B05F4
:102C400050915C056DA57EA58FA598A90E944F2780
:102C50006DA77EA78FA798AB20915505309156059B
:102C60004091570550915805C501B4010E944F2766
:102C70004B015C01A70196016091510570915205CD
:102C800080915305909154050E944F27609345050C
:102C900070934605809347059093480580924905B7
:102CA00090924A05A0924B05B0924C058DA59EA529
:102CB000AFA5B8A980934D0590934E05A0934F05FD
:102CC000B093500592CF109214051FC0E12CF12C47
:102CD0008701A8019701C801B7010E94BE0E15C067
:102CE00068E673E08EEC95E00E94FD234AE050E038
:102CF00069A58EEC95E00E940E254AE050E06AE05E
:102D000070E08EEC95E00E94D7248091120590919E
:102D100013051816190624F480E090E00E94BD0106
:102D2000D1018C918D3409F050C0A201B1010E94F3
:102D30002C0B0E949C28162F633089F06530F1F42B
:102D4000A201B1018CE40E942C0B0E949728709381
:102D5000160160931501CB010E94BD011CC0A201A8
:102D6000B1018CE40E942C0B0E94972870931601ED
:102D700060931501CB010E94AC010DC061E773E0C7
:102D80008EEC95E00E94FD234AE050E0612F8EEC2E
:102D900095E00E941525A201B10180E50E942C0B4F
:102DA0006B017C0120E030E0A9010E94182A18166E
:102DB00064F420E030E04AE754E4C701B6010E9421
:102DC000232A0E949C280E94E406F1018081843518
:102DD00061F4A201B1010E942C0B0E949C28862F55
:102DE000A201B10190E00E944D06D1018C91843284
:102DF00009F0A6C1A201B1010E942C0B0E949C28DF
:102E0000862F90E0FC013197E531F10508F098C17B
:102E1000EC5CFF4F0C945E2BA201B10188E50E948F
:102E20007D0B882351F0A201B10188E50E942C0B93
:102E30000E94972888E50E940703A201B10189E555
:102E40000E947D0B882351F0A201B10189E50E9407
:102E50002C0B0E94972889E50E940703A201B1016B
:102E60008AE50E947D0B882309F46AC1A201B101A1
:102E70008AE50E942C0B0E9497288AE50E9407038E
:102E80005FC1A201B10188E50E947D0B882351F04A
:102E9000A201B10188E50E942C0B0E94972888E5C9
:102EA0000E940803A201B10189E50E947D0B8823DD
:102EB00051F0A201B10189E50E942C0B0E949728D4
:102EC00089E50E940803A201B1018AE50E947D0BF9
:102ED000882309F435C1A201B1018AE50E942C0BB7
:102EE0000E9497288AE50E9408032AC1A201B10125
:102EF00088E50E947D0B882351F0A201B10188E58D
:102F00000E942C0B0E94972888E50E940903A201C9
:102F1000B10189E50E947D0B882351F0A201B10126
:102F200089E50E942C0B0E94972889E50E940903DD
:102F3000A201B1018AE50E947D0B882309F400C13A
:102F4000A201B1018AE50E942C0B0E9497288AE514
:102F50000E940903F5C0A201B10188E50E947D0B22
:102F6000882351F0A201B10188E50E942C0B0E9438
:102F7000972888E50E940A03A201B10189E50E9411
:102F80007D0B882351F0A201B10189E50E942C0B31
:102F90000E94972889E50E940A03A201B1018AE5EF
:102FA0000E947D0B882309F4CBC0A201B1018AE500
:102FB0000E942C0B0E9497288AE50E940A03C0C039
:102FC000A201B1018DE60E942C0B0E949728CB0133
:102FD0000E94EA02B5C0A201B10188E50E947D0B02
:102FE000882351F0A201B10188E50E942C0BAB01AE
:102FF000BC0188E50E940D03A201B10189E50E9490
:103000007D0B882351F0A201B10189E50E942C0BB0
:10301000AB01BC0189E50E940D03A201B1018AE563
:103020000E947D0B8823E9F0A201B1018AE50E948C
:103030002C0BAB01BC018AE50E940D0312C0A2015A
:10304000B10186E40E947D0B882309F479C0A201B6
:10305000B10186E40E942C0B0E949728CB010E94AC
:103060002E030E945C0E6CC0A201B10181E40E949B
:103070007D0B882351F0A201B10181E40E942C0B49
:103080000E94972881E40E940B03A201B10182E40F
:103090000E947D0B882351F0A201B10182E40E94BD
:1030A0002C0B0E94972882E40E940B03A201B1011D
:1030B00081E40E947D0B882351F0A201B10181E4DB
:1030C0000E942C0B0E94972881E40E940C03A2010D
:1030D000B10182E40E947D0B882391F1A201B1012C
:1030E00082E40E942C0B0E94972882E40E940C0329
:1030F00027C0A201B1018CE40E942C0B0E949728EA
:103100006115710519F0CB010E949F03A201B10165
:1031100083E50E942C0B0E9497286115710519F018
:10312000CB010E943403A201B10180E50E942C0B67
:103130000E9497286115710519F0CB010E94940433
:1031400065E673E08EEC95E00E941A24C55BDF4FC4
:103150000FB6F894DEBF0FBECDBFDF91CF911F91A8
:103160000F91FF90EF90DF90CF90BF90AF909F9026
:103170008F907F906F905F904F903F902F90089529
:103180008091660490916704A0916804B0916904ED
:103190008093650590936605A0936705B0936805D5
:1031A00080916A0490916B04A0916C04B0916D04BD
:1031B0008093610590936205A0936305B0936405C5
:1031C00080916E0490916F04A0917004B09171048D
:1031D00080935D0590935E05A0935F05B0936005B5
:1031E000089590ED980F9A3018F490E0C0970895E4
:1031F0009FEB980F963018F490E0C79708958FEFE3
:103200009FEF089510928D0510928E0510928F05F4
:1032100010929005109281051092820510928305FC
:10322000109284051092750510927605109277051C
:103230001092780508958F929F92AF92BF92CF928D
:10324000DF92EF92FF920F931F938C01BC0197FFC7
:1032500004C066277727681B790B882777FD809540
:10326000982F0E94CA282DEC3CEC4CEC5DE30E94A8
:10327000232A4B015C01109285051092860510925D
:103280008705109288051092890510928A05109280
:103290008B0510928C05B801882777FD8095982FB3
:1032A0000E94CA282DEC3CEC4CEC5DE30E94232AE2
:1032B0009B01AC0160916604709167048091680481
:1032C000909169040E942302CC24DD247601C61A61
:1032D000D70AE80AF90AC0927905D0927A05E092F5
:1032E0007B05F0927C0510927D0510927E05109270
:1032F0007F0510928005F7FE08C0F094E094D0940A
:10330000C094C11CD11CE11CF11CC0926D05D0926F
:103310006E05E0926F05F0927005109271051092A3
:103320007205109273051092740580916905909151
:103330006A05A0916B05B0916C05181619061A065E
:103340001B0684F080917E0490917F04AA2797FD4C
:10335000A095BA2F8093690590936A05A0936B0599
:10336000B0936C0520EC31EE44E65CE4C501B40199
:103370000E94232A4B015C016091690570916A05E6
:1033800080916B0590916C050E94CA289B01AC014D
:10339000C501B4010E942F284B015C01C701B60191
:1033A0000E94CA289B01AC01C501B4010E942F28CC
:1033B0000E9497288B019C014DE655E069E775E076
:1033C00085E895E00E944E071F910F91FF90EF90C6
:1033D000DF90CF90BF90AF909F908F900895CF9245
:1033E000DF92EF92FF920F931F938C01BC0197FF26
:1033F00004C066277727681B790B882777FD80959F
:10340000982F0E94CA282DEC3CEC4CEC5DE30E9406
:10341000232A6B017C01109285051092860510927B
:103420008705109288051092890510928A051092DE
:103430008B0510928C051092790510927A051092E6
:103440007B0510927C05B801882777FD8095982F21
:103450000E94CA282DEC3CEC4CEC5DE30E94232A30
:103460009B01AC0160916A0470916B0480916C04C3
:1034700090916D040E9423029B01AC01882799273B
:10348000DC01821B930BA40BB50B80937D059093FD
:103490007E05A0937F05B093800510926D05109274
:1034A0006E0510926F0510927005B7FF07C0B095BA
:1034B000A095909581959F4FAF4FBF4F8093710519
:1034C00090937205A0937305B0937405809169057C
:1034D00090916A05A0916B05B0916C0518161906BC
:1034E0001A061B0684F080917E0490917F04AA271F
:1034F00097FDA095BA2F8093690590936A05A093D4
:103500006B05B0936C0520EC31EE44E65CE4C7013A
:10351000B6010E94232A6B017C01609169057091BC
:103520006A0580916B0590916C050E94CA289B01E9
:10353000AC01C701B6010E942F2820E030E0A901AC
:103540000E942F280E9497288B019C014DE655E090
:1035500069E775E085E895E00E944E071F910F919D
:10356000FF90EF90DF90CF9008952F923F924F926F
:103570005F926F927F928F929F92AF92BF92CF9203
:10358000DF92EF92FF920F931F93CF93DF937C0113
:103590006B018C01C8018E199F098C159D050CF0DB
:1035A0004BC2F801C1918F016C2F81E995E00E9417
:1035B0002827C33509F443C0B4F4CC3409F44EC011
:1035C000CD3409F45AC0CB3309F069C010929E057E
:1035D00010929D0567EB71E081E995E00E94E42679
:1035E00065E673E058C0C83561F0C935C9F0C53526
:1035F00009F055C085E090E090939E0580939D056D
:1036000033C041E050E050939E0540939D0567EB29
:1036100071E081E995E00E94E4266AE773E03BC02F
:1036200082E090E090939E0580939D0567EB71E0AA
:1036300081E995E00E94E42660E873E02CC0E3E0B5
:10364000F0E0F0939E05E0939D0567EB71E081E962
:1036500095E00E94E42666E873E01DC044E050E077
:1036600050939E0540939D0567EB71E081E995E0DD
:103670000E94E4266CE873E00EC0E7E0F0E0F0930F
:103680009E05E0939D0567EB71E081E995E00E945E
:10369000E42662E973E08EEC95E00E941A248091A2
:1036A0009D0590919E05209195053091960583305A
:1036B000910509F402C11CF401975CF4AFC1853097
:1036C000910509F48EC00CF448C1079709F47FC135
:1036D000A5C12530310509F0A1C160E070E081E9A4
:1036E00095E00E943B27FC0180810E94F118782E12
:1036F00061E070E081E995E00E943B27FC01808158
:103700000E94F118682E62E070E081E995E00E9465
:103710003B27FC0180810E94F118EC0163E070E01E
:1037200081E995E00E943B27FC0180810E94F1180D
:10373000B72CB29470EFB722A12C962C812C950156
:1037400028293929282B392BE4E0CC0FDD1FEA95F5
:10375000E1F72C2B3D2B30939C0520939B0564E0D7
:1037600070E081E995E00E943B27FC0180810E9486
:10377000F118892B19F081E090E002C08FEF9FEFE4
:1037800040919D0550919E0520919B0530919C058F
:103790004130510559F4AC01429FC001439F900D47
:1037A000529F900D11240E941B190AC0FC01E29F38
:1037B000C001E39F900DF29F900D11240E94EF191C
:1037C00067EB71E081E995E00E94E42668E973E027
:1037D0008EEC95E00E94FD2360919B0570919C0505
:1037E000B5C02430310509F019C160E070E081E90D
:1037F00095E00E943B27FC0180810E94F118782E01
:1038000061E070E081E995E00E943B27FC01808146
:103810000E94F118682E62E070E081E995E00E9454
:103820003B27FC0180810E94F118EC0163E070E00D
:1038300081E995E00E943B27FC0180810E94F118FC
:10384000572C529450EF5522412C362C212C9201AA
:1038500022293329282B392B64E0CC0FDD1F6A95F0
:10386000E1F72C2B3D2B30939A052093990567EBBC
:1038700071E081E995E00E94E4266EE973E08EEC48
:1038800095E00E94FD236091990570919A054AE0A8
:1038900050E08EEC95E00E94D7248091990590919C
:1038A0009A05181619060CF0B9C0BC01882777FDD7
:1038B0008095982F0E944420B1C02230310509F034
:1038C000ADC060E070E081E995E00E943B27FC011B
:1038D00080810E94F118EC0161E070E081E995E0DF
:1038E0000E943B27FC0180810E94F11844E0CC0F2C
:1038F000DD1F4A95E1F7C82BD92BD0931C01C0934B
:103900001B011C161D0694F4FAE0FC9FC001FD9FEC
:10391000900D1124AA2797FDA095BA2F80936905D1
:1039200090936A05A0936B05B0936C0567EB71E00B
:1039300081E995E00E94E4266AEA73E08EEC95E066
:103940000E94FD2360911B0170911C014AE050E030
:103950008EEC95E00E94D72461C02230310509F039
:103960005DC060E070E081E995E00E943B27FC01CA
:1039700080810E94F118EC0161E070E081E995E03E
:103980000E943B27FC0180810E94F11834E0CC0F9B
:10399000DD1F3A95E1F7C82BD92B209729F480E059
:1039A00090E00E94BD0103C0CE010E94AC0167EB14
:1039B00071E081E995E00E94E42661EB73E08EEC12
:1039C00095E00E94FD234AE050E0BE01C1CF2230C5
:1039D000310521F560E070E081E995E00E943B2728
:1039E000FC0180810E94F118EC0161E070E081E946
:1039F00095E00E943B27FC0180810E94F11824E0A1
:103A0000CC0FDD1F2A95E1F7C82BD92BD093980551
:103A1000C0939705219711F40E94F40080919505B9
:103A200090919605819708F4B5CD67EB71E081E937
:103A300095E00E94E426AECDDF91CF911F910F91CA
:103A4000FF90EF90DF90CF90BF90AF909F908F90BE
:103A50007F906F905F904F903F902F90089567EB0D
:103A600071E081E995E00C94CE2681E995E00C9413
:103A700060261F920F920FB60F9211242F933F933F
:103A80004F935F936F937F938F939F93AF93BF9366
:103A9000EF93FF938091A00587FF05C010928500EA
:103AA000109284001AC02091A005332727FD30957D
:103AB00080919F0590E0281739077CF48091A0053C
:103AC000992787FD9095FC01EE0FFF1FE80FF91F66
:103AD000EF55FA4F808186FD15C08091A0058F5F5C
:103AE0008093A0052091A005332727FD3095809174
:103AF0009F0590E028173907BCF48091A0058C3011
:103B00005CF112C08091A005992787FD9095FC017A
:103B1000EE0FFF1FE80FF91FEF55FA4F808160E0AD
:103B20008F730E948F21D9CF80918400909185005E
:103B3000049680349C4918F480E49CE905C0809187
:103B4000840090918500049690938900809388006A
:103B50008FEF8093A00538C08091840090918500FC
:103B60002091A005332727FD3095F901EE0FFF1FA7
:103B7000E20FF31FEF55FA4F21813281820F931F1D
:103B800090938900809388008091A005992787FDF4
:103B90009095FC01EE0FFF1FE80FF91FEF55FA4F4C
:103BA000808186FF11C08091A005992787FD90959F
:103BB000FC01EE0FFF1FE80FF91FEF55FA4F808150
:103BC00061E08F730E948F21FF91EF91BF91AF91C0
:103BD0009F918F917F916F915F914F913F912F9125
:103BE0000F900FBE0F901F90189520919F052C30BD
:103BF000A0F431E0320F30939F05FC012083822F27
:103C000090E0FC01EE0FFF1FE80FF91FEF55FA4F90
:103C100088EB9BE09283818308952FEFFC01208342
:103C20000895DF92EF92FF920F931F93CF93DF934C
:103C3000EC01D62E7A01890188818C3008F066C0AB
:103C400061E08D2D0E9456218881A82FB0E0FD01F2
:103C5000EE0FFF1FEA0FFB1FEF55FA4F2D2D2F73AD
:103C60009081907C922B908360E272E06E197F09C4
:103C700077FF02C06D5F7F4F759567957595679566
:103C8000698340E659E0401B510B57FF02C04D5F6E
:103C90005F4F55954795559547954A836CE00E942F
:103CA000FD2A9CE0899FB001112420E030E0A901A9
:103CB000460F571FFA01EE0FFF1FE40FF51FEF55D8
:103CC000FA4F908196FD16C02F5F3F4F2C30310583
:103CD00071F781110FC01092800082E08093810003
:103CE0001092850010928400B19A80916F008260DA
:103CF00080936F00888190E0FC01EE0FFF1FE80FBA
:103D0000F91FEF55FA4F8081806480838881DF91AD
:103D1000CF911F910F91FF90EF90DF90089520E6D3
:103D200039E040E252E00C94111EFC01808190E0E9
:103D3000FC01EE0FFF1FE80FF91FEF55FA4F8081CE
:103D40008F7B80830895FC0180818C3070F5918198
:103D500028E830E0291B310997FD3395220F331FE6
:103D6000220F331F621773077CF0928128E532E03F
:103D7000291B310997FD3395220F331F220F331F63
:103D8000621773070CF49B014FB7F89490E0FC01A5
:103D9000EE0FFF1FE80FF91FEF55FA4F22503109C0
:103DA000220F331F328321834FBF08954F925F92BA
:103DB0006F927F92AF92BF92CF92DF92EF92FF927B
:103DC0000F931F93CF93DF93EC01603282E078076B
:103DD0000CF040C077FD06C0653B71052CF064EB2C
:103DE00070E002C060E070E0898128E830E0281BC4
:103DF000310987FD3395220F331F220F331F5901DD
:103E0000CC24B7FCC094DC2C882777FD8095982FB4
:103E10002A8148E552E0421B510927FD5395440F82
:103E2000551F440F551F2A01662457FC6094762CB9
:103E30007F926F925F924F9214EBE12EF12C00E093
:103E400010E020E030E0A9010E9419260F900F90A9
:103E50000F900F90CE01DF91CF911F910F91FF90A6
:103E6000EF90DF90CF90BF90AF907F906F905F907A
:103E70004F900C94A31EEF92FF920F931F93CF933A
:103E8000DF93EC01842F1F821E82198218827B83AC
:103E90006A83198618861E861F86188A198A4A8B95
:103EA0005B8B3D8B2C8B1F8B0E8BF98EE88E61E02C
:103EB0000E94562161E08C890E94562161E08E8922
:103EC0000E94562161E0888D0E94562184E090E096
:103ED0009D838C83DF91CF911F910F91FF90EF9085
:103EE0000895CF93DF93EC0161307105A9F044F49C
:103EF000672B91F561E08A890E948F2160E011C0F3
:103F000062307105B9F06330710531F561E08A897D
:103F10000E948F2160E013C060E08A890E948F2197
:103F200061E08C890E948F2161E08E890E948F213F
:103F300060E00DC060E08A890E948F2161E08C8979
:103F40000E948F2160E08E890E948F2161E0888D20
:103F5000DF91CF910C948F21DF91CF910895FC01D7
:103F600071836083868197816130710559F4019670
:103F700097838683228133818217930771F4178296
:103F800016820BC0892B21F48281938197838683CB
:103F9000868197810197978386838681978164E0E4
:103FA00070E00E94092BBC01CF010C94711F1F927D
:103FB0000F920FB60F9211242F933F938F939F93DD
:103FC000AF93BF938091C6059091C705A091C80596
:103FD000B091C9053091C50523E0230F2D3720F49A
:103FE0000196A11DB11D05C026E8230F0296A11D53
:103FF000B11D2093C5058093C6059093C705A09376
:10400000C805B093C9058091CA059091CB05A091D0
:10401000CC05B091CD050196A11DB11D8093CA05B7
:104020009093CB05A093CC05B093CD05BF91AF91F4
:104030009F918F913F912F910F900FBE0F901F90E6
:1040400018953FB7F8948091CA059091CB05A0913F
:10405000CC05B091CD0526B5A89B05C02F3F19F022
:104060000196A11DB11D3FBF6627782F892F9A2F7A
:10407000620F711D811D911D42E0660F771F881F21
:10408000991F4A95D1F70895CF92DF92EF92FF9250
:10409000CF93DF936B017C010E942120EB01C114BF
:1040A000D104E104F10489F00E944D270E942120EF
:1040B0006C1B7D0B683E734090F381E0C81AD108F9
:1040C000E108F108C851DC4FEACFDF91CF91FF90B2
:1040D000EF90DF90CF900895019739F0880F991FE6
:1040E000880F991F02970197F1F70895789484B586
:1040F000826084BD84B5816084BD85B5826085BDE4
:1041000085B5816085BDEEE6F0E0808181608083C9
:10411000E1E8F0E0108280818260808380818160AC
:104120008083E0E8F0E0808181608083E1EBF0E073
:10413000808184608083E0EBF0E080818160808317
:10414000EAE7F0E080818460808380818260808300
:104150008081816080838081806880831092C1002B
:1041600008958E3008F08E50877020911D0190E4E4
:10417000299F90011124822B80937C0080917A00EA
:10418000806480937A0080917A0086FDFCCF8091D4
:1041900078002091790090E0922B08951F93CF939F
:1041A000DF93182FEB0161E00E945621209711F454
:1041B00060E004C0CF3FD10539F461E0812FDF9189
:1041C000CF911F910C948F21E12FF0E0E252FF4F2D
:1041D000E491E330F9F048F4E130B9F0E230A1F5D0
:1041E00084B5806284BDC8BD34C0E730E9F0E830F2
:1041F00019F1E43049F5809180008062809380005D
:10420000D0938B00C0938A0024C084B5806884BD9D
:10421000C7BD1FC080918000806880938000D093CC
:104220008900C093880015C08091B0008068809399
:10423000B000C093B3000DC08091B0008062809345
:10424000B000C093B40005C0C038D1050CF0B5CFA4
:10425000AFCFDF91CF911F910895833081F028F483
:10426000813099F08230A1F008958730A9F088302C
:10427000B9F08430D1F4809180008F7D03C08091AB
:1042800080008F7780938000089584B58F7702C077
:1042900084B58F7D84BD08958091B0008F7703C071
:1042A0008091B0008F7D8093B0000895CF93DF930D
:1042B00090E0FC01EE50FF4F2491FC01EA5FFE4FBD
:1042C0008491882349F190E0880F991FFC01EC5DEF
:1042D000FE4FA591B491865E9E4FFC01C591D4918D
:1042E0009FB7611108C0F8948C91209582238C931C
:1042F000888182230AC0623051F4F8948C91322F65
:10430000309583238C938881822B888304C0F89412
:104310008C91822B8C939FBFDF91CF9108950F9347
:104320001F93CF93DF931F92CDB7DEB7282F30E0D6
:10433000F901E252FF4F8491F901EE50FF4F1491C1
:10434000F901EA5FFE4F04910023C9F0882321F0B0
:1043500069830E942D216981E02FF0E0EE0FFF1F9D
:10436000E65EFE4FA591B4919FB7F8948C916111D0
:1043700003C01095812301C0812B8C939FBF0F90A8
:10438000DF91CF911F910F910895FC01818D228DB6
:1043900090E0805C9F4F821B91098F73992708954D
:1043A000FC01918D828D981731F0828DE80FF11DFF
:1043B000858D90E008958FEF9FEF0895FC01918D1A
:1043C000828D981761F0828DDF01A80FB11D5D9677
:1043D0008C91928D9F5F9F73928F90E008958FEFE5
:1043E0009FEF089582E693E2892B49F080E090E008
:1043F000892B29F00E94622381110C9400000895FA
:10440000FC01848DDF01A80FB11DA35ABF4F2C9171
:10441000848D90E001968F739927848FA689B78940
:104420002C93A089B1898C9180648C93938D848D19
:10443000981306C00288F389E02D80818F7D8083E8
:104440000895CF93DF93EC01888D8823C9F0EA8922
:10445000FB89808185FD05C0A889B9898C9186FD7D
:104460000FC00FB607FCF5CF808185FFF2CFA8897A
:10447000B9898C9185FFEDCFCE010E940022E7CF54
:10448000DF91CF910895CF92DF92FF920F931F9308
:10449000CF93DF931F92CDB7DEB76C01DC015B9643
:1044A0009C915B975C968C915C97981307C0509693
:1044B000ED91FC915197808185FD32C0F601038D0D
:1044C00010E00F5F1F4F0F731127F02EF601848D40
:1044D000F81211C00FB607FCF9CFD6015096ED9136
:1044E000FC915197808185FFF1CFC60169830E94BD
:1044F00000226981EBCF838DE80FF11DE35AFF4F56
:104500006083D6015B960C935B975296ED91FC917C
:10451000539780818062808381E058968C930DC090
:10452000D6015696ED91FC91579760835096ED9188
:10453000FC91519780818064808381E090E00F90AE
:10454000DF91CF911F910F91FF90DF90CF90089551
:10455000BF92CF92DF92EF92FF92CF93DF93EC0165
:104560006A017B01B22EE889F98982E080834115D6
:1045700081EE580761057105A1F060E079E08DE3F7
:1045800090E0A70196010E941D2B2150310941099D
:1045900051095695479537952795211580E138079C
:1045A00098F0E889F989108260E874E88EE190E07B
:1045B000A70196010E941D2B215031094109510983
:1045C0005695479537952795EC85FD853083EE8583
:1045D000FF852083188EEC89FD89B082EA89FB89EA
:1045E000808180618083EA89FB8980818860808303
:1045F000EA89FB89808180688083EA89FB898081E0
:104600008F7D8083DF91CF91FF90EF90DF90CF90EF
:10461000BF9008951F920F920FB60F9211242F93FF
:104620008F939F93EF93FF93E091DE05F091DF0569
:104630008081E091E405F091E50582FD12C0908152
:104640008091E7058F5F8F732091E805821751F005
:10465000E091E705F0E0E253FA4F958F8093E7058C
:1046600001C08081FF91EF919F918F912F910F90C9
:104670000FBE0F901F9018951F920F920FB60F92BA
:1046800011242F933F934F935F936F937F938F9357
:104690009F93AF93BF93EF93FF938EEC95E00E94AF
:1046A0000022FF91EF91BF91AF919F918F917F91E8
:1046B0006F915F914F913F912F910F900FBE0F908F
:1046C0001F9018958EEC95E00E94C52121E0892B62
:1046D00009F420E0822F08951092D1051092D005A0
:1046E00088EE93E0A0E0B0E08093D2059093D305EC
:1046F000A093D405B093D5058CEB93E09093CF05B0
:104700008093CE0585EC90E09093DB058093DA05ED
:1047100084EC90E09093DD058093DC0580EC90E0E4
:104720009093DF058093DE0581EC90E09093E105A6
:104730008093E00582EC90E09093E3058093E2059E
:1047400086EC90E09093E5058093E4051092E705F0
:104750001092E8051092E9051092EA05089508956F
:104760000E9476200E94AF230E94B80AC2EFD1E2D5
:104770000E94BA0A2097E1F30E94F221F9CFCF926A
:10478000DF92EF92FF920F931F93CF93DF936C0111
:104790007A01EB01E60EF71E00E010E0CE15DF0512
:1047A00061F06991D601ED91FC910190F081E02DCD
:1047B000C6010995080F191FF1CFC801DF91CF91EC
:1047C0001F910F91FF90EF90DF90CF9008956115AA
:1047D000710581F0DB010D900020E9F7AD0141503A
:1047E0005109461B570BDC01ED91FC910280F381CE
:1047F000E02D099480E090E008950C94E723DC011B
:10480000ED91FC910190F081E02D09940F931F939D
:10481000CF93DF93EC016DE00E94FF238C016AE0EF
:10482000CE010E94FF23800F911FDF91CF911F9136
:104830000F9108950F931F93CF93DF93EC010E9484
:10484000E7238C01CE010E940624800F911FDF9187
:10485000CF911F910F9108958F929F92AF92BF9227
:10486000CF92DF92EF92FF920F931F93CF93DF933C
:10487000CDB7DEB7A1970FB6F894DEBF0FBECDBFA0
:104880007C01C42EE52FCB01D22E19A221E02D15DB
:1048900010F02AE0D22E8E010F5D1F4F8D2C912C2F
:1048A000A12CB12C6C2D7E2FA50194010E941D2BF3
:1048B0008C2DD29E80191124015011098A3014F4D4
:1048C000805D01C0895CF8018083211531054105B7
:1048D000510521F0C22EE32FCA01E4CFB801C70170
:1048E0000E94E723A1960FB6F894DEBF0FBECDBF9E
:1048F000DF91CF911F910F91FF90EF90DF90CF90BC
:10490000BF90AF909F908F900895CF92DF92EF92DB
:10491000FF920F931F93CF93DF93EC016A017B010A
:104920002115310579F4E881F9810190F081E02DBC
:10493000642FDF91CF911F910F91FF90EF90DF9047
:10494000CF9009942A303105E9F477FF1AC06DE25F
:104950000E94FF238C0144275527BA014C195D0999
:104960006E097F092AE0CE010E942C24800F911F3E
:10497000DF91CF911F910F91FF90EF90DF90CF903B
:1049800008952AE0B701A601CE01DF91CF911F91D2
:104990000F91FF90EF90DF90CF900C942C249A0110
:1049A000AB01662757FD6095762F0C9485240F93F5
:1049B0001F93CF93DF93EC019A01AB01662757FD5C
:1049C0006095762F0E9485248C01CE010E940624DA
:1049D000800F911FDF91CF911F910F9108950F9339
:1049E0001F93CF93DF93EC010E9485248C01CE01AD
:1049F0000E940624800F911FDF91CF911F910F918C
:104A000008952115310541F4DC01ED91FC910190EF
:104A1000F081E02D642F09940C942C249A01462FE8
:104A200050E060E070E00C9401250F931F93CF934A
:104A3000DF93EC019A01462F50E060E070E00E94A5
:104A400001258C01CE010E940624800F911FDF9169
:104A5000CF911F910F9108954F925F926F927F9225
:104A60008F929F92AF92BF92CF92DF92EF92FF927E
:104A70000F931F93CF93DF93EC016A017B01B22E5A
:104A80009A01AB01C701B6010E94D12A882319F00F
:104A900068EC73E027C026013701E89477F82FEF20
:104AA0003FEF4FE75FE7C301B2010E94D12A8111B6
:104AB0000DC02FEF3FEF4FE75FE7C301B2010E9448
:104AC000282818161CF46CEC73E00CC02FEF3FEF95
:104AD0004FE75FE4C701B6010E94182A1816ACF42C
:104AE00060ED73E0CE01DF91CF911F910F91FF90A8
:104AF000EF90DF90CF90BF90AF909F908F907F907E
:104B00006F905F904F900C94E7232FEF3FEF4FE7AC
:104B10005FECC701B6010E94282887FDE1CF20E0A5
:104B200030E0A901C701B6010E94282887FF0AC00A
:104B30006DE2CE010E94FF238C01F7FAF094F7F8A2
:104B4000F09402C000E010E0A12C60E070E080E092
:104B50009FE3AB1441F020E030E040E251E40E94DA
:104B60002F28A394F6CF9B01AC01C701B6010E9488
:104B70004F276B017C010E949C282B013C010E9465
:104B8000C8289B01AC01C701B6010E944E276B01EA
:104B90007C012AE0B301A201CE010E942C24080F5F
:104BA000191FBB2039F064ED73E0CE010E94E723AA
:104BB000080F191F7B2C772041F120E030E040E204
:104BC00051E4C701B6010E94232A6B017C010E94B7
:104BD00097284B01AA2497FCA094BA2C2AE030E035
:104BE000B501A401CE010E948524080F191FC5013B
:104BF000B4010E94CA289B01AC01C701B6010E9402
:104C00004E276B017C017A94D6CFC801DF91CF91FA
:104C10001F910F91FF90EF90DF90CF90BF90AF90DA
:104C20009F908F907F906F905F904F9008950C941D
:104C30002C254F925F926F927F92AF92BF92CF924C
:104C4000DF92EF92FF920F931F93CF93DF93CDB735
:104C5000DEB729013A01621B730B840B950B29897E
:104C60003A894B895C892A193B094C095D09298BD2
:104C70003A8B4B8B5C8B9B01AC0169897A898B8960
:104C80009C890E94ED2AE418F50806091709A80175
:104C900097010E943F2B2A0D3B1D4C1D5D1DCA0133
:104CA000B901DF91CF911F910F91FF90EF90DF90AD
:104CB000CF90BF90AF907F906F905F904F9008958E
:104CC000FC01808191810C942A2CCF93DF93EC011D
:104CD00088819981009711F00E942A2C19821882EC
:104CE0001D821C821B821A82DF91CF9108950F933F
:104CF0001F93CF93DF93EC018B016F5F7F4F888110
:104D000099810E94B92C009731F0998388831B8385
:104D10000A8381E001C080E0DF91CF911F910F9164
:104D20000895CF93DF93EC0188819981892B29F035
:104D30008A819B818617970760F4CE010E947726AF
:104D4000882341F08C819D81892B19F4E881F981B8
:104D5000108281E0DF91CF910895EF92FF920F933F
:104D60001F93CF93DF93EC017B018A01BA010E946C
:104D70009126811104C0CE010E94652607C01D83C3
:104D80000C83B701888199810E940F2FCE01DF919A
:104D9000CF911F910F91FF90EF900895FC01118228
:104DA000108213821282158214826115710559F0E6
:104DB000FB0101900020E9F7AF0141505109461B6A
:104DC000570B0C94AD260895CF93DF93EC0161153A
:104DD000710561F0FB0101900020E9F7AF0141503E
:104DE0005109461B570B0E94AD2602C00E94652642
:104DF000CE01DF91CF910895EF92FF920F931F9311
:104E0000CF93DF93EC017B010C811D81611571054E
:104E100011F480E016C04115510591F0040F151FE3
:104E2000B8010E9491268823A1F3288139818C81C1
:104E30009D81B701820F931F0E940F2F1D830C834A
:104E400081E0DF91CF911F910F91FF90EF90089536
:104E5000CF93DF9300D0CDB7DEB769831A8241E0EC
:104E600050E0BE016F5F7F4F0E94FC260F900F90B5
:104E7000DF91CF910895FC018481958168177907AE
:104E800020F480819181009729F410926B068BE6C3
:104E900096E00895860F971F089508955058BB27F0
:104EA000AA270ED063C22CD230F031D220F031F4D8
:104EB0009F3F11F41EF4FCC10EF4E095E7FBC9C15D
:104EC000E92F76D280F3BA17620773078407950734
:104ED00018F071F49EF5A5C20EF4E0950B2EBA2FD2
:104EE000A02D0B01B90190010C01CA01A0011124F0
:104EF000FF27591B99F0593F50F4503E68F11A169C
:104F0000F040A22F232F342F4427585FF3CF46952C
:104F100037952795A795F0405395C9F77EF41F164E
:104F2000BA0B620B730B840BBAF09150A1F0FF0F18
:104F3000BB1F661F771F881FC2F70EC0BA0F621F04
:104F4000731F841F48F4879577956795B795F795F4
:104F50009E3F08F0B3CF9395880F08F09927EE0F86
:104F6000979587950895CCD158F080E891E009F4A1
:104F70009EEFCDD128F040E851E059F45EEF09C032
:104F800097C14FC2E92FE07813D268F3092E052AA2
:104F9000C1F3261737074807590738F00E2E07F8D0
:104FA000E02569F0E025E0640AC0EF6307F80094AB
:104FB00007FADB01B9019D01DC01CA01AD01EF93E4
:104FC0005DD0D4D10AD05F91552331F02BED3FE075
:104FD00049E450FD49EC63CF0895DF93DD27B92FF5
:104FE000BF7740E85FE31616170648075B0710F423
:104FF000D92F22D29F938F937F936F93CFD2E2E9E1
:10500000F0E059D1B3D12F913F914F915F9127D2C9
:10501000DD2349F09058A2EA2AED3FE049EC5FE336
:10502000D0785D274DDFDF91A1C1E4D180F09F37BB
:1050300040F491110EF4F6C160E070E080E89FE367
:10504000089526F01B16611D711D811D08C122C126
:10505000DCD008F481E0089562D1E39598C10CD0CA
:1050600085C155D140F04CD130F021F45F3F19F0AB
:10507000F0C05111D7C11CC19BD198F39923C9F33A
:105080005523B1F3951B550BBB27AA27621773074E
:10509000840738F09F5F5F4F220F331F441FAA1F02
:1050A000A9F333D00E2E3AF0E0E830D091505040C2
:1050B000E695001CCAF729D0FE2F27D0660F771F70
:1050C000881FBB1F261737074807AB07B0E809F052
:1050D000BB0B802DBF01FF2793585F4F2AF09E3FE7
:1050E000510568F0B6C09EC15F3FECF3983EDCF31B
:1050F000869577956795B795F7959F5FC9F7880F60
:10510000911D9695879597F90895E1E0660F771FB1
:10511000881FBB1F621773078407BA0720F0621B42
:10512000730B840BBA0BEE1F88F7E095089504D03B
:105130006894B11177C1089543D188F09F5790F0DA
:10514000B92F9927B751A0F0D1F0660F771F881FAC
:10515000991F1AF0BA95C9F712C0B13081F061D128
:10516000B1E008955EC1672F782F8827B85F39F0C6
:10517000B93FCCF3869577956795B395D9F73EF40B
:1051800090958095709561957F4F8F4F9F4F0895B3
:10519000E89409C097FB3EF49095809570956195D1
:1051A0007F4F8F4F9F4F9923A9F0F92F96E9BB2787
:1051B0009395F695879577956795B795F111F8CF03
:1051C000FAF4BB0F11F460FF1BC06F5F7F4F8F4F6E
:1051D0009F4F16C0882311F096E911C0772321F064
:1051E0009EE8872F762F05C0662371F096E8862FFC
:1051F00070E060E02AF09A95660F771F881FDAF753
:10520000880F9695879597F90895990F0008550F7F
:10521000AA0BE0E8FEEF16161706E807F907C0F03C
:1052200012161306E407F50798F0621B730B840B44
:10523000950B39F40A2661F0232B242B252B21F41E
:1052400008950A2609F4A140A6958FEF811D811DBE
:10525000089597F99F6780E870E060E008958823DB
:1052600071F4772321F09850872B762F07C066239F
:1052700011F499270DC09051862B70E060E02AF060
:105280009A95660F771F881FDAF7880F969587958E
:1052900097F908959F3F31F0915020F487957795C5
:1052A0006795B795880F911D9695879597F90895FD
:1052B0009FEF80EC0895DF93CF931F930F93FF929E
:1052C000EF92DF927B018C01689405C0DA2EEF012A
:1052D000C6D0FE01E894A59125913591459155914F
:1052E000AEF3EF01EDDDFE019701A801DA9479F745
:1052F000DF90EF90FF900F911F91CF91DF91089574
:1053000000240A94161617061806090608950024A4
:105310000A9412161306140605060895C9CF50D034
:10532000E8F3E894E0E0BB279F57F0F02AED3FE078
:1053300049EC06C0EE0FBB0F661F771F881F28F0D1
:10534000B23A62077307840728F0B25A620B730BF4
:10535000840BE3959A9572F7803830F49A95BB0FD9
:10536000661F771F881FD2F7904896CF092E0394A7
:10537000000C11F4882352F0BB0F40F4BF2B11F442
:1053800060FF04C06F5F7F4F8F4F9F4F0895EF9373
:10539000E0FF06C0A2EA2AED3FE049EC5FEB90DDBA
:1053A000E5DF0F90039401FC9058EFEBF0E004C1AF
:1053B00057FD9058440F551F59F05F3F71F04795C6
:1053C000880F97FB991F61F09F3F79F087950895AB
:1053D000121613061406551FF2CF4695F1DF08C0CA
:1053E000161617061806991FF1CF869571056105E7
:1053F00008940895E5DFA0F0BEE7B91788F4BB274D
:105400009F3860F41616B11D672F782F8827985F94
:10541000F7CF869577956795B11D93959639C8F323
:105420000895E894BB2766277727CB0197F908955D
:10543000ECDE08F48FEF08959B01AC0160E070E0B2
:1054400080E89FE30CCE0BD091CF5ADF28F05FDFCE
:1054500018F0952309F0FDCE2BCF1124E3CFA8DF60
:10546000A0F3959FD1F3950F50E0551F629FF00177
:10547000729FBB27F00DB11D639FAA27F00DB11DD0
:10548000AA1F649F6627B00DA11D661F829F222759
:10549000B00DA11D621F739FB00DA11D621F839FE0
:1054A000A00D611D221F749F3327A00D611D231FB6
:1054B000849F600D211D822F762F6A2F11249F5704
:1054C00050408AF0E1F088234AF0EE0FFF1FBB1F27
:1054D000661F771F881F91505040A9F79E3F5105C6
:1054E00070F0B7CE9FCF5F3FECF3983EDCF386952C
:1054F00077956795B795F795E7959F5FC1F7FE2B71
:10550000880F911D9695879597F908959F9307DFCA
:105510000F9007FCEE5F3BCF11F40EF4C9CEBACE6C
:105520004FDFD0F39923D9F3CEF39F57550B87FF65
:105530003CD00024A0E640EA90018058569597950B
:1055400028F4805C660F771F881F20F02617370726
:10555000480730F4621B730B840B202931294A2B36
:10556000A69517940794202531254A2758F7660FEA
:10557000771F881F20F026173707480730F4620B83
:10558000730B840B200D311D411DA09581F7B901CE
:10559000842F9158880F9695879508959B01AC01AB
:1055A00052CF33DE880B990B089591505040660F0F
:1055B000771F881FD2F708959F938F937F936F93E0
:1055C000FF93EF939B01AC013EDFEF91FF9173DE00
:1055D0002F913F914F915F9136CFDB018F939F9336
:1055E0000E94642BBF91AF91A29F800D911DA39F3C
:1055F000900DB29F900D11240895991B79E004C07D
:10560000991F961708F0961B881F7A95C9F7809501
:10561000089597FB072E16F4009407D077FD09D064
:105620000E946F2B07FC05D03EF4909581959F4F0B
:105630000895709561957F4F0895A1E21A2EAA1BD7
:10564000BB1BFD010DC0AA1FBB1FEE1FFF1FA21732
:10565000B307E407F50720F0A21BB30BE40BF50B2F
:10566000661F771F881F991F1A9469F760957095B8
:10567000809590959B01AC01BD01CF010895052E49
:1056800097FB1EF400940E94562B57FD07D00E94F2
:105690001D2B07FC03D04EF40C94562B50954095CF
:1056A000309521953F4F4F4F5F4F089590958095CE
:1056B000709561957F4F8F4F9F4F0895EE0FFF1F9D
:1056C0000590F491E02D09940E94832BA59F900DE5
:1056D000B49F900DA49F800D911D11240895AA1BC5
:1056E000BB1B51E107C0AA1FBB1FA617B70710F0CD
:1056F000A61BB70B881F991F5A95A9F780959095FF
:10570000BC01CD010895A29FB001B39FC001A39F2A
:10571000700D811D1124911DB29F700D811D1124EA
:10572000911D0895CF93DF938230910510F482E0AC
:1057300090E0E0916E06F0916F0620E030E0A0E08E
:10574000B0E0309739F14081518148175907B8F0DE
:105750004817590771F482819381109729F01396A5
:105760009C938E9312972CC090936F0680936E0635
:1057700027C02115310531F04217530718F0A90150
:10578000DB0101C0EF019A01BD01DF010280F3815D
:10579000E02DD7CF21153105F9F0281B390B243026
:1057A000310580F48A819B816115710521F0FB012F
:1057B0009383828304C090936F0680936E06FE01EC
:1057C000329644C0FE01E20FF31F81939193225061
:1057D0003109398328833AC020916C0630916D06D7
:1057E000232B41F4209102013091030130936D0687
:1057F00020936C06209100013091010121153105A3
:1058000041F42DB73EB74091040150910501241B8E
:10581000350BE0916C06F0916D06E217F307A0F4EA
:105820002E1B3F0B2817390778F0AC014E5F5F4FF6
:105830002417350748F04E0F5F1F50936D064093B5
:105840006C068193919302C0E0E0F0E0CF01DF911C
:10585000CF910895CF93DF93009709F487C0FC019F
:10586000329713821282C0916E06D0916F062097F4
:1058700081F420813181280F391F80916C0690912D
:105880006D068217930779F5F0936D06E0936C0629
:105890006DC0DE0120E030E0AE17BF0750F4129675
:1058A0004D915C9113979D014115510509F1DA0164
:1058B000F3CFB383A28340815181840F951F8A1750
:1058C0009B0771F48D919C911197840F951F0296FF
:1058D0009183808312968D919C91139793838283F9
:1058E0002115310529F4F0936F06E0936E063EC052
:1058F000D9011396FC93EE9312974D915D91A40FED
:10590000B51FEA17FB0779F480819181840F951FF9
:105910000296D90111969C938E938281938113965E
:105920009C938E931297E0E0F0E08A819B81009730
:1059300019F0FE01EC01F9CFCE01029628813981E0
:10594000820F931F20916C0630916D06281739073E
:1059500069F4309729F410926F0610926E0602C017
:1059600013821282D0936D06C0936C06DF91CF91A3
:105970000895A0E0B0E0EFEBFCE20C94332FEC01D3
:10598000CB01209719F40E94922BB8C0FE01E60FBC
:10599000F71F9E0122503109E217F30708F4ACC04B
:1059A000D9010D911C91119706171707B8F0053012
:1059B000110508F49FC0A801445051094617570724
:1059C00008F498C002501109061B170B019311939C
:1059D0006D937C93CF010E942A2C8CC05B01A01A8E
:1059E000B10A4E01800E911EA0916E06B0916F0615
:1059F000612C712C60E070E0109709F449C0A81583
:105A0000B905C9F5ED90FC901197670142E0C40E0D
:105A1000D11CCA14DB0478F147018A189B08640181
:105A200042E0C40ED11C1296BC9012971396AC9112
:105A3000B5E0CB16D10440F0B282A383918280827C
:105A4000D9018D939C9309C00E5F1F4F0E0D1F1D32
:105A5000F90111830083EB2DFA2F6115710531F0E7
:105A6000DB011396FC93EE93129744C0F0936F06FC
:105A7000E0936E063FC06D917C9111976616770694
:105A800008F43B01BD0112960D90BC91A02DB4CF3E
:105A900060916C0670916D0668157905E9F46816D9
:105AA0007906D0F440910001509101014115510552
:105AB00041F44DB75EB76091040170910501461B3A
:105AC000570BE417F507C0F4F0936D06E0936C06EE
:105AD000F901918380830EC00E94922B7C01009774
