:100000000C94A9000C94D1000C94D1000C94D10054
:100010000C94D1000C94D1000C94D1000C94D1001C
:100020000C94D1000C94D1000C94D1000C94D1000C
:100030000C94D1000C94D1000C94D1000C94D100FC
:100040000C94C6200C94D1000C94C2220C94102362
:100050000C94D1000C94D1000C94D1000C94D100DC
:100060000C94D1000C94D100084AD73B3BCE016ED2
:1000700084BCBFFDC12F3D6C74319ABD56833DDAFF
:100080003D00C77F11BED9E4BB4C3E916BAAAABE0E
:10009000000000803F05A84CCDB2D44EB93836A937
:1000A000020C50B9918688083CA6AAAA2ABE000074
:1000B00000803F00000000240027002A000000000C
:1000C00000250028002B0000000000230026002946
:1000D00000040404040404040402020202020203F1
:1000E00003030303030102040810204080010204FB
:1000F000081020010204081020000000070002017F
:1001000000000304060000000000000000494E4605
:10011000494E4954594E414ECDCCCC3D0AD7233C93
:1001200017B7D13877CC2B329595E6241FB14F0AFB
:10013000000020410000C84200401C4620BCBE4CCC
:10014000CA1B0E5AAEC59D749002EA0CF41A7C24A8
:10015000ED1A11241FBECFEFD8E0DEBFCDBF13E0F4
:10016000A0E0B1E0E2EAFEE502C005900D92AA3DF2
:10017000B107D9F716E0AAEDB3E001C01D92AA3588
:10018000B107E1F711E0C0E5D1E004C02297FE011C
:100190000E94FE2EC834D107C9F70E94D2240C94C5
:1001A000442F0C940000A0E0B0E0E9EDF0E00C94E6
:1001B000132FEC015B016115710519F0FB019183AF
:1001C0008083F9908F2D90E00E94022F892BC9F730
:1001D000FDE2FF1621F4F990EE24E39405C02BE232
:1001E000F21609F4F990EE248E0101501040C80176
:1001F0006DE071E043E050E00E943302892B01F58D
:100200008E010E5F1F4FC80160E171E045E050E0D4
:100210000E943302892B19F48E01095F1F4FA1142C
:10022000B10419F0F50111830083E0FC04C070E013
:1002300090E080E814C070E090E080E86FEF08C1C3
:10024000C80165E171E043E050E00E943302892B70
:1002500069F4A114B10429F470E090E080EC6FE738
:10026000F7C02296F501D183C083F6CF8824992464
:1002700040E050E060E070E0EF2DE053EA30A0F5A0
:10028000F2E0EF2A8E2D90E09C0128703070E2FEA3
:1002900006C0232B79F50894811C911C2BC0232BBD
:1002A00019F0089481089108DB01CA0112E0880F57
:1002B000991FAA1FBB1F1A95D1F7480F591F6A1F14
:1002C0007B1F440F551F661F771F4E0F511D611D69
:1002D000711D483929E9520729E9620729E17207A6
:1002E00048F084E0E82A06C0EE3F31F4E3FC39C070
:1002F00098E0E92AF990C0CFE53311F0E53189F5AE
:1003000029912D3219F4E0E1EE2A05C02B3219F0C3
:1003100081E090E003C0299182E090E0E22FE05379
:10032000EA3018F0C81BD90B1CC020E030E0FCE01C
:1003300020383F075CF4C901880F991F880F991F67
:10034000280F391F220F331F2E0F311DE991E05363
:10035000EA3068F3E4FE03C0309521953F4F820EEA
:10036000931ECE2CDD24E1FE07C0A114B10421F0C0
:100370002197F501D183C083CB01BA010E943D2CA6
:100380007B018C01F3E0CF22DD2423E0C216D104EF
:1003900021F417FB109517F9109557016801C80152
:1003A000B70120E030E040E050E00E949D2B882320
:1003B00009F44AC097FE0DC02CE2E22E21E0F22E95
:1003C0009094819491089394C0E2D0E000E010E012
:1003D00012C094E4E92E91E0F92EF6CFF7012591B1
:1003E000359145915491C601B5010E94A32D5B0141
:1003F0006C018C1A9D0A8C169D0684F7D595C795BD
:100400000F5F1F4F0630110529F08CEF9FEFE80EAC
:10041000F91EF1CFC501D6017C018D018C2D880F0D
:100420008D2D881F8F3F51F0C601B50120E030E0CF
:1004300040E050E00E949D2B882331F482E290E05E
:1004400090935906809358067E2D9F2D802F612F03
:10045000272F392F482F562FB901CA01CDB7DEB744
:10046000ECE00C942F2FFB01DC014150504088F050
:100470008D9181341CF08B350CF4805E6591613474
:100480001CF06B350CF4605E861B611171F3990BE7
:100490000895881BFCCFFB01DC0102C001900D9286
:1004A00041505040D8F70895FB01DC0101900D92B6
:1004B0000020E1F708950E94A32D0E940C2C9B01BF
:1004C000AC01CA0108950895089508950895089506
:1004D0000895883549F44093360450933704609367
:1004E0003804709339040895893549F440933A04E7
:1004F00050933B0460933C0470933D0408958A3507
:1005000041F440933E0450933F0460934004709341
:100510004104089590934F0480934E0408950895E4
:10052000EF92FF920F931F9380E594E064E170E0F7
:1005300042E050E023E030E004E010E0F5E0EF2E90
:10054000F12C0E948B208AE694E064E170E046E0A2
:1005500050E027E030E008E010E0E9E0EE2EF12C7A
:100560000E948B201F910F91FF90EF9008958E5F56
:100570009F4F09F00EC181E396E060E071E00E94B8
:100580007026609110047091110481E396E04AE0B6
:1005900050E00E943E2681E396E062E071E00E9416
:1005A0007026609112047091130481E396E04AE092
:1005B00050E00E943E2681E396E062E071E00E94F6
:1005C0007026609116047091170481E396E04AE06A
:1005D00050E00E943E2681E396E062E071E00E94D6
:1005E0007026609118047091190481E396E04AE046
:1005F00050E00E943E2681E396E062E071E00E94B6
:100600007026609122047091230481E396E04AE011
:1006100050E00E943E2681E396E062E071E00E9495
:100620007026609124047091250481E396E04AE0ED
:1006300050E00E943E2681E396E062E071E00E9475
:10064000702660911C0470911D0481E396E04AE0DD
:1006500050E00E943E2681E396E062E071E00E9455
:10066000702660911E0470911F0481E396E04AE0B9
:1006700050E00E943E2681E396E062E071E00E9435
:10068000702660912E0470912F0481E396E04AE079
:1006900050E00E943E2681E396E062E071E00E9415
:1006A0007026609130047091310481E396E04AE055
:1006B00050E00E943E2681E396E062E071E00E94F5
:1006C0007026609132047091330481E396E04AE031
:1006D00050E00E943E2681E396E062E071E00E94D5
:1006E0007026609134047091350481E396E04AE00D
:1006F00050E00E943E2681E396E062E071E00E94B5
:1007000070264091360450913704609138047091FE
:10071000390481E396E022E030E00E94572781E32C
:1007200096E062E071E00E94702640913A04509198
:100730003B0460913C0470913D0481E396E022E02B
:1007400030E00E94572781E396E062E071E00E946A
:10075000702660914E0470914F0481E396E04AE068
:1007600050E00E943E2681E396E062E071E00E9444
:10077000702660910E0470910F0481E396E04AE0C8
:1007800050E00E943E2681E396E064E071E00E9422
:1007900070260895CF93DF938E5F9F4F59F5C0E089
:1007A000D0E089E095E0BE010E94690BFE01E052B5
:1007B000FC4F80832196C430D10599F78091E003E6
:1007C0009091E103A091E203B091E30388559F4427
:1007D000A244B24479F4C0E0D0E089E095E0BE01E3
:1007E0000E94690BFE01E052FC4F80832196C037C6
:1007F000D10599F7DF91CF910895CF93DF932FEF34
:100800008E3F9207B1F02FEF8F3F920709F445C05A
:100810008D5F9F4F09F050C0C0E0D0E089E095E0C7
:10082000BE0140E00E94700B2196C037D105B1F7A0
:1008300043C088E59FE4A2E4B2E48093E003909390
:10084000E103A093E203B093E303C0E0D0E0FE0134
:10085000E052FC4F89E095E0BE0140810E94700BA0
:100860002196C037D10599F74091E0035091E103FB
:100870006091E2037091E30381E396E02AE030E0C7
:100880000E942A2681E396E048E55FE462E472E490
:100890002AE030E00E942A260FC0C4E0D0E0FE012A
:1008A000E052FC4F89E095E0BE0140810E94700B50
:1008B0002196CE32D10599F7DF91CF9108958AE440
:1008C00091E062E170E00E9406118CE591E063E145
:1008D00070E00E9406118FE691E063E170E00E94F3
:1008E000061182E891E062E170E00E94061108952D
:1008F00084E991E063E070E00E94061188E991E0EC
:1009000063E070E00E9406118AE091E063E070E02D
:100910000E94061108954F925F926F927F928F927C
:100920009F92AF92BF92CF92DF92EF92FF920F937E
:100930001F93CF93DF933A019C0143E0880F991FE7
:100940004A95E1F7220F331F820F931F2C01CB0131
:100950007B0113E0EE0CFF1C1A95E1F7880F991F3D
:10096000E80EF91E00E010E04301AA2497FCA094D1
:10097000BA2CACEBCA2EA2E0DA2ECE18DF0849C0A2
:100980008CE991E06DE070E00E940611CE15DF0564
:100990004CF0CC16DD0634F00E151F051CF0C01609
:1009A000D10604F5C801B2010E94982E892B51F09E
:1009B000CE01B2010E94982E892B21F082E0CB3B20
:1009C000D80781F48AEA91E068E070E00E9406119D
:1009D000C501B4010E940E2186E091E063E070E061
:1009E0000E940611219682E0CC3BD80749F68DE2A1
:1009F00091E06DE070E00E9406118BE391E06EE003
:100A000070E00E9406110F5F1F4F82E00C3B180739
:100A100019F0C0E0D0E0B4CFC0E0D0E0730100270F
:100A2000F7FC0095102F8CE991E06DE070E00E94DA
:100A300006118AEA91E068E070E00E940611C801A0
:100A4000B7010E940E2186E091E063E070E00E9411
:100A50000611219682E0CC3BD80729F7DF91CF9190
:100A60001F910F91FF90EF90DF90CF90BF90AF90CC
:100A70009F908F907F906F905F904F900895CF934D
:100A8000DF93C0EBD3E004C0899160E00E946D2247
:100A900083E0C83BD807C1F7DF91CF910895BC012F
:100AA00020910E0430910F042115310521F02130E1
:100AB0003105B9F40AC0009719F480912E0409C0D9
:100AC00080912E040E94CE210895009731F48091E8
:100AD000300460E00E946D220895809130040E94ED
:100AE000CE210895BC0120910E0430910F042115F0
:100AF000310521F021303105E9F40DC08F3F91051A
:100B000011F0009719F480912E040CC080912E04EE
:100B10000E94CE2108958F3F910511F0009731F486
:100B20008091300461E00E946D220895809130042C
:100B30000E94CE210895DF93CF93CDB7DEB72A97D9
:100B40000FB6F894DEBF0FBECDBF282F19821A82D0
:100B50001B821C82FE01359686E0DF011D928A957C
:100B6000E9F790E024C0E60FF71F80819F5F8217AE
:100B7000F1F4DE0111969E01255F3F4F09C0E60F9B
:100B8000F71F8081882361F0803251F08D939F5F41
:100B9000E92FF0E0E417F5071CF4A217B30779F783
:100BA000CE01019660E070E00E94D30009C0E92FF9
:100BB000F0E0E417F507BCF260E070E080E090E060
:100BC0002A960FB6F894DEBF0FBECDBFCF91DF914E
:100BD0000895AF92BF92CF92DF92EF92FF920F9360
:100BE0001F93CF93DF935C01EB018A0180E50E94A4
:100BF0009B050E940C2C6B01161617061CF0E2E3F5
:100C0000CE2ED12C84E4BE01A8010E949B050E9437
:100C10000C2C7B01161617061CF073E0E72EF12C46
:100C20008DE4BE01A8010E949B050E940C2CEB01E3
:100C30001616170614F0C5E0D0E00E94780481E093
:100C4000A816B10431F082E0A816B10409F046C03C
:100C500020C0C701BE01A6010E948B048BE192E077
:100C600061E170E00E9406110E945F048DE292E053
:100C700065E170E00E94061184E492E063E070E0B8
:100C80000E94061188E492E061E170E00E94061182
:100C900025C087E592E060E170E00E94061188E6D9
:100CA00092E061E170E00E9406118AE792E061E162
:100CB00070E00E9406118CE892E060E170E00E9412
:100CC00006118DE992E065E170E00E94061183EB68
:100CD00092E065E170E00E940611DBCFDF91CF91D9
:100CE0001F910F91FF90EF90DF90CF90BF90AF904A
:100CF00008951F9312E0812F61E00E942E22812F20
:100D000060E00E946D221F5F1E30A9F78EE060E058
:100D10000E942E228FE060E00E942E2280E160E09F
:100D20000E942E2281E160E00E942E2282E160E09A
:100D30000E942E2283E160E00E942E2284E160E086
:100D40000E942E2285E160E00E942E221F910895CC
:100D50008091320461E00E942E228091340461E08F
:100D60000E942E228091320460E00E946D228091C8
:100D7000340460E00E946D220895CF93DF93EC016C
:100D800080910E0490910F040297029730F0CE01EB
:100D90000297029710F40E94A806D0930F04C09304
:100DA0000E04DF91CF91089580912E0461E00E949E
:100DB0002E228091300461E00E942E2280912E0428
:100DC00060E00E946D228091300460E00E946D22FC
:100DD0000895CF93DF93C0EBD3E004C0899161E025
:100DE0000E942E2283E0C83BD807C1F7DF91CF9144
:100DF00008951092E0031092E1031092E203109222
:100E0000E30310920F0410920E048FE690E090938B
:100E10001104809310048EED90E09093130480935E
:100E200012048DE491E090931504809314048FEFE5
:100E30009FEF909317048093160490931904809366
:100E4000180490931B0480931A0490931D048093BC
:100E50001C0490931F0480931E049093210480939C
:100E6000200490932304809322049093250480937C
:100E7000240490932704809326049093290480935C
:100E8000280490932B0480932A0490932D0480933C
:100E90002C048AE090E090932F0480932E048BE042
:100EA00090E090933104809330048CE090E0909334
:100EB0003304809332048DE090E090933504809366
:100EC000340480E090E0A0E2B1E480933604909393
:100ED0003704A0933804B093390480933A04909374
:100EE0003B04A0933C04B0933D0480933E04909354
:100EF0003F04A0934004B093410480E090E0AEE74B
:100F0000B3E48093420490934304A0934404B093C9
:100F100045048093460490934704A0934804B093FB
:100F2000490480934A0490934B04A0934C04B093DB
:100F30004D048CED95E090934F0480934E048EEF1A
:100F40009FEF0E94CA030E9479060E94D4060E9465
:100F5000A8060E94E9060E943F050895282F30E068
:100F600080911004909111042817390749F460E02A
:100F700070E0442311F461E070E080E594E00FC07C
:100F800080911204909113042817390751F460E0FE
:100F900070E0442311F461E070E08AE694E00E947E
:100FA000612085E090E00E946721089597FF02C0CC
:100FB00020E006C00E94AC2120E0892B09F421E04A
:100FC000822F0895CF92EF92FF920F931F93CF93AA
:100FD000DF93EB01E216F3060407150759F00E94B0
:100FE000D607882381F0CC2071F404C080E0CC20A7
:100FF00011F40EC080E0DF91CF911F910F91FF900F
:10100000EF90CF900895CE010E94D607882371F704
:1010100081E0F1CF2F923F924F925F926F927F9239
:101020008F929F92AF92BF92CF92DF92EF92FF92F8
:101030000F931F93DF93CF93CDB7DEB760970FB6B3
:10104000F894DEBF0FBECDBF988B8F877A876987F4
:101050001A010B871C872D873E87DA012D913D9160
:101060004D915C91139714966D917D918D919C910A
:101070001797621773078407950714F4CA01B9011B
:101080006093DA037093DB038093DC039093DD03BA
:10109000F1012085318542855385621773078407E6
:1010A000950714F4CA01B9016093DA037093DB0366
:1010B0008093DC039093DD0322E030E040E050E0D9
:1010C0000E94CD2E882499245401821A930AA40ADE
:1010D000B50A1A82A985BA852D913D914D915C91F1
:1010E000EF85F88980819181A281B3812817390722
:1010F0004A075B0714F0F1E0FA831982A985BA85E3
:1011000014962D913D914D915C911797EF85F8893B
:1011100084819581A681B781281739074A075B0723
:1011200014F0F1E0F983DD24A985BA8518962D9194
:101130003D914D915C911B97EF85F8898085918554
:10114000A285B385281739074A075B0714F0DD2409
:10115000D3942B853C854D855E852F3F8FE33807E3
:1011600080E0480780E058076CF0CA01B90128EE1A
:1011700033E040E050E00E94CD2E3093DF03209317
:10118000DE0304C01092DF031092DE038D829E8284
:10119000AF82B8862401350160911C0470911D0452
:1011A000AF85B8892D913D914D915C91E985FA8586
:1011B000E080F180028113818091220490912304C8
:1011C000CA800E94E2078C8360911E0470911F0404
:1011D000AF85B88914962D913D914D915C911797EB
:1011E000E985FA85E480F5800681178180912404E1
:1011F00090912504C9800E94E2078B8360912004AE
:1012000070912104AF85B88918962D913D914D912B
:101210005C911B97E985FA85E084F184028513854A
:101220008091260490912704CD2C0E94E207182F6C
:10123000FC81FF23B9F1F10180819181A281B38109
:10124000880E991EAA1EBB1E181419041A041B042A
:101250004CF580911004609116044A810E94AE07FB
:101260008091DA039091DB03A091DC03B091DD0360
:10127000881A990AAA0ABB0AEF85F88980819181A8
:10128000A281B381FA81FF2321F00196A11DB11D36
:1012900003C00197A109B109EF85F8898083918383
:1012A000A283B383FB81FF2309F447C0F10184814A
:1012B0009581A681B7812D813E814F815885280F68
:1012C000391F4A1F5B1F2D833E834F835887121699
:1012D0001306140615068CF580911204609118040B
:1012E00049810E94AE078091DA039091DB03A091BF
:1012F000DC03B091DD032D813E814F815885281B91
:10130000390B4A0B5B0B2D833E834F835887EF8548
:10131000F88984819581A681B781F981FF2321F025
:101320000196A11DB11D03C00197A109B109EF8567
:10133000F88984839583A683B7831123B1F1F101E2
:1013400080859185A285B385480E591E6A1E7B1E35
:10135000141415041604170444F5809114046091C4
:101360001A044D2D0E94AE078091DA039091DB03A1
:10137000A091DC03B091DD03481A590A6A0A7B0A7E
:10138000EF85F88980859185A285B385DD2021F0E0
:101390000196A11DB11D05C00197A109B109EF85F5
:1013A000F88980879187A287B3872091DE033091E7
:1013B000DF031216130644F4B901882777FD8095E0
:1013C000982F0E940E2104C08B859C850E94672166
:1013D000FC81FF2309F0E0CE2B81222309F0DCCE33
:1013E000112309F0D9CE60960FB6F894DEBF0FBE78
:1013F000CDBFCF91DF911F910F91FF90EF90DF90C4
:10140000CF90BF90AF909F908F907F906F905F90A4
:101410004F903F902F9008959F92AF92BF92CF929E
:10142000DF92EF92FF920F931F93982E00D000D07F
:10143000882777FD8095982F20EB39E040E050E039
:10144000EDB7FEB7218332834383548320E030E03D
:1014500040E050E0B4EBEB2EF12C012D112DA4EF68
:10146000AA2EA1E0BA2EC12CD12C0E946D276B01AF
:101470007C010F900F900F900F90892D60E00E94DB
:101480006D2200EB19E00C191D09000F111FC80196
:101490000E946721892D61E00E946D22C6010E9491
:1014A0006721892D60E00E946D22C8010E9467219A
:1014B0001F910F91FF90EF90DF90CF90BF90AF9072
:1014C0009F900895BC0180910E0490910F0482308A
:1014D000910519F0039771F407C08091320490913F
:1014E00033040E940C0A08958091340490913504CD
:1014F0000E940C0A089520910E0430910F0437FDCC
:101500000BC02230310534F0243031052CF40E9418
:10151000620A08950E944F05089520910E043091AB
:101520000F0437FD0BC02230310534F02430310573
:101530002CF40E94620A08950E94720508950F9388
:101540001F930E94210B0E94F10A8A3059F40E94D5
:10155000190B8C010E941C0BBC01C8010E940611D2
:101560000E94090B0E94F10A8B3359F40E94190B57
:101570008C010E941C0BBC01C8010E949A1C0E9495
:10158000090B0E94FC0A892B11F00E943F050E9462
:101590008F021F910F9108950F931F930E94510B7B
:1015A0000E94F9060E94DC0F0E94BD1A01E316E0BA
:1015B000C8016EE173E00E945A27C80161E473E03C
:1015C0000E945A2787E493E063E070E00E940611CE
:1015D0001F910F9108950E949F0A08950E94CC0ABE
:1015E00008958091050590910605892B11F480E0FE
:1015F000089580918404089520E030E080910705EB
:10160000909108058151974214F021E030E0C90122
:10161000089580E0E82FF0E0EB57FB4F10828F5FDA
:101620008038C1F7109206051092050510928404C7
:10163000089585E894E00895809105059091060548
:10164000089581E396E00E94D22318161906DCF46F
:1016500081E396E00E940324282F80938404109253
:101660000805109207058A30D9F080910505909100
:101670000605FC01EB57FB4F20830196909306056E
:1016800080930505089580910705909108050196BE
:10169000909308058093070585E090E00E946721FC
:1016A000089581E396E040E855E260E070E00E9432
:1016B0004B2380E0E82FF0E0EB57FB4F10828F5F69
:1016C0008038C1F710920605109205051092840427
:1016D0000895F999FECF72BD61BDF89A80B508955D
:1016E000F999FECF1FBA72BD61BD40BD0FB6F89427
:1016F000FA9AF99A0FBE08952F923F924F925F92F5
:101700006F927F928F929F92AF92BF92CF92DF9211
:10171000EF92FF920F931F93DF93CF93CDB7DEB776
:101720006C970FB6F894DEBF0FBECDBF6C01498732
:101730005A876B877C871901DC011896ED90FD9024
:101740000D911C911B978D919D910D90BC91A02D99
:101750008D839E83AF83B887C801B7012D813E81F9
:101760004F8158850E94C32A20E030E040E450E4D5
:101770000E94A32D6D877E878F87988BF6016089E5
:10178000718982899389A80197010E94C32A20E068
:1017900030E040E450E40E94A32D2D853E854F8526
:1017A00058890E94C32A698B7A8B8B8B9C8B28E08B
:1017B00030E0C20ED31ED6011496ED90FD900D912F
:1017C0001C911797E8EFFFEFCE0EDF1ED60114969F
:1017D0008D919D910D90BC91A02D89839A83AB83AF
:1017E000BC83C801B70129813A814B815C810E9489
:1017F000C32A20E030E040E450E40E94A32D4B01D6
:101800005C01E0E1F0E0CE0EDF1ED60114966D9192
:101810007D918D919C911797A80197010E94C32AF1
:1018200020E030E040E450E40E94A32DA5019401A3
:101830000E94C32A6D8B7E8B8F8B988F69857A85EA
:101840008B859C859B01AC010E94A32D2B013C0143
:1018500029853A854B855C850E94A32D698F7A8FF7
:101860008B8F9C8FE8E0F0E0CE0EDF1ED601149641
:101870006D917D918D919C911797E8EEFFEFCE0EC3
:10188000DF1E29813A814B815C810E94C32AA50118
:1018900094010E94C32A2D893E894F89588D0E9448
:1018A000C32A298D3A8D4B8D5C8D0E94A32D7B011F
:1018B0008C016D897E898F89988DA30192010E9488
:1018C000A32D9B01AC01C801B7010E94C42A7B0172
:1018D0008C01C501B40129853A854B855C850E9440
:1018E000A32D9B01AC01C801B7010E94C42A298124
:1018F0003A814B815C810E94C42A4B015C01D60174
:1019000058966D917D918D919C915B972D813E8133
:101910004F8158850E94C32A2D853E854F85588961
:101920000E94C32A29893A894B895C890E94C32A6B
:10193000298D3A8D4B8D5C8D0E94A32D7B018C01EE
:1019400069897A898B899C89A30192010E94A32DC0
:101950009B01AC01C801B7010E94C42A7B018C0124
:101960006D857E858F85988929853A854B855C852F
:101970000E94A32D9B01AC01C801B7010E94C42A9B
:101980002D813E814F8158850E94C42AF1016083D8
:10199000718382839383C401D50184839583A68355
:1019A000B7836C960FB6F894DEBF0FBECDBFCF9154
:1019B000DF911F910F91FF90EF90DF90CF90BF903C
:1019C000AF909F908F907F906F905F904F903F90DF
:1019D0002F9008958091360490913704A091380497
:1019E000B091390480930A0590930B05A0930C05E0
:1019F000B0930D0580913A0490913B04A0913C0472
:101A0000B0913D0480930E0590930F05A0931005AF
:101A1000B093110580913E0490913F04A091400441
:101A2000B09141048093120590931305A09314057F
:101A3000B093150508952F923F924F925F926F9247
:101A40007F928F929F92AF92BF92CF92DF92EF924E
:101A5000FF920F931F93DF93CF9300D000D0CDB7A9
:101A6000DEB769837A838B839C83E0902E05F090A8
:101A70002F0500913005109131056090320570906E
:101A800033058090340590903505209036053090D0
:101A90003705409038055090390520915205309116
:101AA00053054091540550915505809156059091EC
:101AB0005705A0915805B091590582179307A407BF
:101AC000B50784F4A0905A05B0905B05C0905C0502
:101AD000D0905D05A216B306C406D50694F459014C
:101AE0006A010FC0A0905A05B0905B05C0905C05DC
:101AF000D0905D05A816B906CA06DB0614F45C0191
:101B00006D01C801B701A80197010E94A32D7B01B7
:101B10008C01C401B301A40193010E94A32D9B0178
:101B2000AC01C801B7010E94C42A7B018C01C2012B
:101B3000B101A20191010E94A32D9B01AC01C8013A
:101B4000B7010E94C42A0E94102E20EC31EE44E618
:101B50005CE40E94A32D29813A814B815C810E9423
:101B6000A42B7B018C01C601B5010E943F2C9B0177
:101B7000AC01C801B7010E94A42B0E940C2C9B0150
:101B8000AC01CA010F900F900F900F90CF91DF9191
:101B90001F910F91FF90EF90DF90CF90BF90AF908B
:101BA0009F908F907F906F905F904F903F902F907D
:101BB000089580915A0590915B05A0915C05B091C4
:101BC0005D05181619061A061B063CF460E070E85D
:101BD0008BEB94E40E941B0D089560914E0470916C
:101BE0004F04882777FD8095982F0E943F2C0E94F4
:101BF0001B0D0895AF92BF92CF92DF92EF92FF92AA
:101C00000F931F93A0902205B0902305C090240548
:101C1000D0902505C601B501209116053091170514
:101C200040911805509119050E94C32A7B018C012F
:101C300020E030E040E050E00E94982D181624F09B
:101C400017FB109517F91095E0922E05F0922F05CD
:101C5000009330051093310560912605709127059A
:101C6000809128059091290520911A0530911B0536
:101C700040911C0550911D050E94C32A7B018C01D7
:101C800020E030E040E050E00E94982D181624F04B
:101C900017FB109517F91095E0923205F092330575
:101CA000009334051093350560912A0570912B053A
:101CB00080912C0590912D0520911E0530911F05D6
:101CC00040912005509121050E94C32A7B018C017F
:101CD00020E030E040E050E00E94982D181624F0FB
:101CE00017FB109517F91095E0923605F09237051D
:101CF000009338051093390560910A0570910B0522
:101D000080910C0590910D05A60195010E945B0242
:101D10006093460570934705809348059093490565
:101D200060910E0570910F0580911005909111053D
:101D300020912605309127054091280550912905CD
:101D40000E945B0260934A0570934B0580934C059B
:101D500090934D05609112057091130580911405C3
:101D60009091150520912A0530912B0540912C0565
:101D700050912D050E945B027B018C0160934E0502
:101D800070934F058093500590935105209146051F
:101D900030914705409148055091490580913A0599
:101DA00090913B05A0913C05B0913D05281B390B56
:101DB0004A0B5B0B20935205309353054093540517
:101DC0005093550557FF0FC088279927DC01821BC8
:101DD000930BA40BB50B8093520590935305A093DE
:101DE0005405B093550520914A0530914B0540911B
:101DF0004C0550914D0580913E0590913F05A09175
:101E00004005B0914105281B390B4A0B5B0B209311
:101E1000560530935705409358055093590557FF81
:101E20000FC088279927DC01821B930BA40BB50BED
:101E30008093560590935705A0935805B093590584
:101E40008091420590914305A0914405B0914505CC
:101E5000A8019701281B390B4A0B5B0B20935A05ED
:101E600030935B0540935C0550935D0557FF0FC0B1
:101E700088279927DC01821B930BA40BB50B809359
:101E80005A0590935B05A0935C05B0935D05109295
:101E9000BE036091220570912305809124059091E5
:101EA0002505209116053091170540911805509190
:101EB00019050E94982D88231CF081E08093BE03B1
:101EC0001092BF0360912605709127058091280527
:101ED0009091290520911A0530911B0540911C0510
:101EE00050911D050E94982D88231CF081E080935D
:101EF000BF031092C00360912A0570912B05809159
:101F00002C0590912D0520911E0530911F054091C3
:101F10002005509121050E94982D88231CF081E016
:101F20008093C0031F910F91FF90EF90DF90CF90AF
:101F3000BF90AF9008950F931F938B019C018AE38C
:101F400095E066E475E042E555E00E940A0880915C
:101F5000220590912305A0912405B0912505809339
:101F6000160590931705A0931805B0931905809155
:101F7000260590912705A0912805B0912905809309
:101F80001A0590931B05A0931C05B0931D05809125
:101F90002A0590912B05A0912C05B0912D058093D9
:101FA0001E0590931F05A0932005B09321050E9464
:101FB000FA0D1F910F91089580E090E0A0E0B0E04D
:101FC0008093160590931705A0931805B0931905F3
:101FD00080931A0590931B05A0931C05B0931D05D3
:101FE00080931E0590931F05A0932005B0932105B3
:101FF0008093220590932305A0932405B093250593
:102000008093260590932705A0932805B093290572
:1020100080932A0590932B05A0932C05B0932D0552
:102020008091360490913704A0913804B09139041E
:1020300080930A0590930B05A0930C05B0930D05B2
:1020400080913A0490913B04A0913C04B0913D04EE
:1020500080930E0590930F05A0931005B093110582
:1020600080913E0490913F04A0914004B0914104BE
:102070008093120590931305A0931405B093150552
:102080000E94FA0D0895AF92BF92CF92DF92EF9225
:10209000FF920F931F935B016C0160931605709381
:1020A0001705809318059093190520931A0530930E
:1020B0001B0540931C0550931D05E0921E05F092F0
:1020C0001F05009320051093210560910A0570916A
:1020D0000B0580910C0590910D05A60195010E94BC
:1020E0005B0260933A0570933B0580933C059093A7
:1020F0003D0560910E0570910F058091100590913E
:10210000110520911A0530911B0540911C05509135
:102110001D050E945B0260933E0570933F0580930E
:1021200040059093410560911205709113058091CF
:1021300014059091150520911E0530911F054091C1
:102140002005509121050E945B0260934205709327
:10215000430580934405909345050E94FA0D1F9115
:102160000F91FF90EF90DF90CF90BF90AF900895C8
:10217000DF93CF93CDB7DEB72A970FB6F894DEBFC3
:102180000FBECDBF282F19821A821B821C82FE012E
:10219000359686E0DF011D928A95E9F790E024C02C
:1021A000E60FF71F80819F5F8217F1F4DE01119621
:1021B0009E01255F3F4F09C0E60FF71F80818823EE
:1021C00061F0803251F08D939F5FE92FF0E0E417CA
:1021D000F5071CF4A217B30779F7CE01019660E06A
:1021E00070E00E94D30009C0E92FF0E0E417F50782
:1021F000BCF260E070E080E090E02A960FB6F894C0
:10220000DEBF0FBECDBFCF91DF9108952F923F92D9
:102210004F925F926F927F928F929F92AF92BF92F6
:10222000CF92DF92EF92FF920F931F93DF93CF93A2
:10223000CDB7DEB7CB55D0400FB6F894DEBF0FBE9A
:10224000CDBF4C013B01DC018C918F3211F40C9419
:10225000581A873439F0883529F0893519F08A35CC
:1022600009F053C687E4B401A3010E94B8100E948C
:102270000C2C2C966FAF2C976430C8F065961FAE6F
:10228000659766961FAE669767961FAE67976896C6
:102290001FAE68970F2EF0E02F2EF0E03F2EF0E0FB
:1022A0004F2EF0E05F2EF02D6201510183C080912E
:1022B0005E05882309F441C090E006C0E80DF91DD1
:1022C0008081883541F09F5FE92FF0E0E615F70542
:1022D000ACF30C94781A88E5B401A3010E94B810FD
:1022E0005B016C0190E006C0E80DF91D8081893525
:1022F00041F09F5FE92FF0E0E615F705ACF30C9491
:10230000821A89E5B401A3010E94B8101B012C01B7
:1023100090E006C0E80DF91D80818A3541F09F5F8D
:10232000E92FF0E0E615F705ACF30C948C1A8AE57A
:10233000B401A3010E94B81031C088E5B401A30123
:102340000E94B8102091160530911705409118058C
:10235000509119050E94C42A5B016C0189E5B40102
:10236000A3010E94B81020911A0530911B054091DD
:102370001C0550911D050E94C42A1B012C018AE5F1
:10238000B401A3010E94B81020911E0530911F05D1
:1023900040912005509121050E94C42A65966FAF97
:1023A000659766967FAF669767968FAF67976896D3
:1023B0009FAF68978CE4B401A3010E94B8100E94FB
:1023C0000C2C7093600560935F05161617061CF4BD
:1023D000CB010E948D0A2C96EFAD2C97E43109F4C5
:1023E00021C4E53168F4E43020F4E23008F0A3C001
:1023F00023C02C96FFAD2C97F43009F064C504C4BB
:102400002C962FAD2C972E3109F4A3C42F3138F41C
:10241000253109F43CC42C3109F055C577C42C96FC
:102420003FAD2C973B3509F440C53C3509F440C518
:102430003A3509F048C535C5A0922205B09223056A
:10244000C0922405D09225052092260530922705BA
:10245000409228055092290565962FAD659766969E
:102460003FAD669767964FAD679768965FAD689783
:10247000C901DA0180932A0590932B05A0932C05BE
:10248000B0932D050E94FA0D90E006C0E80DF91DED
:102490008081873439F09F5FE92FF0E0E615F7057A
:1024A000ACF31FC02C968FAD2C97813089F586E454
:1024B000B401A3010E94B8100E940C2C9B011616B7
:1024C00017067CF4B901882777FD8095982F0E9424
:1024D0003F2C609361057093620580936305909330
:1024E0006405E0906105F09062050091630510912C
:1024F0006405C801B70120E030E040E050E00E94F0
:10250000982D18162CF4C801B7010E941B0D02C0AB
:102510000E94D90D609365057093660580936705E9
:1025200090936805609165057091660580916705D7
:10253000909168050BC482E4B401A3010E94B81015
:102540000E940C2C6330710509F09EC18091160524
:1025500090911705A0911805B091190589879A8760
:10256000AB87BC8780911A0590911B05A0911C0533
:10257000B0911D058D879E87AF87B88B81E6B4012A
:10258000A3010E94B810698B7A8B8B8B9C8B82E69F
:10259000B401A3010E94B8106D8B7E8B8F8B988F36
:1025A00083E6B401A3010E94B810698F7A8F8B8FE4
:1025B0009C8F84E6B401A3010E94B8106D8F7E8FBA
:1025C0008F8F98A385E6B401A3010E94B81069A378
:1025D0007AA38BA39CA386E6B401A3010E94B81042
:1025E0006DA37EA38FA398A7E984FA840B851C852D
:1025F0008D859E85AF85B88989A79AA7ABA7BCA70B
:102600002B961FAE1EAE2B970F2EF0E02F2EF0E074
:102610003F2EF0E04F2EF0E05F2EF02D2B96AEAD6A
:10262000BFAD2B97BD01882777FD8095982F0E941D
:102630003F2C29E33EE843EE5DE30E94A32DAB016E
:10264000BC01CE0109969E012F5F3F4F0E947C0B7B
:1026500089819A81AB81BC8129968CAF9DAFAEAF49
:10266000BFAF2997C801B70129962CAD3DAD4EAD3E
:102670005FAD29970E94C32A5B016C018D819E8109
:10268000AF81B88525968CAF9DAFAEAFBFAF259714
:1026900069A57AA58BA59CA525962CAD3DAD4EAD23
:1026A0005FAD25970E94C32A7B018C01C601B5014D
:1026B000A60195010E94A32D5B016C01C801B70121
:1026C000A80197010E94A32D9B01AC01C601B50191
:1026D0000E94C42A7B018C0120E030E040E050E001
:1026E0000E94982D181664F4C801B7010E94102E9C
:1026F0009B01AC01C201B1010E94C42A1B012C0143
:102700002B96AEADBFAD2B9711962B96BFAFAEAF4C
:102710002B971A9789F02996ECACFDAC0EAD1FAD46
:10272000299725968CAD9DADAEADBFAD259789A7F8
:102730009AA7ABA7BCA772CFC201B1012091B80381
:102740003091B9034091BA035091BB030E94A42B6E
:102750000E948A2B0E940C2C6B0192E0C916D104B6
:102760001CF482E0C82ED12C0894C108D108B6010F
:10277000882777FD8095982F0894C11CD11C0E9452
:102780003F2C9B01AC0160E070E080E89FE30E9479
:10279000A42B1B012C01AA24BB24B501882777FD9B
:1027A0008095982F0E943F2CA20191010E94A32D99
:1027B000AB01BC01CE0109969E012F5F3F4F0E94E5
:1027C0007C0B2D813E814F81588589819A81AB8117
:1027D000BC818093220590932305A0932405B09398
:1027E000250520932605309327054093280550930F
:1027F000290565962FAD659766963FAD66976796F6
:102800004FAD679768965FAD6897C901DA0180930D
:102810002A0590932B05A0932C05B0932D050E94BB
:10282000FA0DE0906105F09062050091630510914A
:102830006405C801B70120E030E040E050E00E94AC
:10284000982D18162CF4C801B7010E941B0D02C068
:102850000E94D90D609365057093660580936705A6
:102860009093680560916505709166058091670594
:10287000909168050E949B0F0894A11CB11CAC1498
:10288000BD040CF48ACF36C389E4B401A3010E94CD
:10289000B8102091160530911705409118055091F8
:1028A00019050E94C42A64966CAF7DAF8EAF9FAFAE
:1028B00064978AE4B401A3010E94B810E0901A055D
:1028C000F0901B0500911C0510911D05A8019701B2
:1028D0000E94C42A60966CAF7DAF8EAF9FAF6097A9
:1028E0006091160570911705809118059091190552
:1028F00064962CAD3DAD4EAD5FAD64970E94C32A8A
:102900006DAB7EAB8FAB98AFC801B70160962CADB5
:102910003DAD4EAD5FAD60970E94C32A69AB7AAB07
:102920008BAB9CABC601B50164962CAD3DAD4EADF5
:102930005FAD64970E94C32A5B016C01C201B101C3
:1029400060962CAD3DAD4EAD5FAD60970E94C32A41
:102950007B018C012C96AFAD2C97A230A1F4C8015D
:102960009501A6010E94372B21966CAF7DAF8EAFEB
:102970009FAF219769A97AA98BA99CA92DA93EA9E6
:102980004FA958AD14C069A97AA98BA99CA92DA9F2
:102990003EA94FA958AD0E94372B21966CAF7DAF51
:1029A0008EAF9FAF2197B701C8019501A6010E9484
:1029B000372B7B018C0121962CAD3DAD4EAD5FAD2B
:1029C00021970E949D2B181654F0C801B7012BEDDA
:1029D0003FE049EC50E40E94C42A7B018C01C8010D
:1029E000B70121962CAD3DAD4EAD5FAD21970E9454
:1029F000C32A69AF7AAF8BAF9CAF6DA97EA98FA9AF
:102A000098AD9B01AC010E94A32D7B018C0169A9AB
:102A10007AA98BA99CA99B01AC010E94A32D9B01C3
:102A2000AC01C801B7010E94C42A0E94102E1B01EC
:102A30002C0129AD3AAD4BAD5CAD0E94A32D209188
:102A4000B8033091B9034091BA035091BB030E947F
:102A5000A42B0E948A2B0E940C2C78AB6FA7E1E07C
:102A6000F0E0FEA7EDA7CB01AA2797FDA095BA2F0E
:102A70006C968CAF9DAFAEAFBFAF6C97BCC02C96C1
:102A80009FAD2C97933019F42DA53EA506C02FA518
:102A900038A9ADA5BEA52A1B3B0BB901882777FD38
:102AA0008095982F0E943F2C7B018C016C966CAD19
:102AB0007DAD8EAD9FAD6C970E943F2C9B01AC010C
:102AC000C801B7010E94A42B9B01AC0169AD7AAD8E
:102AD0008BAD9CAD0E94A32D9B01AC0121966CADEA
:102AE0007DAD8EAD9FAD21970E94C42A7B018C01E4
:102AF000C8010E94A12B5B016C01B701C8010E94B3
:102B0000062E7B018C01C201B101A60195010E9434
:102B1000A32D9B01AC0164966CAD7DAD8EAD9FADD8
:102B200064970E94C42A60932205709323058093C2
:102B3000240590932505C201B101A80197010E94C7
:102B4000A32D9B01AC0160966CAD7DAD8EAD9FADAC
:102B500060970E94C42A609326057093270580938E
:102B600028059093290565962FAD659766963FAD2C
:102B7000669767964FAD679768965FAD6897C9018E
:102B8000DA0180932A0590932B05A0932C05B0932E
:102B90002D050E94FA0DE0906105F090620500910C
:102BA000630510916405C801B70120E030E040E002
:102BB00050E00E94982D18162CF4C801B7010E940D
:102BC0001B0D02C00E94D90D6093650570936605C8
:102BD000809367059093680560916505709166051F
:102BE00080916705909168050E949B0FEDA5FEA559
:102BF0003196FEA7EDA72DA53EA58FA598A9821712
:102C000093070CF03CCF76C180E5B401A3010E948C
:102C1000B8100E940C2C882777FD8095982F0E9471
:102C20000E2168C18091420490914304A091440414
:102C3000B091450480930A0590930B05A0930C0571
:102C4000B0930D058091460490914704A0914804EB
:102C5000B091490480930E0590930F05A093100541
:102C6000B093110580914A0490914B04A0914C04BB
:102C7000B0914D048093120590931305A093140511
:102C8000B093150589E092E0A1E8BBE334C08091E0
:102C9000360490913704A0913804B09139048093A0
:102CA0000A0590930B05A0930C05B0930D05809138
:102CB0003A0490913B04A0913C04B0913D04809370
:102CC0000E0590930F05A0931005B0931105809108
:102CD0003E0490913F04A0914004B0914104809340
:102CE000120590931305A0931405B09315058DEC70
:102CF0009CECACECBDE38093B8039093B903A09334
:102D0000BA03B093BB030E94FA0DF4C080E090E0D8
:102D1000A0E0B0E08093220590932305A0932405C2
:102D2000B09325058093260590932705A093280549
:102D3000B093290580932A0590932B05A0932C0529
:102D4000B0932D050E94FA0D0E94D90D0E949B0F91
:102D5000D1C088E5B401A3010E94B8101B012C0169
:102D600089E5B401A3010E94B8107B018C018AE5BA
:102D7000B401A3010E94B8105B016C0180915E0553
:102D8000882309F443C090E006C0E80DF91D808156
:102D9000883539F09F5FE92FF0E0E615F705ACF3D1
:102DA000D1C390E006C0E80DF91D8081893539F066
:102DB0009F5FE92FF0E0E615F705ACF3CCC390E098
:102DC00006C0E80DF91D80818A3539F09F5FE92F33
:102DD000F0E0E615F705ACF3C7C320922205309268
:102DE00023054092240550922505E0922605F09295
:102DF00027050093280510932905A0922A05B09273
:102E00002B05C0922C05D0922D0544C0C801B701F6
:102E100020911A0530911B0540911C0550911D050C
:102E20000E94C42A7B018C01C601B50120911E05B8
:102E300030911F0540912005509121050E94C42A20
:102E40005B016C0160911605709117058091180562
:102E500090911905A20191010E94C42A6093220554
:102E6000709323058093240590932505C701D8010D
:102E70008093260590932705A0932805B0932905F4
:102E8000C501D60180932A0590932B05A0932C05AC
:102E9000B0932D050E94FA0D0E94D90D0E949B0F40
:102EA00035CF81E080935E0525C010925E0522C07B
:102EB00060E070E080E090E09B01AC017B018C0160
:102EC0000E94431017C081E396E06EE473E00E9415
:102ED000702681E396E02C966FAD2C974AE050E087
:102EE0000E94BA2581E396E06AE070E04AE050E093
:102EF0000E94512680915F05909160051816190671
:102F000024F480E090E00E947B0AD4018C918D34FF
:102F100009F041C0B401A3010E94B8100E94112C15
:102F20007B018C01633019F06530B1F410C08CE482
:102F3000B401A3010E94B8100E940C2CDC01CB014B
:102F40009093BD038093BC030E948D0A12C080E061
:102F500090E00E947B0A0DC081E396E067E573E094
:102F60000E94702681E396E06E2D4AE050E00E94B8
:102F7000CC2580E5B401A3010E94B8100E940C2C5E
:102F80009B01161617063CF4B901882777FD80953A
:102F9000982F0E940E21F4018081843569F4B401D8
:102FA000A3010E94B8100E94112CDC01CB0190E01B
:102FB000B401A3010E94E905D4018C91843209F087
:102FC00077C2B401A3010E94B8100E94112C653091
:102FD00009F46FC1663070F4623039F1633020F467
:102FE000613009F065C223C06330E9F0643009F054
:102FF0005FC217C0683079F0693030F4663079F01C
:10300000673009F055C209C0693009F4F3C1653170
:1030100009F04EC226C290E0BFC190E0A3C190E08B
:103020005AC190E0FCC090E0AAC090E058C090E087
:1030300006C0E80DF91D8081883539F09F5FE92FC2
:10304000F0E0E615F705ACF30DC088E5B401A30187
:103050000E94B8100E940C2C9B01AC0188E5B901BC
:103060000E94630290E006C0E80DF91D8081893559
:1030700039F09F5FE92FF0E0E615F705ACF30DC0DE
:1030800089E5B401A3010E94B8100E940C2C9B0199
:10309000AC0189E5B9010E94630290E006C0E80D29
:1030A000F91D80818A3539F09F5FE92FF0E0E61540
:1030B000F705ACF3FDC18AE5B401A3010E94B81085
:1030C0000E940C2C9B01AC018AE5B9010E946302AD
:1030D000EFC1E80DF91D8081883539F09F5FE92F38
:1030E000F0E0E615F705ACF30DC088E5B401A301E7
:1030F0000E94B8100E940C2C9B01AC0188E5B9011C
:103100000E94640290E006C0E80DF91D80818935B7
:1031100039F09F5FE92FF0E0E615F705ACF30DC03D
:1031200089E5B401A3010E94B8100E940C2C9B01F8
:10313000AC0189E5B9010E94640290E006C0E80D87
:10314000F91D80818A3539F09F5FE92FF0E0E6159F
:10315000F705ACF3ADC18AE5B401A3010E94B81034
:103160000E940C2C9B01AC018AE5B9010E9464020B
:103170009FC1E80DF91D8081883539F09F5FE92FE7
:10318000F0E0E615F705ACF30DC088E5B401A30146
:103190000E94B8100E940C2C9B01AC0188E5B9017B
:1031A0000E94650290E006C0E80DF91D8081893516
:1031B00039F09F5FE92FF0E0E615F705ACF30DC09D
:1031C00089E5B401A3010E94B8100E940C2C9B0158
:1031D000AC0189E5B9010E94650290E006C0E80DE6
:1031E000F91D80818A3539F09F5FE92FF0E0E615FF
:1031F000F705ACF35DC18AE5B401A3010E94B810E4
:103200000E940C2C9B01AC018AE5B9010E94650269
:103210004FC1E80DF91D8081883539F09F5FE92F96
:10322000F0E0E615F705ACF30DC088E5B401A301A5
:103230000E94B8100E940C2C9B01AC0188E5B901DA
:103240000E94660290E006C0E80DF91D8081893574
:1032500039F09F5FE92FF0E0E615F705ACF30DC0FC
:1032600089E5B401A3010E94B8100E940C2C9B01B7
:10327000AC0189E5B9010E94660290E006C0E80D44
:10328000F91D80818A3539F09F5FE92FF0E0E6155E
:10329000F705ACF30DC18AE5B401A3010E94B81093
:1032A0000E940C2C9B01AC018AE5B9010E946602C8
:1032B000FFC08DE6B401A3010E94B8100E940C2C3F
:1032C000DC01CB010E94BD06F3C0E80DF91D808131
:1032D000883539F09F5FE92FF0E0E615F705ACF38C
:1032E0000AC088E5B401A3010E94B810AB01BC017B
:1032F00088E50E94690290E006C0E80DF91D808112
:10330000893539F09F5FE92FF0E0E615F705ACF35A
:103310000AC089E5B401A3010E94B810AB01BC0149
:1033200089E50E94690290E006C0E80DF91D8081E0
:103330008A3539F09F5FE92FF0E0E615F705ACF329
:1033400022C08AE5B401A3010E94B810AB01BC0100
:103350008AE50E94690217C0E80DF91D8081863454
:1033600039F09F5FE92FF0E0E615F705ACF3A0C058
:1033700086E4B401A3010E94B8100E940C2CDC0169
:10338000CB010E948A020E94DC0F92C0E80DF91D59
:103390008081813439F09F5FE92FF0E0E615F70571
:1033A000ACF30DC081E4B401A3010E94B8100E94E7
:1033B0000C2C9B01AC0181E4B9010E94670290E0F2
:1033C00006C0E80DF91D8081823439F09F5FE92F36
:1033D000F0E0E615F705ACF30DC082E4B401A301FB
:1033E0000E94B8100E940C2C9B01AC0182E4B90130
:1033F0000E94670290E006C0E80DF91D80818134CB
:1034000039F09F5FE92FF0E0E615F705ACF30DC04A
:1034100081E4B401A3010E94B8100E940C2C9B010E
:10342000AC0181E4B9010E94680290E006C0E80D99
:10343000F91D8081823439F09F5FE92FF0E0E615B5
:10344000F705ACF335C082E4B401A3010E94B810C3
:103450000E940C2C9B01AC0182E4B9010E9468021D
:1034600027C08CE4B401A3010E94B8100E940C2C68
:103470006115710519F0CB010E94CA0383E5B401FF
:10348000A3010E94B8100E940C2C6115710519F05F
:10349000CB010E94FD0380E5B401A3010E94B81096
:1034A0000E940C2C6115710519F0CB010E94B70226
:1034B00081E396E06BE473E00E945A27C55ADF4F20
:1034C0000FB6F894DEBF0FBECDBFCF91DF911F9135
:1034D0000F91FF90EF90DF90CF90BF90AF909F90B3
:1034E0008F907F906F905F904F903F902F900895B6
:1034F000A0901605B0901705C0901805D09019053A
:103500000C94721120901A0530901B0540901C05F8
:1035100050901D050C948811B0911E056596BFAFA3
:103520006597E0911F056696EFAF6697F0912005CD
:103530006796FFAF67972091210568962FAF689730
:103540000C94DA112090160530901705409018055C
:103550005090190526CCE0901A05F0901B050091BB
:103560001C0510911D052BCCA0901E05B0901F05C9
:10357000C0902005D090210530CC1092800510928B
:103580008105109282051092830510928C0510928D
:103590008D0510928E0510928F051092980510924D
:1035A000990510929A0510929B0508958130910516
:1035B00051F46F5F7F4F81F481E795E060E673E03F
:1035C0000E9474280895892B39F46F5F7F4F21F48E
:1035D00081E795E00E94A728089580E090E06FEFD2
:1035E0007FEF0E94D61A089581E090E06FEF7FEFA1
:1035F0000E94D61A0895EF92FF920F931F93CF93D4
:10360000DF93EC01109278051092790510927A05FB
:1036100010927B0510927C0510927D0510927E051C
:1036200010927F05109284051092850510928605F0
:1036300010928705E0903A04F0903B0400913C041E
:1036400010913D04BE01882777FD8095982F0E9438
:103650003F2C2DEC3CEC4CEC5DE30E94A32D9B0138
:10366000AC01C801B7010E945B0222273327A901E0
:10367000261B370B480B590B20938805309389057F
:1036800040938A0550938B051092900510929105F6
:10369000109292051092930520939405309395050E
:1036A000409396055093970557FF0FC08827992799
:1036B000DC01821B930BA40BB50B809394059093B4
:1036C0009505A0939605B093970580919C059091E0
:1036D0009D05A0919E05B0919F05181619061A0622
:1036E0001B0684F080914E0490914F04AA2797FD09
:1036F000A095BA2F80939C0590939D05A0939E055D
:10370000B0939F059E01D7FF03C0309521953F4F91
:10371000B901882777FD8095982F0E943F2C2DECCA
:103720003CEC4CEC5DE30E94A32D20EC31EE44E632
:103730005CE40E94A32D7B018C0160919C0570913B
:103740009D0580919E0590919F050E943F2C9B01B5
:10375000AC01C801B7010E94A42B20E030E040E09A
:1037600050E00E94A42B0E940C2C8B019C0188E746
:1037700095E064E875E040E955E00E940A08DF91B1
:10378000CF911F910F91FF90EF900895AF92BF924C
:10379000CF92DF92EF92FF920F931F93CF93DF931D
:1037A000EC01109278051092790510927A0510922A
:1037B0007B0510927C0510927D0510927E0510927B
:1037C0007F05E0903604F0903704009138041091A2
:1037D0003904BE01882777FD8095982F0E943F2CE1
:1037E0002DEC3CEC4CEC5DE30E94A32D9B01AC0165
:1037F000C801B7010E945B02909580957095619514
:103800007F4F8F4F9F4F6093840570938505809302
:10381000860590938705109288051092890510926D
:103820008A0510928B055B016C0197FF08C0D0944C
:10383000C094B094A094A11CB11CC11CD11CA09236
:103840009005B0929105C0929205D0929305109286
:103850009405109295051092960510929705809107
:103860009C0590919D05A0919E05B0919F0518160D
:1038700019061A061B0684F080914E0490914F049D
:10388000AA2797FDA095BA2F80939C0590939D053C
:10389000A0939E05B0939F059E01D7FF03C030956E
:1038A00021953F4FB901882777FD8095982F0E9479
:1038B0003F2C2DEC3CEC4CEC5DE30E94A32D20EC66
:1038C00031EE44E65CE40E94A32D7B018C01609103
:1038D0009C0570919D0580919E0590919F050E9489
:1038E0003F2C9B01AC01C801B7010E94A42B7B01B6
:1038F0008C01C601B5010E943F2C9B01AC01C8019F
:10390000B7010E94A42B0E940C2C8B019C0188E71C
:1039100095E064E875E040E955E00E940A08DF910F
:10392000CF911F910F91FF90EF90DF90CF90BF90BC
:10393000AF9008952F923F924F925F926F927F9235
:103940008F929F92AF92BF92CF92DF92EF92FF92AF
:103950000F931F93CF93DF934C015B01CC24DD24A5
:1039600033E0632E712C21E0422E512C92E0292E5F
:10397000312C4DC3F401EC0DFD1D108181E795E064
:10398000612F0E942E28133509F441C0143554F4D8
:103990001C3409F44BC01D3409F45CC01B3309F01E
:1039A0006BC008C01835A9F0193511F1153509F0AB
:1039B00063C03FC010926A051092690581E795E0E7
:1039C00060E673E00E948E2881E396E061E673E092
:1039D00051C050926A054092690581E795E060E622
:1039E00073E00E948E2881E396E064E673E042C0B3
:1039F00030926A052092690581E795E060E673E000
:103A00000E948E2881E396E06AE673E033C07092EC
:103A10006A056092690581E795E060E673E00E94BF
:103A20008E2881E396E060E773E024C084E090E0B4
:103A300002C085E090E090936A058093690581E774
:103A400095E060E673E00E948E2881E396E066E7E9
:103A500073E010C087E090E090936A058093690559
:103A600081E795E060E673E00E948E2881E396E0AE
:103A70006CE773E00E945A278091690590916A056E
:103A80008330910509F498C1843091051CF40197A5
:103A90006CF4AEC28530910509F4DEC08530910525
:103AA0000CF401C2079709F0A3C259C280917505B1
:103AB00090917605059709F09BC281E795E060E05B
:103AC00070E00E94B627FC01E0818E2F80538A307F
:103AD00028F4EE2EFF2480ED9FEF0CC08E2F815432
:103AE000863020F0EE24EA94FE2C06C0EE2EFF2451
:103AF00089EC9FEFE80EF91E81E795E061E070E048
:103B00000E94B627FC01E0818E2F80538A3028F472
:103B10000E2F10E0005310400BC08E2F81548630C2
:103B200018F00FEF1FEF04C00E2F10E007531040E6
:103B300081E795E062E070E00E94B627FC01E08139
:103B40008E2F80538A3020F4CE2FD0E0E0970AC029
:103B50008E2F8154863018F0CFEFDFEF03C0CE2FC9
:103B6000D0E0E79781E795E063E070E00E94B62738
:103B7000FC01E0818E2F80538A3018F4F0E0F0973A
:103B800009C08E2F8154863018F0EFEFFFEF02C08E
:103B9000F0E0F797902F8827FE2CEE24F29400EFA8
:103BA000F0228E299F2914E0CC0FDD1F1A95E1F732
:103BB0008C2B9D2B8E2B9F2B90936C0580936B05EC
:103BC00081E795E064E070E00E94B627FC01E081A7
:103BD0008E2F80538A3020F48E2F90E0C09707C03C
:103BE0008E2F8154863040F48E2F90E0C797892B1A
:103BF00019F42FEF3FEF02C021E030E0809169051A
:103C000090916A0540916B0550916C05019751F4B4
:103C1000249FC001259F900D349F900D11240E9478
:103C2000C61B09C0249FC001259F900D349F900D95
:103C300011240E94FB1A81E795E060E673E00E9480
:103C40008E2881E396E062E873E00E94702660911E
:103C50006B0570916C0520C180917505909176057A
:103C6000049709F0C5C181E795E060E070E00E942B
:103C7000B627FC01E0818E2F80538A3028F4EE2E87
:103C8000FF2480ED9FEF0CC08E2F8154863020F0F2
:103C9000EE24EA94FE2C06C0EE2EFF2489EC9FEF62
:103CA000E80EF91E81E795E061E070E00E94B6271A
:103CB000FC01E0818E2F80538A3028F40E2F10E013
:103CC000005310400BC08E2F8154863018F00FEF38
:103CD0001FEF04C00E2F10E00753104081E795E05E
:103CE00062E070E00E94B627FC01E0818E2F8053D5
:103CF0008A3020F4CE2FD0E0E0970AC08E2F815476
:103D0000863018F0CFEFDFEF03C0CE2FD0E0E7977B
:103D100081E795E063E070E00E94B627FC01E08156
:103D20008E2F80538A3018F4F0E0F09709C08E2F60
:103D30008154863018F0EFEFFFEF02C0F0E0F79704
:103D4000902F8827FE2CEE24F294A0EFFA228E29E1
:103D50009F2974E0CC0FDD1F7A95E1F78C2B9D2B0A
:103D60008E2B9F2B90936E0580936D0581E795E0D8
:103D700060E673E00E948E2881E396E068E873E0D5
:103D80000E94702660916D0570916E0581E396E04A
:103D90004AE050E00E94512620916D0530916E0559
:103DA000121613060CF024C1B901882777FD8095FF
:103DB000982F0E940E211CC1809175059091760567
:103DC000029709F015C181E795E060E070E00E947C
:103DD000B627FC01E0818E2F80538A3020F4CE2F4D
:103DE000D0E0E0970AC08E2F8154863018F0CFEFD4
:103DF000DFEF03C0CE2FD0E0E79781E795E061E0E9
:103E000070E00E94B627FC01E0818E2F80538A303B
:103E100020F48E2F90E0C0970AC08E2F81548630F8
:103E200018F08FEF9FEF03C08E2F90E0C797FE0131
:103E300064E0EE0FFF1F6A95E1F7E82BF92BF09392
:103E4000C203E093C1031E161F06B4F4CF0153E072
:103E5000880F991F5A95E1F7EE0FFF1F8E0F9F1FD6
:103E6000AA2797FDA095BA2F80939C0590939D0556
:103E7000A0939E05B0939F0581E795E060E673E00F
:103E80000E948E2881E396E064E973E00E94702628
:103E90006091C1037091C20381E396E04AE050E073
:103EA0000E945126A5C080917505909176050297D4
:103EB00009F09EC081E795E060E070E00E94B627BF
:103EC000FC01E0818E2F80538A3020F4CE2FD0E089
:103ED000E0970AC08E2F8154863018F0CFEFDFEFC5
:103EE00003C0CE2FD0E0E79781E795E061E070E076
:103EF0000E94B627FC01E0818E2F80538A3020F487
:103F00008E2F90E0C0970AC08E2F8154863018F013
:103F10008FEF9FEF03C08E2F90E0C79734E0CC0F58
:103F2000DD1F3A95E1F7C82BD92B209729F480E0C3
:103F300090E00E947B0A03C0CE010E948D0A81E7B7
:103F400095E060E673E00E948E2881E396E06BE9DD
:103F500073E00E94702681E396E0BE019FCF8091BE
:103F6000750590917605029709F042C081E795E0CA
:103F700060E070E00E94B627FC01E0818E2F805344
:103F80008A3020F4CE2FD0E0E0970AC08E2F8154E3
:103F9000863018F0CFEFDFEF03C0CE2FD0E0E797E9
:103FA00081E795E061E070E00E94B627FC01E081C6
:103FB0008E2F80538A3018F4F0E0F09709C08E2FCE
:103FC0008154863018F0EFEFFFEF02C0F0E0F79772
:103FD000CE0124E0880F991F2A95E1F78E2B9F2BA5
:103FE0009093700580936F05019711F40E943F052F
:103FF0008091750590917605819730F081E795E085
:1040000060E673E00E948E280894C11CD11CCA147B
:10401000DB040CF4AFCCDF91CF911F910F91FF9097
:10402000EF90DF90CF90BF90AF909F908F907F9058
:104030006F905F904F903F902F900895CF93DF93B4
:10404000EC0161307105A1F0623071051CF4672B41
:1040500041F034C062307105D1F06330710571F503
:104060001DC08A8961E00E946D228C8960E006C0D3
:104070008A8960E00E946D228C8961E00E946D2235
:104080008E8961E00E946D22888D60E015C08A896A
:1040900060E00E946D228C8961E006C08A8961E03F
:1040A0000E946D228C8960E00E946D228E8960E002
:1040B0000E946D22888D61E00E946D22DF91CF9178
:1040C0000895FC0171836083268137816130710519
:1040D00061F42F5F3F4F37832683828193812817B6
:1040E000390771F4178216820BC0232B21F48281C9
:1040F00093819783868386819781019797838683AF
:104100008681978164E070E00E94982EBC01CF0107
:104110000E941E200895CF92DF92EF92FF920F939C
:104120001F936C01842FF601178216821182108270
:10413000738362831186108616861786108A118A09
:10414000428B538B358B248B178B068BF18EE08E35
:1041500061E00E942E22F601848961E00E942E22F5
:10416000F601868961E00E942E22F601808D61E0D1
:104170000E942E2284E090E0F601958384831F91B3
:104180000F91FF90EF90DF90CF9008951F920F92C4
:104190000FB60F9211242F933F938F939F93AF935A
:1041A000BF938091A4059091A505A091A605B0911B
:1041B000A7053091A8050196A11DB11D232F2D5FE4
:1041C0002D3720F02D570196A11DB11D2093A80574
:1041D0008093A4059093A505A093A605B093A70589
:1041E0008091A0059091A105A091A205B091A30591
:1041F0000196A11DB11D8093A0059093A105A093E8
:10420000A205B093A305BF91AF919F918F913F916C
:104210002F910F900FBE0F901F9018959B01AC012E
:104220007FB7F8948091A0059091A105A091A20577
:10423000B091A30566B5A89B05C06F3F19F0019624
:10424000A11DB11D7FBFBA2FA92F982F8827860FD8
:10425000911DA11DB11D62E0880F991FAA1FBB1FF0
:104260006A95D1F7BC012DC0FFB7F8948091A005E5
:104270009091A105A091A205B091A305E6B5A89BD8
:1042800005C0EF3F19F00196A11DB11DFFBFBA2F68
:10429000A92F982F88278E0F911DA11DB11DE2E037
:1042A000880F991FAA1FBB1FEA95D1F7861B970B92
:1042B000885E9340C8F221503040404050406851E1
:1042C0007C4F211531054105510571F6089501977F
:1042D00039F0880F991F880F991F02970197F1F7FE
:1042E0000895789484B5826084BD84B5816084BD6E
:1042F00085B5826085BD85B5816085BDEEE6F0E05F
:10430000808181608083E1E8F0E0108280818260BA
:104310008083808181608083E0E8F0E0808181603B
:104320008083E1EBF0E0808184608083E0EBF0E06B
:10433000808181608083EAE7F0E08081846080830F
:1043400080818260808380818160808380818068B9
:1043500080831092C1000895982F8E3008F09E50EF
:1043600097708091C3038295880F880F807C892B7A
:1043700080937C0080917A00806480937A008091A1
:104380007A0086FDFCCF2091780040917900942F2F
:1043900080E030E0282B392BC90108951F93CF937B
:1043A000DF93182FEB0161E00E942E22209709F481
:1043B0004AC0CF3FD10509F449C0E12FF0E0E750F2
:1043C000FF4F84918330C1F0843028F4813051F064
:1043D0008230B1F50CC0863019F1873049F1843054
:1043E00079F514C084B5806884BDC7BD33C084B579
:1043F000806284BDC8BD2EC080918000806880939B
:104400008000D0938900C093880024C080918000F0
:10441000806280938000D0938B00C0938A001AC082
:104420008091B00080688093B000C093B30012C048
:104430008091B00080628093B000C093B4000AC045
:10444000C038D1051CF4812F60E002C0812F61E0EB
:104450000E946D22DF91CF911F910895CF93DF933A
:10446000482F50E0CA018B519F4FFC0134914F52AD
:104470005F4FFA018491882369F190E0880F991FBA
:10448000FC01ED54FF4FA591B491FC01E354FF4FA3
:10449000C591D491662351F42FB7F8948C91932F42
:1044A000909589238C93888189230BC0623061F4B5
:1044B0002FB7F8948C91932F909589238C938881B2
:1044C000832B88832FBF06C09FB7F8948C91832BD2
:1044D0008C939FBFDF91CF910895482F50E0CA0180
:1044E00087509F4FFC012491CA018B519F4FFC01C3
:1044F00094914F525F4FFA013491332309F440C035
:10450000222351F1233071F0243028F42130A1F01E
:10451000223011F514C02630B1F02730C1F024301C
:10452000D9F404C0809180008F7703C0809180000F
:104530008F7D8093800010C084B58F7702C084B5D2
:104540008F7D84BD09C08091B0008F7703C08091BA
:10455000B0008F7D8093B000E32FF0E0EE0FFF1FDF
:10456000E354FF4FA591B4912FB7F894662321F43B
:104570008C919095892302C08C91892B8C932FBFAD
:10458000089508951F920F920FB60F9211242F9342
:104590003F934F938F939F93EF93FF938091C0002E
:1045A00082FD1DC04091C6002091E9053091EA05C9
:1045B0002F5F3F4F2F7330708091EB059091EC058A
:1045C0002817390771F0E091E905F091EA05E75500
:1045D000FA4F40833093EA052093E90502C08091A9
:1045E000C600FF91EF919F918F914F913F912F9135
:1045F0000F900FBE0F901F901895E0913D06F0911F
:104600003E06E05CFF4F8191919120813181821BB8
:10461000930B8F739070892B11F00E94C122089523
:104620001F920F920FB60F9211242F933F938F93E7
:104630009F93EF93FF9320912D0630912E0680914A
:104640002F06909130062817390731F48091C10068
:104650008F7D8093C10014C0E0912F06F091300649
:10466000E351FA4F208180912F06909130060196F8
:104670008F7390709093300680932F062093C6001E
:10468000FF91EF919F918F913F912F910F900FBECE
:104690000F901F901895AF92BF92DF92EF92FF920A
:1046A0000F931F93CF93DF93EC017A018B01DD24ED
:1046B000403081EE580780E0680780E0780711F00D
:1046C000DD24D39491E0A92EB12CEC89FD89DD2065
:1046D00069F0C50108A002C0880F991F0A94E2F78B
:1046E000808360E079E08DE390E005C0108260E8AF
:1046F00074E88EE190E0A80197010E94AB2E215052
:10470000304040405040569547953795279580E179
:104710002030380720F0DD2011F0DD24D6CFE889E5
:10472000F9893083EA89FB89208319A2EE89FF8900
:10473000408121E030E0C9010C8C02C0880F991F34
:104740000A94E2F7482B4083EE89FF894081C90132
:104750000D8C02C0880F991F0A94E2F7482B408302
:10476000EE89FF894081C9010E8C02C0880F991F14
:104770000A94E2F7482B4083EE89FF8980810F8CF1
:1047800002C0220F331F0A94E2F7209528232083CA
:10479000DF91CF911F910F91FF90EF90DF90BF902D
:1047A000AF900895DC011C96ED91FC911D97E05CA3
:1047B000FF4F2191319180819181281B390B2F73FB
:1047C0003070C9010895DC011C96ED91FC911D9794
:1047D000E05CFF4F20813181E054F040DF01AE5BAF
:1047E000BF4F8D919C9111972817390719F42FEF1E
:1047F0003FEF07C08D919C91E80FF91F8081282F12
:1048000030E0C9010895DC011C96ED91FC911D97E3
:10481000E05CFF4F20813181E054F040DF01AE5B6E
:10482000BF4F8D919C9111972817390719F42FEFDD
:104830003FEF10C08D919C911197E80FF91F2081D7
:104840008D919C91119701968F73907011969C9306
:104850008E9330E0C9010895DC0191968C91919777
:10486000882339F05496ED91FC915597808186FF0D
:10487000F9CF91961C920895CF93DF93EC01EE85CA
:10488000FF85E05CFF4F20813181E054F0402F5FD5
:104890003F4F2F733070DF01AE5BBF4F8D919C9106
:1048A000119728173907D1F3E05CFF4F8081918180
:1048B000E054F040E80FF91F6083EE85FF85E05C6F
:1048C000FF4F31832083EE89FF89208181E090E0D2
:1048D0000F8C02C0880F991F0A94E2F7282B2083BF
:1048E00081E089A3EC89FD8980818064808381E0F7
:1048F00090E0DF91CF910895109234061092330624
:1049000088EE93E0A0E0B0E0809335069093360601
:10491000A0933706B09338068EEC93E0909332065E
:104920008093310689EA95E090933E0680933D0698
:104930008DEE95E09093400680933F0685EC90E0E5
:10494000909342068093410684EC90E09093440655
:104950008093430680EC90E0909346068093450652
:1049600081EC90E0909348068093470682EC90E0BB
:1049700090934A068093490686EC90E090934C060B
:1049800080934B0684E080934D0683E080934E062F
:1049900087E080934F0685E08093500681E0809306
:1049A00051060895CF93DF930E9471210E94EE0A71
:1049B000CDEFD2E20E94EB0A2097E1F30E94FD22A4
:1049C000F9CFCF92DF92EF92FF920F931F93CF9385
:1049D000DF937C016B018A01C0E0D0E00FC0D601FB
:1049E0006D916D01D701ED91FC910190F081E02D69
:1049F000C7010995C80FD91F0150104001151105B5
:104A000071F7CE01DF91CF911F910F91FF90EF9041
:104A1000DF90CF900895EF92FF920F931F938C0138
:104A2000DC01ED91FC910190F081E02D6DE00995A4
:104A30007C01D801ED91FC910190F081E02DC8013D
:104A40006AE009959C012E0D3F1DC9011F910F9130
:104A5000FF90EF900895CF93DF93EC0161157105FE
:104A600019F420E030E00FC0DB010D900020E9F7E1
:104A70001197A61BB70BE881F9810280F381E02D25
:104A8000AD0109959C01C901DF91CF9108954F9225
:104A90005F927F928F929F92AF92BF92CF92DF925E
:104AA000EF92FF920F931F93DF93CF93CDB7DEB7B3
:104AB000A1970FB6F894DEBF0FBECDBF2C01742EA8
:104AC000CB01223008F42AE019A231E2C32ED12C06
:104AD000CC0EDD1E822E9924AA24BB24672D752FAF
:104AE000A50194010E94AB2E79018A01C801B7018A
:104AF000A50194010E94792E472D461B0894C108F8
:104B0000D1084A3014F4405D01C0495CF60140838D
:104B1000E114F1040105110521F07E2C5F2DC8017F
:104B2000DDCFC201B6010E942B25A1960FB6F894E5
:104B3000DEBF0FBECDBFCF91DF911F910F91FF90D0
:104B4000EF90DF90CF90BF90AF909F908F907F902D
:104B50005F904F900895DC012115310541F4ED91EE
:104B6000FC910190F081E02D642F099508950E9439
:104B700047250895EF92FF920F931F939A01E62E17
:104B8000FF2400E010E0B801A7010E94AB251F91AF
:104B90000F91FF90EF900895CF92DF92EF92FF92E6
:104BA0000F931F936C01E62E9A01FF2400E010E0A2
:104BB000B801A7010E94AB258C01C6010E940B25FC
:104BC000080F191FC8011F910F91FF90EF90DF9000
:104BD000CF900895CF92DF92EF92FF920F931F93A1
:104BE000CF93DF93EC016A017B012115310541F47C
:104BF000E881F9810190F081E02D642F09951FC0B3
:104C00002A303105D1F477FF17C0E881F98101908E
:104C1000F081E02D6DE209958C0144275527BA01FA
:104C20004C195D096E097F09CE012AE00E944725D3
:104C30009801280F391F04C02AE00E9447259C01D3
:104C4000C901DF91CF911F910F91FF90EF90DF90FD
:104C5000CF900895EF92FF920F931F937C010E94D3
:104C6000EA258C01C7010E940B259C01200F311FF2
:104C7000C9011F910F91FF90EF900895EF92FF925D
:104C80000F931F937B019A010027F7FC0095102FCB
:104C9000B801A7010E94EA251F910F91FF90EF90A4
:104CA0000895CF92DF92EF92FF920F931F936C01C2
:104CB0007B019A010027F7FC0095102FB801A7018E
:104CC0000E94EA258C01C6010E940B25080F191FBE
:104CD000C8011F910F91FF90EF90DF90CF90089542
:104CE0000E942B2508957F928F929F92AF92BF9240
:104CF000CF92DF92EF92FF920F931F93CF93DF93A8
:104D00004C017A018B01722ECB01BA01A8019701E7
:104D10000E945D2E882321F0C40162EA73E021C065
:104D2000C0E0D0E057016801E894D7F8C601B501AA
:104D30002FEF3FEF4FE75FE70E945D2E882351F48E
:104D4000C601B5012FEF3FEF4FE75FE70E949D2BB4
:104D5000181614F0C1E0D0E0219739F0C40166EADA
:104D600073E00E942B25EC0193C0C801B7012FEF1F
:104D70003FEF4FE75FE40E94982D181654F0C801EA
:104D8000B7012FEF3FEF4FE75FEC0E949D2B882389
:104D900024F4C4016AEA73E0E4CFC801B70120E05B
:104DA00030E040E050E00E949D2B87FD03C0C0E052
:104DB000D0E00EC0D401ED91FC910190F081E02D86
:104DC000C4016DE20995EC0117FB109517F91095D8
:104DD00020E030E040E05FE3DD240BC0CA01B90110
:104DE00020E030E040E251E40E94A42B9B01AC01A2
:104DF000D394D71498F3C801B7010E94C42A5B0169
:104E00006C010E94112C7B018C01C401B801A70127
:104E10002AE030E00E94AB25C80FD91F772039F077
:104E2000C4016EEA73E00E942B25C80FD91FC80188
:104E3000B7010E943D2C9B01AC01C601B5010E9447
:104E4000C32A24C020E030E040E251E40E94A32DB8
:104E50007B018C010E940C2C5B016C01CC24B7FC03
:104E6000C094DC2CC401B601A5012AE030E00E9408
:104E7000EA25C80FD91FC601B5010E943F2C9B012E
:104E8000AC01C801B7010E94C32A7A947720D1F6F9
:104E9000CE01DF91CF911F910F91FF90EF90DF90A6
:104EA000CF90BF90AF909F908F907F9008950E9479
:104EB00073260895EF92FF920F931F937C010E9437
:104EC0002B258C01C7010E940B25080F191FC80153
:104ED0001F910F91FF90EF9008952F923F924F9264
:104EE0005F926F927F928F929F92AF92BF92CF927A
:104EF000DF92EF92FF920F931F93DF93CF93CDB783
:104F0000DEB73B014C0119012A016D897E898F8929
:104F1000988D6A197B098C099D09621A730A840AA3
:104F2000950AA40193010E94792EE218F30804095E
:104F30001509A80197010E94CD2E2A0D3B1D4C1D7D
:104F40005D1DB901CA01CF91DF911F910F91FF90B3
:104F5000EF90DF90CF90BF90AF909F908F907F9019
:104F60006F905F904F903F902F900895FC019B01B0
:104F7000848195816817790728F4608171816115B2
:104F8000710529F41092530663E576E002C0620FC2
:104F9000731FCB0108950F931F93CF93DF93EC0101
:104FA0008B016F5F7F4F888199810E94E229009772
:104FB00011F480E005C0998388831B830A8381E014
:104FC000DF91CF911F910F910895CF93DF93EC0163
:104FD00088819981892B29F08A819B81861797077F
:104FE00060F4CE010E94CB27882341F08C819D8103
:104FF000892B19F4E881F981108281E0DF91CF914A
:105000000895EF92FF920F931F93CF93DF93EC01DC
:105010007B016C817D81E114F104C1F041155105E2
:1050200099F08A01060F171FB8010E94E52788230F
:1050300069F0888199812C813D81820F931FB7018E
:105040000E9454021D830C8381E001C080E0DF9147
:10505000CF911F910F91FF90EF900895DF93CF9321
:1050600000D0CDB7DEB769831A82BE016F5F7F4F74
:1050700041E050E00E9401280F900F90CF91DF9106
:105080000895CF93DF93EC0188819981009711F007
:105090000E944A29198218821D821C821B821A8250
:1050A000DF91CF910895EF92FF920F931F93CF93CB
:1050B000DF93EC017B018A01BA010E94E527882376
:1050C00021F4CE010E94412807C01D830C838881F2
:1050D0009981B7010E945402CE01DF91CF911F91B7
:1050E0000F91FF90EF900895CF93DF93EC01198219
:1050F00018821B821A821D821C821E826115710514
:1051000051F0DB010D900020E9F71197A61BB70BBA
:10511000AD010E945328DF91CF9108950F931F9303
:10512000182F092F6115710559F0DB010D90002032
:10513000E9F71197A61BB70BAD010E94532802C0D7
:105140000E944128812F902F1F910F910895FC01FB
:10515000808191810E944A2908950F931F93CF93D4
:10516000DF93BC018230910510F462E070E0E091C1
:105170005606F091570640E050E0A0E0B0E024C0B1
:105180008081918186179707D0F08617970771F471
:1051900082819381109729F013969C938E93129796
:1051A0002CC0909357068093560627C04115510591
:1051B00019F08417950718F48D01AC01EF01DF0198
:1051C000828193819C01F9013097D1F641155105F7
:1051D000F9F0CA01861B970B8430910580F48A810F
:1051E0009B810115110521F0F8019383828304C08E
:1051F0009093570680935606FE01329645C0FE01F5
:10520000E80FF91F619371930297998388833CC0DB
:105210008091540690915506892B41F48091C603E4
:105220009091C70390935506809354064091C8030C
:105230005091C9034115510541F44DB75EB78091B6
:10524000C4039091C503481B590B2091540630911B
:10525000550624173507B0F4CA01821B930B861735
:10526000970780F0AB014E5F5F4F8417950750F0B2
:10527000420F531F5093550640935406F901619312
:10528000719302C0E0E0F0E0CF01DF91CF911F9178
:105290000F910895CF93DF939C01009709F48FC07D
:1052A000EC0122971B821A82609156067091570674
:1052B0006115710581F488819981820F931F209176
:1052C0005406309155062817390739F5D0935506FD
:1052D000C093540674C0DB0140E050E0AC17BD073A
:1052E00008F1BB83AA83FE0121913191E20FF31FE4
:1052F000AE17BF0779F48D919C911197280F391F34
:105300002E5F3F4F3983288312968D919C9113977E
:105310009B838A834115510571F4D0935706C0933E
:1053200056064DC012968D919C911397AD01009732
:1053300011F0DC01D3CFDA011396DC93CE931297F0
:10534000FA0121913191E20FF31FCE17DF0769F4C3
:1053500088819981280F391F2E5F3F4FFA013183D1
:1053600020838A819B8193838283E0E0F0E0DB01EC
:1053700012968D919C911397009719F0BC01FD0135
:10538000F6CFAB014E5F5F4FDB018D919C91840F97
:10539000951F20915406309155062817390779F446
:1053A000309729F4109257061092560602C01382C5
:1053B0001282425050405093550640935406DF915C
:1053C000CF9108956F927F928F929F92AF92BF92EA
:1053D000CF92DF92EF92FF920F931F93CF93DF93C1
:1053E0008C01009729F4CB010E94AD288C01BBC031
:1053F0008EEFE82E8FEFF82EE00EF11E4801860E9C
:10540000971E8E149F0408F4ACC0D7014D915C9197
:10541000119746175707B8F04530510508F4A3C057
:10542000CA0104978617970708F49DC04250504060
:10543000461B570BF401419351936D937C93CF011D
:105440000E944A2990C05B01A41AB50A3801640E73
:10545000751EA0915606B0915706E0E0F0E0CC240E
:10546000DD2447C0A615B705A9F5CD91DC911197AC
:10547000CE0102968A159B0568F1CE018A199B0917
:10548000029612962C91129713963C91059758F01C
:10549000F40122833383CA19DB09D183C083D70186
:1054A0006D937C9309C04E5F5F4F4C0F5D1FF701FA
:1054B00051834083C901FC01C114D10431F0D601EC
:1054C0001396FC93EE9312974EC0F0935706E09319
:1054D000560649C08D919C911197E817F90708F479
:1054E000FC016D0112968C91129713969C919C0170
:1054F000D901109709F0B6CF8091540690915506C6
:1055000086159705E9F4E617F707D0F42091C8034C
:105510003091C9032115310541F42DB73EB7809173
:10552000C4039091C503281B390B82169306C8F457
:105530009092550680925406F7017183608313C0E0
:10554000CB010E94AD28EC01009759F0D7014D9195
:105550005C91B8010E944B02C8010E944A298E0149
:1055600002C000E010E0C801DF91CF911F910F91C0
:10557000FF90EF90DF90CF90BF90AF909F908F9073
:105580007F906F9008955058BB27AA270ED06EC207
:105590002ED230F033D220F031F49F3F11F41EF4BC
:1055A000FEC10EF4E095E7FBC9C1E92F81D280F37B
:1055B000BA17620773078407950718F071F49EF510
:1055C000B0C20EF4E0950B2EBA2FA02D0B01B9013D
:1055D00090010C01CA01A0011124FF27591B99F069
:1055E000593F50F4503E68F11A16F040A22F232F75
:1055F000342F4427585FF3CF469537952795A795C5
:10560000F0405395C9F77EF41F16BA0B620B730B6B
:10561000840BBAF09150A1F0FF0FBB1F661F771FDC
:10562000881FC2F70EC0BA0F621F731F841F48F491
:10563000879577956795B795F7959E3F08F0B3CF17
:105640009395880F08F09927EE0F97958795089501
:10565000CED158F080E891E009F49EEFCFD128F048
:1056600040E851E059F45EEF09C099C15AC2E92FF0
:10567000E0781ED268F3092E052AC1F326173707F2
:105680004807590738F00E2E07F8E02569F0E025A5
:10569000E0640AC0EF6307F8009407FADB01B90180
:1056A0009D01DC01CA01AD01EF935DD0DFD10AD0CD
:1056B0005F91552331F02BED3FE049E450FD49EC7B
:1056C00063CF0895DF93DD27B92FBF7740E85FE30D
:1056D0001616170648075B0710F4D92F2DD29F9393
:1056E0008F937F936F93E6D2E8E6F0E05BD1BED173
:1056F0002F913F914F915F9132D2DD2349F0905825
:10570000A2EA2AED3FE049EC5FE3D0785D274DDF68
:10571000DF91ACC1EFD180F09F3740F491110EF4CE
:1057200001C260E070E080E89FE3089526F01B1658
:10573000611D711D811D08C122C1DCD008F481E00A
:10574000089564D1E395A3C10CD090C157D140F026
:105750004ED130F021F45F3F19F0F0C05111E2C199
:105760001EC1A6D198F39923C9F35523B1F3951B14
:10577000550BBB27AA2762177307840738F09F5F72
:105780005F4F220F331F441FAA1FA9F333D00E2EE1
:105790003AF0E0E830D091505040E695001CCAF74E
:1057A00029D0FE2F27D0660F771F881FBB1F261713
:1057B00037074807AB07B0E809F0BB0B802DBF01E6
:1057C000FF2793585F4F2AF09E3F510568F0B6C0FF
:1057D000A9C15F3FECF3983EDCF38695779567951A
:1057E000B795F7959F5FC9F7880F911D9695879597
:1057F00097F90895E1E0660F771F881FBB1F6217B6
:1058000073078407BA0720F0621B730B840BBA0B73
:10581000EE1F88F7E095089504D06894B11182C115
:1058200008954ED188F09F5790F0B92F9927B7511E
:10583000A0F0D1F0660F771F881F991F1AF0BA9554
:10584000C9F712C0B13081F06CD1B1E0089569C1DF
:10585000672F782F8827B85F39F0B93FCCF386954A
:1058600077956795B395D9F73EF4909580957095A7
:1058700061957F4F8F4F9F4F0895E89409C097FB24
:105880003EF490958095709561957F4F8F4F9F4F17
:105890009923A9F0F92F96E9BB279395F69587955B
:1058A00077956795B795F111F8CFFAF4BB0F11F41E
:1058B00060FF1BC06F5F7F4F8F4F9F4F16C08823C5
:1058C00011F096E911C0772321F09EE8872F762FFB
:1058D00005C0662371F096E8862F70E060E02AF03C
:1058E0009A95660F771F881FDAF7880F9695879528
:1058F00097F90895990F0008550FAA0BE0E8FEEFFD
:1059000016161706E807F907C0F012161306E40783
:10591000F50798F0621B730B840B950B39F40A267C
:1059200061F0232B242B252B21F408950A2609F45A
:10593000A140A6958FEF811D811D089597F99F675E
:1059400080E870E060E00895882371F4772321F007
:105950009850872B762F07C0662311F499270DC026
:105960009051862B70E060E02AF09A95660F771FC1
:10597000881FDAF7880F9695879597F908959F3FC6
:1059800049F0915028F4869577956795B7959F5F74
:1059900080389F4F880F9695879597F908959FEFC8
:1059A00080EC0895DF93CF931F930F93FF92EF92B4
:1059B000DF927B018C01689405C0DA2EEF01CFD015
:1059C000FE01E894A5912591359145915591AEF34D
:1059D000EF01EBDDFE019701A801DA9479F7DF9082
:1059E000EF90FF900F911F91CF91DF9108950024C8
:1059F0000A941616170618060906089500240A9434
:105A000012161306140605060895C9CF59D0E8F3F7
:105A1000E894EFEFBB273FE048EC5FE76B3D73078F
:105A20008407950708F1FF279F57B25A6A4D7F40B8
:105A3000894CF04032F4BE556542704F8643FF4FAB
:105A40000894EE1F915030F0BB0F661F771F881F20
:105A5000FF1FEBCF9EE7882332F0BB0F661F771F37
:105A6000881F9A95C1F79395E09589CF092E0394E5
:105A7000000C11F4882352F0BB0F40F4BF2B11F43B
:105A800060FF04C06F5F7F4F8F4F9F4F0895EF936C
:105A9000E0FF06C0A2EA2AED3FE049EC5FEB85DDBE
:105AA000E5DF0F90039401FC9058E5E9F0E010C1A8
:105AB00057FD9058440F551F59F05F3F71F04795BF
:105AC000880F97FB991F61F09F3F79F087950895A4
:105AD000121613061406551FF2CF4695F1DF08C0C3
