:100000000C94BC010C94E4010C94E4010C94E40104
:100010000C94E4010C94E4010C94E4010C94E401CC
:100020000C94E4010C94E4010C94A1290C94282A6A
:100030000C94E4010C94E4010C94E4010C94E401AC
:100040000C94E4010C94E4010C94E4010C94E4019C
:100050000C94E4010C94E4010C94E4010C94D72179
:100060000C94E4010C94E4010C94E4010C94E4017C
:100070000C94E4010C94E4010C94E4010C94E4016C
:100080000C94E4010C94E4010C94E4010C94E4015C
:100090000C94E4010C94E4010C94E4010C94E4014C
:1000A0000C94E4010C94E4010C94E401084AD73B5D
:1000B0003BCE016E84BCBFFDC12F3D6C74319ABD37
:1000C00056833DDA3D00C77F11BED9E4BB4C3E915B
:1000D0006BAAAABE000000803F05A84CCDB2D44E4A
:1000E000B93836A9020C50B9918688083CA6AAAA4C
:1000F0002ABE000000803F00000000240027002AE4
:10010000002D00300000000000250028002B002EEC
:10011000003100000000002300260029002C002FE1
:10012000000404040404030405020202020403029E
:10013000020202060606060606040402020204047F
:1001400008020110408040102040804080080204D6
:10015000018040201002011080102040400000006B
:100160000200080E0000030401000B000000000064
:100170000000000000000000000000070605040168
:1001800000080A0B0C0D09080B000202020100090D
:1001900004000001020200000524001001052401F2
:1001A000010104240206052406000107058103104D
:1001B000004009040100020A000000070502024095
:1001C00000000705830240000004030904220341E4
:1001D0000072006400750069006E006F0020004C22
:1001E0000065006F006E006100720064006F00180F
:1001F00003410072006400750069006E006F00200A
:10020000004C004C0043001201000200000040417D
:1002100023368000010102000112010002020000E9
:10022000404123368000010102000100C18081C1EC
:1002300005010902A1010901A100850105091901B2
:1002400029031500250195037501810295017505A6
:10025000810305010930093109381581257F7508A9
:1002600095038106C0C005010906A10185020507A5
:1002700019E029E71500250175019508810295010E
:100280007508810395067508150025650507190091
:1002900029658100C0090402000103000000092152
:1002A00001010001226500070584034000010000F0
:1002B0000000000000002A2B2800000000000000C1
:1002C00000000000000000000000000000002C9E64
:1002D000B4A0A1A2A434A6A7A5AE362D3738271EF8
:1002E0001F20212223242526B333B62EB7B89F849E
:1002F00085868788898A8B8C8D8E8F909192939436
:1003000095969798999A9B9C9D2F3130A3AD350473
:1003100005060708090A0B0C0D0E0F101112131415
:1003200015161718191A1B1C1DAFB1B0B500494E90
:1003300046494E4954594E414ECDCCCC3D0AD72367
:100340003C17B7D13877CC2B329595E6241FB14FA7
:100350000A000020410000C84200401C4620BCBEEC
:100360004CCA1B0E5AAEC59D7400A303FB0D051CA1
:10037000C024DD28012FFE1B11241FBECFEFDAE0C1
:10038000DEBFCDBF13E0A0E0B1E0E0E3F9E602C0DC
:1003900005900D92A43FB107D9F716E0A4EFB3E0A2
:1003A00001C01D92A233B107E1F713E0C6E7D3E025
:1003B00004C02297FE010E944534CA36D107C9F70E
:1003C0000E948B250C948B340C940000A0E0B0E0CC
:1003D000ECEEF1E00C945A34EC015B01611571050F
:1003E00019F0FB0191838083F9908F2D90E00E949A
:1003F0004934892BC9F7FDE2FF1621F4F990EE2468
:10040000E39405C02BE2F21609F4F990EE248E0174
:1004100001501040C8016EE273E043E050E00E94DA
:100420004603892B01F58E010E5F1F4FC80161E362
:1004300073E045E050E00E944603892B19F48E01D9
:10044000095F1F4FA114B10419F0F5011183008356
:10045000E0FC04C070E090E080E814C070E090E040
:1004600080E86FEF08C1C80166E373E043E050E045
:100470000E944603892B69F4A114B10429F470E0A9
:1004800090E080EC6FE7F7C02296F501D183C0833E
:10049000F6CF8824992440E050E060E070E0EF2D32
:1004A000E053EA30A0F5F2E0EF2A8E2D90E09C01B7
:1004B00028703070E2FE06C0232B79F50894811C69
:1004C000911C2BC0232B19F0089481089108DB01A3
:1004D000CA0112E0880F991FAA1FBB1F1A95D1F7F6
:1004E000480F591F6A1F7B1F440F551F661F771F38
:1004F0004E0F511D611D711D483929E9520729E927
:10050000620729E1720748F084E0E82A06C0EE3F5E
:1005100031F4E3FC39C098E0E92AF990C0CFE53323
:1005200011F0E53189F529912D3219F4E0E1EE2A37
:1005300005C02B3219F081E090E003C0299182E0E0
:1005400090E0E22FE053EA3018F0C81BD90B1CC032
:1005500020E030E0FCE020383F075CF4C901880F60
:10056000991F880F991F280F391F220F331F2E0F35
:10057000311DE991E053EA3068F3E4FE03C03095A1
:1005800021953F4F820E931ECE2CDD24E1FE07C045
:10059000A114B10421F02197F501D183C083CB01CF
:1005A000BA010E9484317B018C01F3E0CF22DD246B
:1005B00023E0C216D10421F417FB109517F910950A
:1005C00057016801C801B70120E030E040E050E089
:1005D0000E94E430882309F44AC097FE0DC02DE440
:1005E000E22E23E0F22E9094819491089394C0E23D
:1005F000D0E000E010E012C095E6E92E93E0F92E7D
:10060000F6CFF7012591359145915491C601B50179
:100610000E94EA325B016C018C1A9D0A8C169D06C1
:1006200084F7D595C7950F5F1F4F0630110529F048
:100630008CEF9FEFE80EF91EF1CFC501D6017C01CA
:100640008D018C2D880F8D2D881F8F3F51F0C60195
:10065000B50120E030E040E050E00E94E430882323
:1006600031F482E290E090933106809330067E2D43
:100670009F2D802F612F272F392F482F562FB901FB
:10068000CA01CDB7DEB7ECE00C947634FB01DC0197
:100690004150504088F08D9181341CF08B350CF422
:1006A000805E659161341CF06B350CF4605E861BD6
:1006B000611171F3990B0895881BFCCFFB01DC01DC
:1006C00002C001900D9241505040D8F70895FB01AF
:1006D000DC0101900D920020E1F708950E94EA32BA
:1006E0000E9453319B01AC01CA01089508950895F9
:1006F0000895089508950895883549F44093500465
:1007000050935104609352047093530408958935B3
:1007100049F44093540450935504609356047093E5
:10072000570408958A3541F440935804509359046E
:1007300060935A0470935B040895909369048093C6
:10074000680408950895EF92FF920F931F938AE62D
:1007500094E064E170E042E050E023E030E004E047
:1007600010E0F5E0EF2EF12C0E949C2184E894E04B
:1007700064E170E046E050E027E030E008E010E09F
:10078000E9E0EE2EF12C0E949C211F910F91FF9029
:10079000EF9008958E5F9F4F09F00EC187E096E0BD
:1007A00060E071E00E942D2760912A0470912B0473
:1007B00087E096E04AE050E00E94FB2687E096E062
:1007C00062E071E00E942D2760912C0470912D044D
:1007D00087E096E04AE050E00E94FB2687E096E042
:1007E00062E071E00E942D27609130047091310425
:1007F00087E096E04AE050E00E94FB2687E096E022
:1008000062E071E00E942D27609132047091330400
:1008100087E096E04AE050E00E94FB2687E096E001
:1008200062E071E00E942D2760913C0470913D04CC
:1008300087E096E04AE050E00E94FB2687E096E0E1
:1008400062E071E00E942D2760913E0470913F04A8
:1008500087E096E04AE050E00E94FB2687E096E0C1
:1008600062E071E00E942D27609136047091370498
:1008700087E096E04AE050E00E94FB2687E096E0A1
:1008800062E071E00E942D27609138047091390474
:1008900087E096E04AE050E00E94FB2687E096E081
:1008A00062E071E00E942D27609148047091490434
:1008B00087E096E04AE050E00E94FB2687E096E061
:1008C00062E071E00E942D2760914A0470914B0410
:1008D00087E096E04AE050E00E94FB2687E096E041
:1008E00062E071E00E942D2760914C0470914D04EC
:1008F00087E096E04AE050E00E94FB2687E096E021
:1009000062E071E00E942D2760914E0470914F04C7
:1009100087E096E04AE050E00E94FB2687E096E000
:1009200062E071E00E942D274091500450915104E3
:10093000609152047091530487E096E022E030E029
:100940000E94142887E096E062E071E00E942D2763
:10095000409154045091550460915604709157048D
:1009600087E096E022E030E00E94142887E096E0DD
:1009700062E071E00E942D27609168047091690423
:1009800087E096E04AE050E00E94FB2687E096E090
:1009900062E071E00E942D27609128047091290483
:1009A00087E096E04AE050E00E94FB2687E096E070
:1009B00064E071E00E942D270895CF93DF938E5F4E
:1009C0009F4F59F5C0E0D0E083E295E0BE010E9460
:1009D0007A0CFE01E650FC4F80832196C430D1058D
:1009E00099F78091FA039091FB03A091FC03B091D9
:1009F000FD0388559F44A244B24479F4C0E0D0E09E
:100A000083E295E0BE010E947A0CFE01E650FC4FA5
:100A100080832196C037D10599F7DF91CF91089552
:100A2000CF93DF932FEF8E3F9207B1F02FEF8F3FE1
:100A3000920709F445C08D5F9F4F09F050C0C0E098
:100A4000D0E083E295E0BE0140E00E94810C219657
:100A5000C037D105B1F743C088E59FE4A2E4B2E412
:100A60008093FA039093FB03A093FC03B093FD03E0
:100A7000C0E0D0E0FE01E650FC4F83E295E0BE010D
:100A800040810E94810C2196C037D10599F7409191
:100A9000FA035091FB036091FC037091FD0387E022
:100AA00096E02AE030E00E94E72687E096E048E5FD
:100AB0005FE462E472E42AE030E00E94E7260FC0BF
:100AC000C4E0D0E0FE01E650FC4F83E295E0BE01B9
:100AD00040810E94810C2196CE32D10599F7DF9199
:100AE000CF9108958AE491E062E170E00E941712CC
:100AF0008CE591E063E170E00E9417128FE691E0CF
:100B000063E170E00E94171282E891E062E170E018
:100B10000E941712089584E991E063E070E00E945A
:100B2000171288E991E063E070E00E9417128AE0F2
:100B300091E063E070E00E94171208954F925F9277
:100B40006F927F928F929F92AF92BF92CF92DF92DD
:100B5000EF92FF920F931F93CF93DF933A019C0183
:100B600043E0880F991F4A95E1F7220F331F820F48
:100B7000931F2C01CB017B0113E0EE0CFF1C1A9597
:100B8000E1F7880F991FE80EF91E00E010E043011D
:100B9000AA2497FCA094BA2CACEBCA2EA2E0DA2EC1
:100BA000CE18DF0849C08CE991E06DE070E00E944A
:100BB0001712CE15DF054CF0CC16DD0634F00E15FD
:100BC0001F051CF0C016D10604F5C801B2010E9431
:100BD000DF33892B51F0CE01B2010E94DF33892B24
:100BE00021F082E0CB3BD80781F48AEA91E068E00B
:100BF00070E00E941712C501B4010E941F2286E016
:100C000091E063E070E00E941712219682E0CC3BF5
:100C1000D80749F68DE291E06DE070E00E9417126E
:100C20008BE391E06EE070E00E9417120F5F1F4FA0
:100C300082E00C3B180719F0C0E0D0E0B4CFC0E070
:100C4000D0E073010027F7FC0095102F8CE991E0AC
:100C50006DE070E00E9417128AEA91E068E070E0AF
:100C60000E941712C801B7010E941F2286E091E07E
:100C700063E070E00E941712219682E0CC3BD80717
:100C800029F7DF91CF911F910F91FF90EF90DF90A7
:100C9000CF90BF90AF909F908F907F906F905F901C
:100CA0004F900895CF93DF93C0EBD3E004C08991B8
:100CB00060E00E94422483E0C83BD807C1F7DF917F
:100CC000CF910895BC012091280430912904211569
:100CD000310521F021303105B9F40AC0009719F42B
:100CE0008091480409C0809148040E94102308950F
:100CF000009731F480914A0460E00E9442240895F4
:100D000080914A040E9410230895BC012091280478
:100D1000309129042115310521F021303105E9F404
:100D20000DC08F3F910511F0009719F48091480490
:100D30000CC0809148040E94102308958F3F9105B4
:100D400011F0009731F480914A0461E00E9442243E
:100D5000089580914A040E9410230895DF93CF9351
:100D6000CDB7DEB72A970FB6F894DEBF0FBECDBF62
:100D7000282F19821A821B821C82FE01359686E07A
:100D8000DF011D928A95E9F790E024C0E60FF71F76
:100D900080819F5F8217F1F4DE0111969E01255F2D
:100DA0003F4F09C0E60FF71F8081882361F0803232
:100DB00051F08D939F5FE92FF0E0E417F5071CF4E5
:100DC000A217B30779F7CE01019660E070E00E94A8
:100DD000E60109C0E92FF0E0E417F507BCF260E096
:100DE00070E080E090E02A960FB6F894DEBF0FBE68
:100DF000CDBFCF91DF910895AF92BF92CF92DF9296
:100E0000EF92FF920F931F93CF93DF935C01EB015F
:100E10008A0180E50E94AE060E9453316B011616CE
:100E200017061CF0E2E3CE2ED12C84E4BE01A8010B
:100E30000E94AE060E9453317B01161617061CF065
:100E400073E0E72EF12C8DE4BE01A8010E94AE06EE
:100E50000E945331EB011616170614F0C5E0D0E0DE
:100E60000E948B0581E0A816B10431F082E0A8163B
:100E7000B10409F046C020C0C701BE01A6010E940E
:100E80009E058BE192E061E170E00E9417120E94E2
:100E900072058DE292E065E170E00E94171284E431
:100EA00092E063E070E00E94171288E492E061E152
:100EB00070E00E94171225C087E592E060E170E0C3
:100EC0000E94171288E692E061E170E00E9417121A
:100ED0008AE792E061E170E00E9417128CE892E0EC
:100EE00060E170E00E9417128DE992E065E170E028
:100EF0000E94171283EB92E065E170E00E941712E6
:100F0000DBCFDF91CF911F910F91FF90EF90DF909A
:100F1000CF90BF90AF9008951F9312E0812F61E0B2
:100F20000E94B523812F60E00E9442241F5F1E3083
:100F3000A9F782E160E00E94B52383E160E00E94AE
:100F4000B52384E160E00E94B52385E160E00E9462
:100F5000B52386E160E00E94B52387E160E00E944E
:100F6000B52388E160E00E94B52389E160E00E943A
:100F7000B5231F91089580914C0461E00E94B52330
:100F800080914E0461E00E94B52380914C0460E0A2
:100F90000E94422480914E0460E00E944224089501
:100FA000CF93DF93EC01809128049091290402975C
:100FB000029730F0CE010297029710F40E94BB070F
:100FC000D0932904C0932804DF91CF910895809194
:100FD000480461E00E94B52380914A0461E00E94C8
:100FE000B5238091480460E00E94422480914A0425
:100FF00060E00E9442240895CF93DF93C0EBD3E0DA
:1010000004C0899161E00E94B52383E0C83BD80702
:10101000C1F7DF91CF9108951092FA031092FB036C
:101020001092FC031092FD031092290410922804E0
:101030008FE690E090932B0480932A048EED90E04D
:1010400090932D0480932C048DE491E090932F04D1
:1010500080932E048FEF9FEF9093310480933004A0
:101060009093330480933204909335048093340436
:101070009093370480933604909339048093380416
:1010800090933B0480933A0490933D0480933C04F6
:1010900090933F0480933E049093410480934004D6
:1010A00090934304809342049093450480934404B6
:1010B00090934704809346048AE090E0909349041B
:1010C000809348048BE090E090934B0480934A0413
:1010D0008CE090E090934D0480934C048DE090E080
:1010E00090934F0480934E0480E090E0A0E2B2E43D
:1010F0008093500490935104A0935204B0935304EE
:101100008093540490935504A0935604B0935704CD
:101110008093580490935904A0935A04B0935B04AD
:1011200080E090E0AEE7B4E480935C0490935D04CB
:10113000A0935E04B0935F04809360049093610475
:10114000A0936204B0936304809364049093650455
:10115000A0936604B093670480E293E090936904DF
:10116000809368048EEF9FEF0E94DD040E948C073D
:101170000E94E7070E94BB070E94FC070E945206DC
:101180000895282F30E080912A0490912B0428178D
:10119000390749F460E070E0442311F461E070E045
:1011A0008AE694E00FC080912C0490912D042817BA
:1011B000390751F460E070E0442311F461E070E01D
:1011C00084E894E00E94722185E090E00E947822F9
:1011D000089597FF02C020E006C00E94D82220E0B8
:1011E000892B09F421E0822F0895CF92EF92FF928C
:1011F0000F931F93CF93DF93EB01E216F3060407DF
:10120000150759F00E94E908882381F0CC2071F479
:1012100004C080E0CC2011F40EC080E0DF91CF91BB
:101220001F910F91FF90EF90CF900895CE010E94F3
:10123000E908882371F781E0F1CF2F923F924F9216
:101240005F926F927F928F929F92AF92BF92CF9256
:10125000DF92EF92FF920F931F93DF93CF93CDB75F
:10126000DEB760970FB6F894DEBF0FBECDBF988B88
:101270008F877A8769871A010B871C872D873E879E
:10128000DA012D913D914D915C91139714966D91DA
:101290007D918D919C91179762177307840795072D
:1012A00014F4CA01B9016093F4037093F5038093B9
:1012B000F6039093F703F10120853185428553852C
:1012C000621773078407950714F4CA01B901609384
:1012D000F4037093F5038093F6039093F70322E0F1
:1012E00030E040E050E00E941434882499245401F6
:1012F000821A930AA40AB50A1A82A985BA852D9181
:101300003D914D915C91EF85F88980819181A28119
:10131000B381281739074A075B0714F0F1E0FA8315
:101320001982A985BA8514962D913D914D915C91B4
:101330001797EF85F88984819581A681B781281751
:1013400039074A075B0714F0F1E0F983DD24A9852A
:10135000BA8518962D913D914D915C911B97EF8523
:10136000F88980859185A285B385281739074A07B2
:101370005B0714F0DD24D3942B853C854D855E8579
:101380002F3F8FE3380780E0480780E058076CF074
:10139000CA01B90128EE33E040E050E00E94143465
:1013A0003093F9032093F80304C01092F9031092CC
:1013B000F8038D829E82AF82B88624013501609148
:1013C000360470913704AF85B8892D913D914D91C8
:1013D0005C91E985FA85E080F1800281138180913A
:1013E0003C0490913D04CA800E94F5088C83609172
:1013F000380470913904AF85B88914962D913D91C8
:101400004D915C911797E985FA85E480F580068116
:10141000178180913E0490913F04C9800E94F50895
:101420008B8360913A0470913B04AF85B88918961C
:101430002D913D914D915C911B97E985FA85E08452
:10144000F184028513858091400490914104CD2C54
:101450000E94F508182FFC81FF23B9F1F10180816A
:101460009181A281B381880E991EAA1EBB1E1814F9
:1014700019041A041B044CF580912A04609130046D
:101480004A810E94C1088091F4039091F503A091D4
:10149000F603B091F703881A990AAA0ABB0AEF85E6
:1014A000F88980819181A281B381FA81FF2321F0A3
:1014B0000196A11DB11D03C00197A109B109EF85D6
:1014C000F88980839183A283B383FB81FF2309F48E
:1014D00047C0F10184819581A681B7812D813E812C
:1014E0004F815885280F391F4A1F5B1F2D833E836C
:1014F0004F83588712161306140615068CF5809133
:101500002C046091320449810E94C1088091F40347
:101510009091F503A091F603B091F7032D813E81E0
:101520004F815885281B390B4A0B5B0B2D833E835B
:101530004F835887EF85F88984819581A681B7818B
:10154000F981FF2321F00196A11DB11D03C0019770
:10155000A109B109EF85F88984839583A683B783B0
:101560001123B1F1F10180859185A285B385480EE3
:10157000591E6A1E7B1E141415041604170444F524
:1015800080912E04609134044D2D0E94C1088091F9
:10159000F4039091F503A091F603B091F703481A74
:1015A000590A6A0A7B0AEF85F88980859185A285A8
:1015B000B385DD2021F00196A11DB11D05C0019765
:1015C000A109B109EF85F88980879187A287B38740
:1015D0002091F8033091F9031216130644F4B9016F
:1015E000882777FD8095982F0E941F2204C08B8545
:1015F0009C850E947822FC81FF2309F0E0CE2B819C
:10160000222309F0DCCE112309F0D9CE60960FB663
:10161000F894DEBF0FBECDBFCF91DF911F910F9128
:10162000FF90EF90DF90CF90BF90AF909F908F9002
:101630007F906F905F904F903F902F9008959F9272
:10164000AF92BF92CF92DF92EF92FF920F931F93D0
:10165000982E00D000D0882777FD8095982F20EB1A
:1016600039E040E050E0EDB7FEB721833283438399
:10167000548320E030E040E050E0B4EBEB2EF12C5E
:10168000012D112DA4EFAA2EA1E0BA2EC12CD12C30
:101690000E94712B6B017C010F900F900F900F90A7
:1016A000892D60E00E94422400EB19E00C191D090D
:1016B000000F111FC8010E947822892D61E00E944D
:1016C0004224C6010E947822892D60E00E944224B3
:1016D000C8010E9478221F910F91FF90EF90DF9038
:1016E000CF90BF90AF909F900895BC018091280447
:1016F000909129048230910519F0039771F407C085
:1017000080914C0490914D040E941F0B089580918C
:101710004E0490914F040E941F0B089520912804BD
:101720003091290437FD0BC02230310534F02430CC
:1017300031052CF40E94750B08950E9462060895ED
:10174000209128043091290437FD0BC02230310547
:1017500034F0243031052CF40E94750B08950E945A
:10176000850608950F931F930E94340C0E94040C69
:101770008A3059F40E942C0C8C010E942F0CBC0161
:10178000C8010E9417120E941C0C0E94040C8B338B
:1017900059F40E942C0C8C010E942F0CBC01C80132
:1017A0000E94AB1D0E941C0C0E940F0C892B11F093
:1017B0000E9452060E94A2031F910F9108950F9359
:1017C0001F930E94640C0E940C080E94ED100E945E
:1017D000CE1B07E016E0C8016EE173E00E941728F7
:1017E000C80161E473E00E94172887E493E063E096
:1017F00070E00E9417121F910F9108950E94B20B82
:1018000008950E94DF0B089580911F059091200597
:10181000892B11F480E0089580919E04089520E0C2
:1018200030E080912105909122058151974214F07A
:1018300021E030E0C901089580E0E82FF0E0E156B2
:10184000FB4F10828F5F8038C1F7109220051092F5
:101850001F0510929E0408958FE994E008958091E9
:101860001F0590912005089587E096E00E94762458
:1018700018161906DCF487E096E00E949D24282FB4
:1018800080939E0410922205109221058A30D9F08F
:1018900080911F0590912005FC01E156FB4F2083AC
:1018A00001969093200580931F050895809121054E
:1018B000909122050196909322058093210585E061
:1018C00090E00E947822089587E096E060E875E253
:1018D0000E94752480E0E82FF0E0E156FB4F108273
:1018E0008F5F8038C1F71092200510921F0510926B
:1018F0009E040895F999FECF72BD61BDF89A80B536
:101900000895F999FECF1FBA72BD61BD40BD0FB6F3
:10191000F894FA9AF99A0FBE08952F923F924F9237
:101920005F926F927F928F929F92AF92BF92CF926F
:10193000DF92EF92FF920F931F93DF93CF93CDB778
:10194000DEB76C970FB6F894DEBF0FBECDBF6C014B
:1019500049875A876B877C871901DC011896ED90BF
:10196000FD900D911C911B978D919D910D90BC91B7
:10197000A02D8D839E83AF83B887C801B7012D81C9
:101980003E814F8158850E940A3020E030E040E4DB
:1019900050E40E94EA326D877E878F87988BF6012C
:1019A0006089718982899389A80197010E940A3010
:1019B00020E030E040E450E40E94EA322D853E858C
:1019C0004F8558890E940A30698B7A8B8B8B9C8B50
:1019D00028E030E0C20ED31ED6011496ED90FD90A3
:1019E0000D911C911797E8EFFFEFCE0EDF1ED60189
:1019F00014968D919D910D90BC91A02D89839A8311
:101A0000AB83BC83C801B70129813A814B815C81DA
:101A10000E940A3020E030E040E450E40E94EA32C4
:101A20004B015C01E0E1F0E0CE0EDF1ED601149622
:101A30006D917D918D919C911797A80197010E94BE
:101A40000A3020E030E040E450E40E94EA32A50190
:101A500094010E940A306D8B7E8B8F8B988F6985E5
:101A60007A858B859C859B01AC010E94EA322B0113
:101A70003C0129853A854B855C850E94EA32698F55
:101A80007A8F8B8F9C8FE8E0F0E0CE0EDF1ED601C0
:101A900014966D917D918D919C911797E8EEFFEFD3
:101AA000CE0EDF1E29813A814B815C810E940A3073
:101AB000A50194010E940A302D893E894F89588DD5
:101AC0000E940A30298D3A8D4B8D5C8D0E94EA323E
:101AD0007B018C016D897E898F89988DA30192018C
:101AE0000E94EA329B01AC01C801B7010E940B3091
:101AF0007B018C01C501B40129853A854B855C8544
:101B00000E94EA329B01AC01C801B7010E940B3070
:101B100029813A814B815C810E940B304B015C0131
:101B2000D60158966D917D918D919C915B972D81F9
:101B30003E814F8158850E940A302D853E854F8514
:101B400058890E940A3029893A894B895C890E9408
:101B50000A30298D3A8D4B8D5C8D0E94EA327B01D3
:101B60008C0169897A898B899C89A30192010E94E1
:101B7000EA329B01AC01C801B7010E940B307B0126
:101B80008C016D857E858F85988929853A854B8561
:101B90005C850E94EA329B01AC01C801B7010E943A
:101BA0000B302D813E814F8158850E940B30F10111
:101BB0006083718382839383C401D5018483958379
:101BC000A683B7836C960FB6F894DEBF0FBECDBF69
:101BD000CF91DF911F910F91FF90EF90DF90CF9009
:101BE000BF90AF909F908F907F906F905F904F903D
:101BF0003F902F9008958091500490915104A091AE
:101C00005204B09153048093240590932505A0932A
:101C10002605B09327058091540490915504A09116
:101C20005604B09157048093280590932905A093FA
:101C30002A05B0932B058091580490915904A091E6
:101C40005A04B0915B0480932C0590932D05A093CA
:101C50002E05B0932F0508952F923F924F925F92D9
:101C60006F927F928F929F92AF92BF92CF92DF92AC
:101C7000EF92FF920F931F93DF93CF9300D000D08A
:101C8000CDB7DEB769837A838B839C83E090480568
:101C9000F090490500914A0510914B0560904C0564
:101CA00070904D0580904E0590904F052090500506
:101CB00030905105409052055090530520916C058D
:101CC00030916D0540916E0550916F0580917005C2
:101CD00090917105A0917205B091730582179307D9
:101CE000A407B50784F4A0907405B0907505C09062
:101CF0007605D0907705A216B306C406D50694F4EF
:101D000059016A010FC0A0907405B0907505C0908C
:101D10007605D0907705A816B906CA06DB0614F436
:101D20005C016D01C801B701A80197010E94EA3268
:101D30007B018C01C401B301A40193010E94EA322A
:101D40009B01AC01C801B7010E940B307B018C01E3
:101D5000C201B101A20191010E94EA329B01AC01D2
:101D6000C801B7010E940B300E94573320EC31EEBE
:101D700044E65CE40E94EA3229813A814B815C812D
:101D80000E94EB307B018C01C601B5010E948631B7
:101D90009B01AC01C801B7010E94EB300E94533196
:101DA0009B01AC01CA010F900F900F900F90CF9143
:101DB000DF911F910F91FF90EF90DF90CF90BF9038
:101DC000AF909F908F907F906F905F904F903F90DB
:101DD0002F9008958091740590917505A0917605D6
:101DE000B0917705181619061A061B063CF460E038
:101DF00070E088E494E40E942C0E089560916804D9
:101E000070916904882777FD8095982F0E9486310C
:101E10000E942C0E0895AF92BF92CF92DF92EF9264
:101E2000FF920F931F93A0903C05B0903D05C0908A
:101E30003E05D0903F05C601B50120913005309197
:101E4000310540913205509133050E940A307B01E3
:101E50008C0120E030E040E050E00E94DF321816B4
:101E600024F017FB109517F91095E0924805F092B1
:101E7000490500934A0510934B0560914005709108
:101E800041058091420590914305209134053091A0
:101E9000350540913605509137050E940A307B0187
:101EA0008C0120E030E040E050E00E94DF32181664
:101EB00024F017FB109517F91095E0924C05F0925D
:101EC0004D0500934E0510934F05609144057091A8
:101ED0004505809146059091470520913805309140
:101EE000390540913A0550913B050E940A307B012B
:101EF0008C0120E030E040E050E00E94DF32181614
:101F000024F017FB109517F91095E0925005F09208
:101F1000510500935205109353056091240570916B
:101F200025058091260590912705A60195010E941F
:101F30006E036093600570936105809362059093D2
:101F40006305609128057091290580912A0590917B
:101F50002B0520914005309141054091420550915B
:101F600043050E946E03609364057093650580933A
:101F700066059093670560912C0570912D05809101
:101F80002E0590912F0520914405309145054091F3
:101F90004605509147050E946E037B018C016093BA
:101FA00068057093690580936A0590936B0520918D
:101FB0006005309161054091620550916305809103
:101FC000540590915505A0915605B0915705281BD1
:101FD000390B4A0B5B0B20936C0530936D054093D6
:101FE0006E0550936F0557FF0FC088279927DC01B6
:101FF000821B930BA40BB50B80936C0590936D051E
:10200000A0936E05B0936F0520916405309165052E
:10201000409166055091670580915805909159054A
:10202000A0915A05B0915B05281B390B4A0B5B0B3D
:10203000209370053093710540937205509373059A
:1020400057FF0FC088279927DC01821B930BA40B35
:10205000B50B8093700590937105A0937205B093B2
:10206000730580915C0590915D05A0915E05B0912E
:102070005F05A8019701281B390B4A0B5B0B2093C6
:10208000740530937505409376055093770557FF97
:102090000FC088279927DC01821B930BA40BB50B7B
:1020A0008093740590937505A0937605B09377059A
:1020B0001092BE0360913C0570913D0580913E05F4
:1020C00090913F05209130053091310540913205C6
:1020D000509133050E94DF3288231CF081E0809309
:1020E000BE031092BF03609140057091410580913D
:1020F000420590914305209134053091350540917A
:102100003605509137050E94DF3288231CF081E0AC
:102110008093BF031092C003609144057091450500
:1021200080914605909147052091380530913905F9
:1021300040913A0550913B050E94DF3288231CF004
:1021400081E08093C0031F910F91FF90EF90DF908B
:10215000CF90BF90AF9008950F931F938B019C0178
:1021600084E595E060E675E04CE655E00E941D09C7
:1021700080913C0590913D05A0913E05B0913F05B1
:102180008093300590933105A0933205B0933305C9
:102190008091400590914105A0914205B091430581
:1021A0008093340590933505A0933605B093370599
:1021B0008091440590914505A0914605B091470551
:1021C0008093380590933905A0933A05B0933B0569
:1021D0000E940B0F1F910F91089580E090E0A0E006
:1021E000B0E08093300590933105A0933205B09311
:1021F00033058093340590933505A0933605B0934D
:1022000037058093380590933905A0933A05B0932C
:102210003B0580933C0590933D05A0933E05B0930C
:102220003F058093400590934105A0934205B093EC
:1022300043058093440590934505A0934605B093CC
:1022400047058091500490915104A0915204B0919F
:1022500053048093240590932505A0932605B093FD
:1022600027058091540490915504A0915604B09193
:1022700057048093280590932905A0932A05B093CD
:102280002B058091580490915904A0915A04B09163
:102290005B0480932C0590932D05A0932E05B0939D
:1022A0002F050E940B0F0895AF92BF92CF92DF923D
:1022B000EF92FF920F931F935B016C0160933005C7
:1022C0007093310580933205909333052093340544
:1022D000309335054093360550933705E092380525
:1022E000F092390500933A0510933B05609124055F
:1022F000709125058091260590912705A6019501ED
:102300000E946E03609354057093550580935605A3
:1023100090935705609128057091290580912A05B1
:1023200090912B052091340530913505409136056B
:10233000509137050E946E036093580570935905BC
:1023400080935A0590935B0560912C0570912D0543
:1023500080912E0590912F052091380530913905F7
:1023600040913A0550913B050E946E0360935C05D5
:1023700070935D0580935E0590935F050E940B0F3F
:102380001F910F91FF90EF90DF90CF90BF90AF9093
:102390000895DF93CF93CDB7DEB72A970FB6F894A1
:1023A000DEBF0FBECDBF282F19821A821B821C826E
:1023B000FE01359686E0DF011D928A95E9F790E0EF
:1023C00024C0E60FF71F80819F5F8217F1F4DE01C2
:1023D00011969E01255F3F4F09C0E60FF71F8081D0
:1023E000882361F0803251F08D939F5FE92FF0E0F8
:1023F000E417F5071CF4A217B30779F7CE0101968D
:1024000060E070E00E94E60109C0E92FF0E0E41707
:10241000F507BCF260E070E080E090E02A960FB62D
:10242000F894DEBF0FBECDBFCF91DF9108952F92FC
:102430003F924F925F926F927F928F929F92AF9254
:10244000BF92CF92DF92EF92FF920F931F93DF9391
:10245000CF93CDB7DEB7CB55D0400FB6F894DEBFE3
:102460000FBECDBF4C013B01DC018C918F3211F4CA
:102470000C94691B873439F0883529F0893519F0B7
:102480008A3509F053C687E4B401A3010E94C9113B
:102490000E9453312C966FAF2C976430C8F065962C
:1024A0001FAE659766961FAE669767961FAE6797D5
:1024B00068961FAE68970F2EF0E02F2EF0E03F2EAB
:1024C000F0E04F2EF0E05F2EF02D6201510183C04D
:1024D00080917805882309F441C090E006C0E80D9A
:1024E000F91D8081883541F09F5FE92FF0E0E61506
:1024F000F705ACF30C94891B88E5B401A3010E9495
:10250000C9115B016C0190E006C0E80DF91D8081E6
:10251000893541F09F5FE92FF0E0E615F705ACF350
:102520000C94931B89E5B401A3010E94C9111B01FE
:102530002C0190E006C0E80DF91D80818A3541F03C
:102540009F5FE92FF0E0E615F705ACF30C949D1BB7
:102550008AE5B401A3010E94C91131C088E5B40124
:10256000A3010E94C911209130053091310540919D
:102570003205509133050E940B305B016C0189E5F7
:10258000B401A3010E94C911209134053091350591
:1025900040913605509137050E940B301B012C01EC
:1025A0008AE5B401A3010E94C91120913805309138
:1025B000390540913A0550913B050E940B306596D4
:1025C0006FAF659766967FAF669767968FAF679791
:1025D00068969FAF68978CE4B401A3010E94C9116B
:1025E0000E94533170937A05609379051616170689
:1025F0001CF4CB010E94A00B2C96EFAD2C97E4317C
:1026000009F421C4E53168F4E43020F4E23008F044
:10261000A3C023C02C96FFAD2C97F43009F064C5FD
:1026200004C42C962FAD2C972E3109F4A3C42F315E
:1026300038F4253109F43CC42C3109F055C577C470
:102640002C963FAD2C973B3509F440C53C3509F439
:1026500040C53A3509F048C535C5A0923C05B09251
:102660003D05C0923E05D0923F0520924005309234
:102670004105409242055092430565962FAD6597FE
:1026800066963FAD669767964FAD679768965FAD64
:102690006897C901DA018093440590934505A0939A
:1026A0004605B09347050E940B0F90E006C0E80D69
:1026B000F91D8081873439F09F5FE92FF0E0E6153E
:1026C000F705ACF31FC02C968FAD2C97813089F5A0
:1026D00086E4B401A3010E94C9110E9453319B01F9
:1026E000161617067CF4B901882777FD8095982F78
:1026F0000E94863160937B0570937C0580937D05F5
:1027000090937E05E0907B05F0907C0500917D051F
:1027100010917E05C801B70120E030E040E050E0B4
:102720000E94DF3218162CF4C801B7010E942C0E4B
:1027300002C00E94EA0E60937F057093800580932B
:1027400081059093820560917F057091800580914D
:102750008105909182050BC482E4B401A3010E941B
:10276000C9110E9453316330710509F09EC18091F7
:10277000300590913105A0913205B09133058987DC
:102780009A87AB87BC878091340590913505A091DD
:102790003605B09137058D879E87AF87B88B81E668
:1027A000B401A3010E94C911698B7A8B8B8B9C8B1E
:1027B00082E6B401A3010E94C9116D8B7E8B8F8BC1
:1027C000988F83E6B401A3010E94C911698F7A8FA3
:1027D0008B8F9C8F84E6B401A3010E94C9116D8F79
:1027E0007E8F8F8F98A385E6B401A3010E94C91143
:1027F00069A37AA38BA39CA386E6B401A3010E94DC
:10280000C9116DA37EA38FA398A7E984FA840B85D1
:102810001C858D859E85AF85B88989A79AA7ABA7AA
:10282000BCA72B961FAE1EAE2B970F2EF0E02F2EBF
:10283000F0E03F2EF0E04F2EF0E05F2EF02D2B96D3
:10284000AEADBFAD2B97BD01882777FD8095982F42
:102850000E94863129E33EE843EE5DE30E94EA32BE
:10286000AB01BC01CE0109969E012F5F3F4F0E9434
:102870008D0C89819A81AB81BC8129968CAF9DAFEB
:10288000AEAFBFAF2997C801B70129962CAD3DADBA
:102890004EAD5FAD29970E940A305B016C018D81BE
:1028A0009E81AF81B88525968CAF9DAFAEAFBFAF8F
:1028B000259769A57AA58BA59CA525962CAD3DAD40
:1028C0004EAD5FAD25970E940A307B018C01C60199
:1028D000B501A60195010E94EA325B016C01C801B5
:1028E000B701A80197010E94EA329B01AC01C60121
:1028F000B5010E940B307B018C0120E030E040E00C
:1029000050E00E94DF32181664F4C801B7010E943B
:1029100057339B01AC01C201B1010E940B301B0176
:102920002C012B96AEADBFAD2B9711962B96BFAF5A
:10293000AEAF2B971A9789F02996ECACFDAC0EAD93
:102940001FAD299725968CAD9DADAEADBFAD25973A
:1029500089A79AA7ABA7BCA772CFC201B1012091EA
:10296000B8033091B9034091BA035091BB030E9460
:10297000EB300E94D1300E9453316B0192E0C916B6
:10298000D1041CF482E0C82ED12C0894C108D108CF
:10299000B601882777FD8095982F0894C11CD11C1B
:1029A0000E9486319B01AC0160E070E080E89FE30B
:1029B0000E94EB301B012C01AA24BB24B5018827FF
:1029C00077FD8095982F0E948631A20191010E9487
:1029D000EA32AB01BC01CE0109969E012F5F3F4F49
:1029E0000E948D0C2D813E814F81588589819A816D
:1029F000AB81BC8180933C0590933D05A0933E053F
:102A0000B0933F0520934005309341054093420524
:102A10005093430565962FAD659766963FAD6697D3
:102A200067964FAD679768965FAD6897C901DA0101
:102A30008093440590934505A0934605B0934705C0
:102A40000E940B0FE0907B05F0907C0500917D05C6
:102A500010917E05C801B70120E030E040E050E071
:102A60000E94DF3218162CF4C801B7010E942C0E08
:102A700002C00E94EA0E60937F05709380058093E8
:102A800081059093820560917F057091800580910A
:102A90008105909182050E94AC100894A11CB11C84
:102AA000AC14BD040CF48ACF36C389E4B401A3018D
:102AB0000E94C911209130053091310540913205B5
:102AC000509133050E940B3064966CAF7DAF8EAF92
:102AD0009FAF64978AE4B401A3010E94C911E090FA
:102AE0003405F09035050091360510913705A801A1
:102AF00097010E940B3060966CAF7DAF8EAF9FAF99
:102B00006097609130057091310580913205909108
:102B1000330564962CAD3DAD4EAD5FAD64970E941C
:102B20000A306DAB7EAB8FAB98AFC801B701609632
:102B30002CAD3DAD4EAD5FAD60970E940A3069ABE4
:102B40007AAB8BAB9CABC601B50164962CAD3DADA9
:102B50004EAD5FAD64970E940A305B016C01C2010B
:102B6000B10160962CAD3DAD4EAD5FAD60970E945A
:102B70000A307B018C012C96AFAD2C97A230A1F4CA
:102B8000C8019501A6010E947E3021966CAF7DAFF1
:102B90008EAF9FAF219769A97AA98BA99CA92DA96E
:102BA0003EA94FA958AD14C069A97AA98BA99CA9BF
:102BB0002DA93EA94FA958AD0E947E3021966CAF39
:102BC0007DAF8EAF9FAF2197B701C8019501A601D8
:102BD0000E947E307B018C0121962CAD3DAD4EAD27
:102BE0005FAD21970E94E430181654F0C801B70178
:102BF0002BED3FE049EC50E40E940B307B018C014F
:102C0000C801B70121962CAD3DAD4EAD5FAD21970A
:102C10000E940A3069AF7AAF8BAF9CAF6DA97EA9D5
:102C20008FA998AD9B01AC010E94EA327B018C0117
:102C300069A97AA98BA99CA99B01AC010E94EA32DF
:102C40009B01AC01C801B7010E940B300E945733B1
:102C50001B012C0129AD3AAD4BAD5CAD0E94EA32AF
:102C60002091B8033091B9034091BA035091BB034E
:102C70000E94EB300E94D1300E94533178AB6FA795
:102C8000E1E0F0E0FEA7EDA7CB01AA2797FDA09514
:102C9000BA2F6C968CAF9DAFAEAFBFAF6C97BCC078
:102CA0002C969FAD2C97933019F42DA53EA506C008
:102CB0002FA538A9ADA5BEA52A1B3B0BB9018827B6
:102CC00077FD8095982F0E9486317B018C016C9650
:102CD0006CAD7DAD8EAD9FAD6C970E9486319B0132
:102CE000AC01C801B7010E94EB309B01AC0169AD9A
:102CF0007AAD8BAD9CAD0E94EA329B01AC0121966E
:102D00006CAD7DAD8EAD9FAD21970E940B307B01E8
:102D10008C01C8010E94E8305B016C01B701C80159
:102D20000E944D337B018C01C201B101A6019501C6
:102D30000E94EA329B01AC0164966CAD7DAD8EAD14
:102D40009FAD64970E940B3060933C0570933D05E6
:102D500080933E0590933F05C201B101A801970100
:102D60000E94EA329B01AC0160966CAD7DAD8EADE8
:102D70009FAD60970E940B306093400570934105B2
:102D8000809342059093430565962FAD65976696AF
:102D90003FAD669767964FAD679768965FAD68974A
:102DA000C901DA018093440590934505A093460537
:102DB000B09347050E940B0FE0907B05F0907C05D7
:102DC00000917D0510917E05C801B70120E030E03B
:102DD00040E050E00E94DF3218162CF4C801B70121
:102DE0000E942C0E02C00E94EA0E60937F05709331
:102DF0008005809381059093820560917F05709195
:102E0000800580918105909182050E94AC10EDA50E
:102E1000FEA53196FEA7EDA72DA53EA58FA598A9E5
:102E2000821793070CF03CCF76C180E5B401A30173
:102E30000E94C9110E945331882777FD8095982FF1
:102E40000E941F2268C180915C0490915D04A09152
:102E50005E04B0915F048093240590932505A093B0
:102E60002605B09327058091600490916104A0919C
:102E70006204B09163048093280590932905A09380
:102E80002A05B0932B058091640490916504A0916C
:102E90006604B091670480932C0590932D05A09350
:102EA0002E05B0932F0589E092E0A1E8BBE334C082
:102EB0008091500490915104A0915204B091530418
:102EC0008093240590932505A0932605B0932705AC
:102ED0008091540490915504A0915604B0915704E8
:102EE0008093280590932905A0932A05B0932B057C
:102EF0008091580490915904A0915A04B0915B04B8
:102F000080932C0590932D05A0932E05B0932F054B
:102F10008DEC9CECACECBDE38093B8039093B903CB
:102F2000A093BA03B093BB030E940B0FF4C080E0E0
:102F300090E0A0E0B0E080933C0590933D05A09325
:102F40003E05B0933F058093400590934105A093C3
:102F50004205B09343058093440590934505A093A3
:102F60004605B09347050E940B0F0E94EA0E0E948F
:102F7000AC10D1C088E5B401A3010E94C9111B01A6
:102F80002C0189E5B401A3010E94C9117B018C01C8
:102F90008AE5B401A3010E94C9115B016C01809113
:102FA0007805882309F443C090E006C0E80DF91DB8
:102FB0008081883539F09F5FE92FF0E0E615F7054D
:102FC000ACF3D1C390E006C0E80DF91D80818935CE
:102FD00039F09F5FE92FF0E0E615F705ACF3CCC3BD
:102FE00090E006C0E80DF91D80818A3539F09F5FB9
:102FF000E92FF0E0E615F705ACF3C7C320923C05D6
:1030000030923D0540923E0550923F05E0924005CA
:10301000F09241050093420510934305A0924405A8
:10302000B0924505C0924605D092470544C0C801FC
:10303000B701209134053091350540913605509106
:1030400037050E940B307B018C01C601B501209130
:1030500038053091390540913A0550913B050E9461
:103060000B305B016C0160913005709131058091EE
:10307000320590913305A20191010E940B306093BB
:103080003C0570933D0580933E0590933F05C70135
:10309000D8018093400590934105A0934205B093D9
:1030A0004305C501D6018093440590934505A0933F
:1030B0004605B09347050E940B0F0E94EA0E0E943E
:1030C000AC1035CF81E08093780525C0109278054B
:1030D00022C060E070E080E090E09B01AC017B01E9
:1030E0008C010E94541117C087E096E06EE473E0F3
:1030F0000E942D2787E096E02C966FAD2C974AE032
:1031000050E00E94772687E096E06AE070E04AE0AF
:1031100050E00E940E278091790590917A0518164B
:10312000190624F480E090E00E948E0BD4018C916B
:103130008D3409F041C0B401A3010E94C9110E945D
:1031400058317B018C01633019F06530B1F410C047
:103150008CE4B401A3010E94C9110E945331DC0127
:10316000CB019093BD038093BC030E94A00B12C0BF
:1031700080E090E00E948E0B0DC087E096E067E54E
:1031800073E00E942D2787E096E06E2D4AE050E024
:103190000E94892680E5B401A3010E94C9110E9402
:1031A00053319B01161617063CF4B901882777FDA9
:1031B0008095982F0E941F22F4018081843569F444
:1031C000B401A3010E94C9110E945831DC01CB0156
:1031D00090E0B401A3010E94FC06D4018C918432DA
:1031E00009F077C2B401A3010E94C9110E945831AD
:1031F000653009F46FC1663070F4623039F16330C4
:1032000020F4613009F065C223C06330E9F0643016
:1032100009F05FC217C0683079F0693030F4663069
:1032200079F0673009F055C209C0693009F4F3C17B
:10323000653109F04EC226C290E0BFC190E0A3C143
:1032400090E05AC190E0FCC090E0AAC090E058C065
:1032500090E006C0E80DF91D8081883539F09F5F48
:10326000E92FF0E0E615F705ACF30DC088E5B401F1
:10327000A3010E94C9110E9453319B01AC0188E552
:10328000B9010E94760390E006C0E80DF91D808127
:10329000893539F09F5FE92FF0E0E615F705ACF3CB
:1032A0000DC089E5B401A3010E94C9110E945331E8
:1032B0009B01AC0189E5B9010E94760390E006C04C
:1032C000E80DF91D80818A3539F09F5FE92FF0E024
:1032D000E615F705ACF3FDC18AE5B401A3010E9430
:1032E000C9110E9453319B01AC018AE5B9010E94CA
:1032F0007603EFC1E80DF91D8081883539F09F5FB5
:10330000E92FF0E0E615F705ACF30DC088E5B40150
:10331000A3010E94C9110E9453319B01AC0188E5B1
:10332000B9010E94770390E006C0E80DF91D808185
:10333000893539F09F5FE92FF0E0E615F705ACF32A
:103340000DC089E5B401A3010E94C9110E94533147
:103350009B01AC0189E5B9010E94770390E006C0AA
:10336000E80DF91D80818A3539F09F5FE92FF0E083
:10337000E615F705ACF3ADC18AE5B401A3010E94DF
:10338000C9110E9453319B01AC018AE5B9010E9429
:1033900077039FC1E80DF91D8081883539F09F5F63
:1033A000E92FF0E0E615F705ACF30DC088E5B401B0
:1033B000A3010E94C9110E9453319B01AC0188E511
:1033C000B9010E94780390E006C0E80DF91D8081E4
:1033D000893539F09F5FE92FF0E0E615F705ACF38A
:1033E0000DC089E5B401A3010E94C9110E945331A7
:1033F0009B01AC0189E5B9010E94780390E006C009
:10340000E80DF91D80818A3539F09F5FE92FF0E0E2
:10341000E615F705ACF35DC18AE5B401A3010E948E
:10342000C9110E9453319B01AC018AE5B9010E9488
:1034300078034FC1E80DF91D8081883539F09F5F11
:10344000E92FF0E0E615F705ACF30DC088E5B4010F
:10345000A3010E94C9110E9453319B01AC0188E570
:10346000B9010E94790390E006C0E80DF91D808142
:10347000893539F09F5FE92FF0E0E615F705ACF3E9
:103480000DC089E5B401A3010E94C9110E94533106
:103490009B01AC0189E5B9010E94790390E006C067
:1034A000E80DF91D80818A3539F09F5FE92FF0E042
:1034B000E615F705ACF30DC18AE5B401A3010E943E
:1034C000C9110E9453319B01AC018AE5B9010E94E8
:1034D0007903FFC08DE6B401A3010E94C9110E94C7
:1034E0005331DC01CB010E94D007F3C0E80DF91D78
:1034F0008081883539F09F5FE92FF0E0E615F70508
:10350000ACF30AC088E5B401A3010E94C911AB0164
:10351000BC0188E50E947C0390E006C0E80DF91D1F
:103520008081893539F09F5FE92FF0E0E615F705D6
:10353000ACF30AC089E5B401A3010E94C911AB0133
:10354000BC0189E50E947C0390E006C0E80DF91DEE
:1035500080818A3539F09F5FE92FF0E0E615F705A5
:10356000ACF322C08AE5B401A3010E94C911AB01EA
:10357000BC018AE50E947C0317C0E80DF91D80811B
:10358000863439F09F5FE92FF0E0E615F705ACF3DC
:10359000A0C086E4B401A3010E94C9110E94533166
:1035A000DC01CB010E949D030E94ED1092C0E80D4A
:1035B000F91D8081813439F09F5FE92FF0E0E61535
:1035C000F705ACF30DC081E4B401A3010E94C91159
:1035D0000E9453319B01AC0181E4B9010E947A033E
:1035E00090E006C0E80DF91D8081823439F09F5FBC
:1035F000E92FF0E0E615F705ACF30DC082E4B40165
:10360000A3010E94C9110E9453319B01AC0182E4C5
:10361000B9010E947A0390E006C0E80DF91D80818F
:10362000813439F09F5FE92FF0E0E615F705ACF340
:103630000DC081E4B401A3010E94C9110E9453315D
:103640009B01AC0181E4B9010E947B0390E006C0BC
:10365000E80DF91D8081823439F09F5FE92FF0E099
:10366000E615F705ACF335C082E4B401A3010E946E
:10367000C9110E9453319B01AC0182E4B9010E943F
:103680007B0327C08CE4B401A3010E94C9110E94EE
:1036900053316115710519F0CB010E94DD0483E5FA
:1036A000B401A3010E94C9110E9453316115710533
:1036B00019F0CB010E94100580E5B401A3010E941E
:1036C000C9110E9453316115710519F0CB010E9497
:1036D000CA0387E096E06BE473E00E941728C55A9E
:1036E000DF4F0FB6F894DEBF0FBECDBFCF91DF9195
:1036F0001F910F91FF90EF90DF90CF90BF90AF9010
:103700009F908F907F906F905F904F903F902F9001
:103710000895A0903005B0903105C0903205D0904A
:1037200033050C9483122090340530903505409079
:103730003605509037050C949912B091380565966E
:10374000BFAF6597E09139056696EFAF6697F09148
:103750003A056796FFAF679720913B0568962FAFB4
:1037600068970C94EB122090300530903105409012
:1037700032055090330526CCE0903405F0903505A5
:1037800000913605109137052BCCA0903805B090EC
:103790003905C0903A05D0903B0530CC10929A057F
:1037A00010929B0510929C0510929D051092A60503
:1037B0001092A7051092A8051092A9051092B205C3
:1037C0001092B3051092B4051092B505089581309A
:1037D000910551F46F5F7F4F81F48BE895E060E6CF
:1037E00073E00E94782C0895892B39F46F5F7F4F26
:1037F00021F48BE895E00E94AB2C089580E090E0E6
:103800006FEF7FEF0E94E71B089581E090E06FEF7C
:103810007FEF0E94E71B0895EF92FF920F931F9393
:10382000CF93DF93EC0110929205109293051092C2
:103830009405109295051092960510929705109296
:1038400098051092990510929E0510929F0510926E
:10385000A0051092A105E0905404F0905504009149
:10386000560410915704BE01882777FD8095982F44
:103870000E9486312DEC3CEC4CEC5DE30E94EA3278
:103880009B01AC01C801B7010E946E0322273327B8
:10389000A901261B370B480B590B2093A205309327
:1038A000A3054093A4055093A5051092AA05109274
:1038B000AB051092AC051092AD052093AE05309388
:1038C000AF054093B0055093B10557FF0FC088274F
:1038D0009927DC01821B930BA40BB50B8093AE05DB
:1038E0009093AF05A093B005B093B1058091B60554
:1038F0009091B705A091B805B091B90518161906B1
:103900001A061B0684F08091680490916904AA2726
:1039100097FDA095BA2F8093B6059093B705A09315
:10392000B805B093B9059E01D7FF03C03095219526
:103930003F4FB901882777FD8095982F0E948631E7
:103940002DEC3CEC4CEC5DE30E94EA3220EC31EED5
:1039500044E65CE40E94EA327B018C016091B6058A
:103960007091B7058091B8059091B9050E94863194
:103970009B01AC01C801B7010E94EB3020E030E0B0
:1039800040E050E00E94EB300E9453318B019C01DB
:1039900082E995E06EE975E04AEA55E00E941D096A
:1039A000DF91CF911F910F91FF90EF900895AF920B
:1039B000BF92CF92DF92EF92FF920F931F93CF931C
:1039C000DF93EC01109292051092930510929405EA
:1039D00010929505109296051092970510929805F1
:1039E00010929905E0905004F09051040091520417
:1039F00010915304BE01882777FD8095982F0E946F
:103A000086312DEC3CEC4CEC5DE30E94EA329B01EC
:103A1000AC01C801B7010E946E0390958095709526
:103A200061957F4F8F4F9F4F60939E0570939F05C9
:103A30008093A0059093A1051092A2051092A30572
:103A40001092A4051092A5055B016C0197FF08C0B8
:103A5000D094C094B094A094A11CB11CC11CD11CE2
:103A6000A092AA05B092AB05C092AC05D092AD056C
:103A70001092AE051092AF051092B0051092B105EC
:103A80008091B6059091B705A091B805B091B905A0
:103A9000181619061A061B0684F080916804909186
:103AA0006904AA2797FDA095BA2F8093B605909335
:103AB000B705A093B805B093B9059E01D7FF03C021
:103AC000309521953F4FB901882777FD8095982F34
:103AD0000E9486312DEC3CEC4CEC5DE30E94EA3216
:103AE00020EC31EE44E65CE40E94EA327B018C017A
:103AF0006091B6057091B7058091B8059091B905B0
:103B00000E9486319B01AC01C801B7010E94EB30D5
:103B10007B018C01C601B5010E9486319B01AC017D
:103B2000C801B7010E94EB300E9453318B019C0108
:103B300082E995E06EE975E04AEA55E00E941D09C8
:103B4000DF91CF911F910F91FF90EF90DF90CF9079
:103B5000BF90AF9008952F923F924F925F926F92D5
:103B60007F928F929F92AF92BF92CF92DF92EF920D
:103B7000FF920F931F93CF93DF934C015B01CC24F3
:103B8000DD2433E0632E712C21E0422E512C92E093
:103B9000292E312C4DC3F401EC0DFD1D10818BE855
:103BA00095E0612F0E94322C133509F441C0143581
:103BB00054F41C3409F44BC01D3409F45CC01B33AD
:103BC00009F06BC008C01835A9F0193511F1153589
:103BD00009F063C03FC010928405109283058BE802
:103BE00095E060E673E00E94922C87E096E061E643
:103BF00073E051C050928405409283058BE895E0B4
:103C000060E673E00E94922C87E096E064E673E041
:103C100042C030928405209283058BE895E060E6EF
:103C200073E00E94922C87E096E06AE673E033C06E
:103C300070928405609283058BE895E060E673E0FE
:103C40000E94922C87E096E060E773E024C084E055
:103C500090E002C085E090E0909384058093830516
:103C60008BE895E060E673E00E94922C87E096E096
:103C700066E773E010C087E090E09093840580933E
:103C800083058BE895E060E673E00E94922C87E064
:103C900096E06CE773E00E9417288091830590916D
:103CA00084058330910509F498C1843091051CF492
:103CB00001976CF4AEC28530910509F4DEC0853001
:103CC00091050CF401C2079709F0A3C259C2809173
:103CD0008F0590919005059709F09BC28BE895E0C0
:103CE00060E070E00E94BA2BFC01E0818E2F8053CF
:103CF0008A3028F4EE2EFF2480ED9FEF0CC08E2F2B
:103D00008154863020F0EE24EA94FE2C06C0EE2E7C
:103D1000FF2489EC9FEFE80EF91E8BE895E061E047
:103D200070E00E94BA2BFC01E0818E2F80538A3014
:103D300028F40E2F10E0005310400BC08E2F81543A
:103D4000863018F00FEF1FEF04C00E2F10E007535E
:103D500010408BE895E062E070E00E94BA2BFC0115
:103D6000E0818E2F80538A3020F4CE2FD0E0E09770
:103D70000AC08E2F8154863018F0CFEFDFEF03C0DA
:103D8000CE2FD0E0E7978BE895E063E070E00E94EB
:103D9000BA2BFC01E0818E2F80538A3018F4F0E0BA
:103DA000F09709C08E2F8154863018F0EFEFFFEFA7
:103DB00002C0F0E0F797902F8827FE2CEE24F294B3
:103DC00000EFF0228E299F2914E0CC0FDD1F1A95F9
:103DD000E1F78C2B9D2B8E2B9F2B90938605809348
:103DE00085058BE895E064E070E00E94BA2BFC0149
:103DF000E0818E2F80538A3020F48E2F90E0C09780
:103E000007C08E2F8154863040F48E2F90E0C797E4
:103E1000892B19F42FEF3FEF02C021E030E08091B1
:103E20008305909184054091850550918605019701
:103E300051F4249FC001259F900D349F900D1124B3
:103E40000E94D71C09C0249FC001259F900D349F5C
:103E5000900D11240E940C1C8BE895E060E673E045
:103E60000E94922C87E096E062E873E00E942D2782
:103E7000609185057091860520C180918F05909194
:103E80009005049709F0C5C18BE895E060E070E00B
:103E90000E94BA2BFC01E0818E2F80538A3028F4D7
:103EA000EE2EFF2480ED9FEF0CC08E2F81548630C4
:103EB00020F0EE24EA94FE2C06C0EE2EFF2489ECBE
:103EC0009FEFE80EF91E8BE895E061E070E00E943C
:103ED000BA2BFC01E0818E2F80538A3028F40E2FFC
:103EE00010E0005310400BC08E2F8154863018F024
:103EF0000FEF1FEF04C00E2F10E0075310408BE8A8
:103F000095E062E070E00E94BA2BFC01E0818E2F08
:103F100080538A3020F4CE2FD0E0E0970AC08E2F55
:103F20008154863018F0CFEFDFEF03C0CE2FD0E002
:103F3000E7978BE895E063E070E00E94BA2BFC0104
:103F4000E0818E2F80538A3018F4F0E0F09709C09A
:103F50008E2F8154863018F0EFEFFFEF02C0F0E0B3
:103F6000F797902F8827FE2CEE24F294A0EFFA22E8
:103F70008E299F2974E0CC0FDD1F7A95E1F78C2BF9
:103F80009D2B8E2B9F2B90938805809387058BE824
:103F900095E060E673E00E94922C87E096E068E886
:103FA00073E00E942D27609187057091880587E056
:103FB00096E04AE050E00E940E272091870530915C
:103FC0008805121613060CF024C1B901882777FD65
:103FD0008095982F0E941F221CC180918F0590917F
:103FE0009005029709F015C18BE895E060E070E05C
:103FF0000E94BA2BFC01E0818E2F80538A3020F47E
:10400000CE2FD0E0E0970AC08E2F8154863018F072
:10401000CFEFDFEF03C0CE2FD0E0E7978BE895E03E
:1040200061E070E00E94BA2BFC01E0818E2F80538A
:104030008A3020F48E2F90E0C0970AC08E2F8154D2
:10404000863018F08FEF9FEF03C08E2F90E0C79758
:10405000FE0164E0EE0FFF1F6A95E1F7E82BF92BF4
:10406000F093C203E093C1031E161F06B4F4CF0100
:1040700053E0880F991F5A95E1F7EE0FFF1F8E0F3F
:104080009F1FAA2797FDA095BA2F8093B6059093FE
:10409000B705A093B805B093B9058BE895E060E645
:1040A00073E00E94922C87E096E064E973E00E943E
:1040B0002D276091C1037091C20387E096E04AE02A
:1040C00050E00E940E27A5C080918F059091900529
:1040D000029709F09EC08BE895E060E070E00E94D6
:1040E000BA2BFC01E0818E2F80538A3020F4CE2F32
:1040F000D0E0E0970AC08E2F8154863018F0CFEFC1
:10410000DFEF03C0CE2FD0E0E7978BE895E061E0CA
:1041100070E00E94BA2BFC01E0818E2F80538A3020
:1041200020F48E2F90E0C0970AC08E2F81548630E5
:1041300018F08FEF9FEF03C08E2F90E0C79734E009
:10414000CC0FDD1F3A95E1F7C82BD92B209729F426
:1041500080E090E00E948E0B03C0CE010E94A00B75
:104160008BE895E060E673E00E94922C87E096E091
:104170006BE973E00E942D2787E096E0BE019FCF98
:1041800080918F0590919005029709F042C08BE8CD
:1041900095E060E070E00E94BA2BFC01E0818E2F78
:1041A00080538A3020F4CE2FD0E0E0970AC08E2FC3
:1041B0008154863018F0CFEFDFEF03C0CE2FD0E070
:1041C000E7978BE895E061E070E00E94BA2BFC0174
:1041D000E0818E2F80538A3018F4F0E0F09709C008
:1041E0008E2F8154863018F0EFEFFFEF02C0F0E021
:1041F000F797CE0124E0880F991F2A95E1F78E2BBF
:104200009F2B90938A0580938905019711F40E9452
:10421000520680918F0590919005819730F08BE840
:1042200095E060E673E00E94922C0894C11CD11CBA
:10423000CA14DB040CF4AFCCDF91CF911F910F9126
:10424000FF90EF90DF90CF90BF90AF909F908F90B6
:104250007F906F905F904F903F902F900895CF93F5
:10426000DF93EC0161307105A1F0623071051CF43F
:10427000672B41F034C062307105D1F063307105B5
:1042800071F51DC08A8961E00E9442248C8960E03A
:1042900006C08A8960E00E9442248C8961E00E9405
:1042A00042248E8961E00E944224888D60E015C01E
:1042B0008A8960E00E9442248C8961E006C08A8974
:1042C00061E00E9442248C8960E00E9442248E8931
:1042D00060E00E944224888D61E00E944224DF91C8
:1042E000CF910895FC01718360832681378161300D
:1042F000710561F42F5F3F4F37832683828193815D
:104300002817390771F4178216820BC0232B21F46A
:104310008281938197838683868197810197978392
:1043200086838681978164E070E00E94DF33BC0160
:10433000CF010E942F210895CF92DF92EF92FF923A
:104340000F931F936C01842FF6011782168211823E
:104350001082738362831186108616861786108AF0
:10436000118A428B538B358B248B178B068BF18EE6
:10437000E08E61E00E94B523F601848961E00E942D
:10438000B523F601868961E00E94B523F601808D90
:1043900061E00E94B52384E090E0F6019583848378
:1043A0001F910F91FF90EF90DF90CF9008951F9293
:1043B0000F920FB60F9211242F933F938F939F93D9
:1043C000AF93BF938091BE059091BF05A091C005AA
:1043D000B091C1053091C2050196A11DB11D232FD9
:1043E0002D5F2D3720F02D570196A11DB11D209373
:1043F000C2058093BE059093BF05A093C005B093FE
:10440000C1058091BA059091BB05A091BC05B09102
:10441000BD050196A11DB11D8093BA059093BB0502
:10442000A093BC05B093BD05BF91AF919F918F91B3
:104430003F912F910F900FBE0F901F9018959B01E9
:10444000AC017FB7F8948091BA059091BB05A0911B
:10445000BC05B091BD0566B5A89B05C06F3F19F0BE
:104460000196A11DB11D7FBFBA2FA92F982F8827B4
:10447000860F911DA11DB11D62E0880F991FAA1F13
:10448000BB1F6A95D1F7BC012DC0FFB7F89480918E
:10449000BA059091BB05A091BC05B091BD05E6B5EC
:1044A000A89B05C0EF3F19F00196A11DB11DFFBFEC
:1044B000BA2FA92F982F88278E0F911DA11DB11DEE
:1044C000E2E0880F991FAA1FBB1FEA95D1F7861B50
:1044D000970B885E9340C8F22150304040405040D6
:1044E00068517C4F211531054105510571F608953C
:1044F000019739F0880F991F880F991F029701972C
:10450000F1F70895789484B5826084BD84B58160A4
:1045100084BD85B5826085BD85B5816085BDEEE6CB
:10452000F0E0808181608083E1E8F0E010828081AA
:1045300082608083808181608083E0E8F0E0808118
:1045400081608083E1E9F0E0808182608083808106
:1045500081608083E0E9F0E0808181608083E1EC2C
:10456000F0E08081846080838081826080838081AC
:1045700081608083E3ECF0E0808181608083E0EC07
:10458000F0E0808182608083E2ECF0E080818160F5
:104590008083EAE7F0E080818460808380818260AC
:1045A000808380818160808380818068808308959A
:1045B000823108F08251E82FF0E0E558FE4FE49197
:1045C00020917B008E2F86958695869590E0817050
:1045D000907035E0880F991F3A95E1F72F7D282BD1
:1045E00020937B00E7708091C3038295880F880F2A
:1045F000807C8E2B80937C0080917A0080648093F5
:104600007A0080917A0086FDFCCF2091780040915D
:104610007900942F80E030E0282B392BC9010895D0
:104620001F93CF93DF93182FEB0161E00E94B52316
:10463000209709F48FC0CF3FD10509F48EC0E12F38
:10464000F0E0E35AFE4F8491883009F440C089308D
:1046500070F4823019F1833020F4813009F077C092
:1046600018C0833001F1843009F071C026C08B304E
:1046700009F44BC08C3030F4893099F18A3009F05C
:1046800066C039C08C3009F44DC08E3009F05FC06F
:1046900051C084B5806884BDC7BD63C084B58062E5
:1046A00084BDC8BD5EC0809180008068809380001A
:1046B000D0938900C093880054C0809180008062AC
:1046C00080938000D0938B00C0938A004AC0809171
:1046D0009000806880939000D0939900C0939800D8
:1046E00040C080919000806280939000D0939B00A6
:1046F000C0939A0036C080919000886080939000AB
:10470000D0939D00C0939C002CC08091C000806815
:104710008093C0008091C0008F7B8093C000C093C5
:10472000CF001FC08091C00080628093C000C09302
:10473000D00017C08091C20088608093C200809131
:10474000C2008B7F8093C200C093D2000AC0C038E1
:10475000D1051CF4812F60E002C0812F61E00E942E
:104760004224DF91CF911F910895CF93DF93482F7B
:1047700050E0CA01815C9E4FFC0134914F5D5E4F59
:10478000FA018491882369F190E0880F991FFC0158
:10479000E950FF4FA591B491FC01EB5FFE4FC5912D
:1047A000D491662351F42FB7F8948C91932F909560
:1047B00089238C93888189230BC0623061F42FB7E1
:1047C000F8948C91932F909589238C938881832BD7
:1047D00088832FBF06C09FB7F8948C91832B8C934E
:1047E0009FBFDF91CF910895883071F1893068F4CF
:1047F000823031F1833020F4813009F042C01DC095
:10480000833089F08430E9F512C08B3059F18C3057
:1048100028F48930E9F08A30A1F51EC08C3031F1DE
:104820008E3079F529C0809180008F7703C0809108
:1048300080008F7D80938000089584B58F7702C0BB
:1048400084B58F7D84BD0895809190008F7707C0D7
:10485000809190008F7D03C080919000877F80932E
:10486000900008958091C0008F7703C08091C000B0
:104870008F7D8093C00008958091C200877F8093D0
:10488000C2000895FF920F931F93F62E482F50E019
:10489000CA01835A9E4FFC012491CA01815C9E4F3C
:1048A000FC0114914F5D5E4FFA0104910023C9F0A1
:1048B000222319F0822F0E94F423E02FF0E0EE0F64
:1048C000FF1FEB5FFE4FA591B4919FB7F894FF20B7
:1048D00021F48C911095812302C08C91812B8C93B3
:1048E0009FBF1F910F91FF90089508952091030697
:1048F000309104068091050690910606281B390B1D
:104900002F733070C9010895209103063091040679
:1049100080910506909106062817390719F42FEFA4
:104920003FEF09C0E0910506F0910606ED53FA4FFE
:104930008081282F30E0C90108952091030630912D
:10494000040680910506909106062817390719F488
:104950002FEF3FEF13C0E0910506F0910606ED53EF
:10496000FA4F2081809105069091060601968F737B
:104970009070909306068093050630E0C901089573
:1049800010920A061092090688EE93E0A0E0B0E0CB
:1049900080930B0690930C06A0930D06B0930E0621
:1049A00088ED93E0909308068093070608950F938F
:1049B0001F93DF93CF930F92CDB7DEB78C0169833E
:1049C0008091CB03882369F083E0BE016F5F7F4F46
:1049D00041E050E00E94FC281816190614F49C01CE
:1049E00007C081E090E0F8019383828320E030E00B
:1049F000C9010F90CF91DF911F910F91089583E02E
:104A00000E94D3280895CF93DF9312C082E00E94C2
:104A10005E282FEF8F3F9207C9F0E0910306F091D7
:104A20000406ED53FA4F8083D0930406C093030627
:104A3000C0910306D09104062196CF73D070809167
:104A4000050690910606C817D90701F7DF91CF91A7
:104A50000895FC0180818E5F808380E867E871E0C3
:104A600042E450E00E9477280895FC018181908102
:104A7000913A59F4813209F04CC080E064EC73E063
:104A800047E050E00E94772842C0913209F041C0CF
:104A9000803239F484EC93E067E070E00E94BB2838
:104AA00036C0823209F035C082818093CB03809179
:104AB000C4039091C503A091C603B091C703805B66
:104AC0009440A040B04019F58091CB0380FD12C006
:104AD00087E797E790930108809300082BE088E12F
:104AE00090E00FB6F894A895809360000FBE2093D5
:104AF00060000DC088E10FB6F894809360001092BA
:104B000060000FBEA895109201081092000881E085
:104B1000089580E00895CF93DF930E9482228DE173
:104B200096E00E94DE280E94010CC0E0D0E00E94C6
:104B3000FE0B2097E1F30E940000F9CFCF92DF92A5
:104B4000EF92FF920F931F93CF93DF937C016B0142
:104B50008A01C0E0D0E00FC0D6016D916D01D70190
:104B6000ED91FC910190F081E02DC7010995C80FEE
:104B7000D91F015010400115110571F7CE01DF91C9
:104B8000CF911F910F91FF90EF90DF90CF900895FC
:104B9000EF92FF920F931F938C01DC01ED91FC913A
:104BA0000190F081E02D6DE009957C01D801ED9137
:104BB000FC910190F081E02DC8016AE009959C010B
:104BC0002E0D3F1DC9011F910F91FF90EF90089589
:104BD000CF93DF93EC016115710519F420E030E00B
:104BE0000FC0DB010D900020E9F71197A61BB70B52
:104BF000E881F9810280F381E02DAD0109959C01E6
:104C0000C901DF91CF9108954F925F927F928F9269
:104C10009F92AF92BF92CF92DF92EF92FF920F934B
:104C20001F93DF93CF93CDB7DEB7A1970FB6F8945C
:104C3000DEBF0FBECDBF2C01742ECB01223008F495
:104C40002AE019A231E2C32ED12CCC0EDD1E822E19
:104C50009924AA24BB24672D752FA50194010E94D5
:104C6000F23379018A01C801B701A50194010E94BC
:104C7000C033472D461B0894C108D1084A3014F4AC
:104C8000405D01C0495CF6014083E114F104010577
:104C9000110521F07E2C5F2DC801DDCFC201B601C8
:104CA0000E94E825A1960FB6F894DEBF0FBECDBFD7
:104CB000CF91DF911F910F91FF90EF90DF90CF90F8
:104CC000BF90AF909F908F907F905F904F9008958E
:104CD000DC012115310541F4ED91FC910190F08149
:104CE000E02D642F099508950E9404260895EF92FF
:104CF000FF920F931F939A01E62EFF2400E010E02D
:104D0000B801A7010E9468261F910F91FF90EF90B4
:104D10000895CF92DF92EF92FF920F931F936C0151
:104D2000E62E9A01FF2400E010E0B801A7010E94DE
:104D300068268C01C6010E94C825080F191FC801EA
:104D40001F910F91FF90EF90DF90CF900895CF9239
:104D5000DF92EF92FF920F931F93CF93DF93EC01BB
:104D60006A017B012115310541F4E881F981019047
:104D7000F081E02D642F09951FC02A303105D1F450
:104D800077FF17C0E881F9810190F081E02D6DE295
:104D900009958C0144275527BA014C195D096E0904
:104DA0007F09CE012AE00E9404269801280F391FAE
:104DB00004C02AE00E9404269C01C901DF91CF9122
:104DC0001F910F91FF90EF90DF90CF900895EF9299
:104DD000FF920F931F937C010E94A7268C01C701AD
:104DE0000E94C8259C01200F311FC9011F910F91FE
:104DF000FF90EF900895EF92FF920F931F937B0126
:104E00009A010027F7FC0095102FB801A7010E9416
:104E1000A7261F910F91FF90EF900895CF92DF92F8
:104E2000EF92FF920F931F936C017B019A01002771
:104E3000F7FC0095102FB801A7010E94A7268C014E
:104E4000C6010E94C825080F191FC8011F910F91A4
:104E5000FF90EF90DF90CF9008950E94E82508958D
:104E60007F928F929F92AF92BF92CF92DF92EF92FA
:104E7000FF920F931F93CF93DF934C017A018B0125
:104E8000722ECB01BA01A80197010E94A433882396
:104E900021F0C40162EA73E021C0C0E0D0E0570114
:104EA0006801E894D7F8C601B5012FEF3FEF4FE74F
:104EB0005FE70E94A433882351F4C601B5012FEFA8
:104EC0003FEF4FE75FE70E94E430181614F0C1E0AF
:104ED000D0E0219739F0C40166EA73E00E94E8252A
:104EE000EC0193C0C801B7012FEF3FEF4FE75FE43C
:104EF0000E94DF32181654F0C801B7012FEF3FEFC0
:104F00004FE75FEC0E94E430882324F4C4016AEA8E
:104F100073E0E4CFC801B70120E030E040E050E0AA
:104F20000E94E43087FD03C0C0E0D0E00EC0D40191
:104F3000ED91FC910190F081E02DC4016DE20995A5
:104F4000EC0117FB109517F9109520E030E040E0D8
:104F50005FE3DD240BC0CA01B90120E030E040E28C
:104F600051E40E94EB309B01AC01D394D71498F329
:104F7000C801B7010E940B305B016C010E945831DF
:104F80007B018C01C401B801A7012AE030E00E9436
:104F90006826C80FD91F772039F0C4016EEA73E084
:104FA0000E94E825C80FD91FC801B7010E948431AB
:104FB0009B01AC01C601B5010E940A3024C020E06B
:104FC00030E040E251E40E94EA327B018C010E9411
:104FD00053315B016C01CC24B7FCC094DC2CC401C0
:104FE000B601A5012AE030E00E94A726C80FD91F0C
:104FF000C601B5010E9486319B01AC01C801B70111
:105000000E940A307A947720D1F6CE01DF91CF91B9
:105010001F910F91FF90EF90DF90CF90BF90AF90D6
:105020009F908F907F9008950E9430270895EF926F
:10503000FF920F931F937C010E94E8258C01C7010A
:105040000E94C825080F191FC8011F910F91FF90DA
:10505000EF900895282F809117068823C1F057FFFD
:105060001AC015C02898909316068091F10081937C
:10507000E217F307B9F74115510539F08091F200B5
:10508000882319F48BE68093E800AFBF02C04FEF8E
:105090005FEFCA010895AFB7F89427702093E90035
:1050A0008091F200282F30E0241735070CF4A90175
:1050B000FB019B01240F311D94E6DACFDF93CF93E0
:1050C0000F92CDB7DEB7BE016F5F7F4F41E050E07A
:1050D0000E942A28019719F02FEF3FEF03C0898122
:1050E000282F30E0C9010F90CF91DF910895FF92F2
:1050F0000F931F93F82E142F052F40911A065091ED
:105100001B06212F302FC901DC01FB016EEF29C0E6
:10511000F7FE02C0949101C0908120911806309151
:10512000190624173507ACF48091E8008570E1F387
:105130008091E80082FF03C02FEF3FEF17C09093EC
:10514000F100C90101968F739070892B11F460935F
:10515000E8002F5F3F4F30931906209318061197F0
:1051600031961097A9F6812F902F9C01C9011F91AC
:105170000F91FF9008959C018091E80082FFFCCF81
:10518000F901260F311D03C08091F1008193E217D0
:10519000F307D1F7289884E6809316068BEF809367
:1051A000E800CB0108958093E9008091F200882304
:1051B00019F08AE38093E800089508951092170685
:1051C00081E08093D70080EA8093D80082E189BD96
:1051D00009B400FEFDCF61E070E080E090E00E9445
:1051E0001F2280E98093D8008CE08093E200109227
:1051F000E000559A209A08955F926F927F928F9265
:105200009F92AF92BF92CF92DF92EF92FF920F9355
:105210001F93CF93DF93E82E842E752E809117066F
:10522000882371F18B01242F352FC901EC017AEF0E
:10523000F72E67E0962E9E2050E4552E8E2D90E09E
:1052400040E2A42EB12CA822B9223AE3632E20E436
:10525000C22ED12CC822D92258C09FB7F894909260
:10526000E9008091E80085FD02C020E004C0809143
:10527000F200252D281B9FBF222361F4FA9419F414
:105280002FEF3FEF4DC061E070E080E090E00E94C2
:105290001F223BC0822F90E0C817D9070CF42C2F97
:1052A000C21BD1094FB7F8949092E900A114B10440
:1052B00021F406C01092F10021502223D9F719C021
:1052C000E7FC03C0F801922F10C0C801322F06C0BE
:1052D000FC010196E491E093F10031503323C1F7D2
:1052E00006C081918093F10091509923D1F7020F6C
:1052F000111D8091E80085FF05C0209729F4C11495
:10530000D10411F06092E8004FBF209709F0A5CFBB
:105310005D9884E680931506282D372DC9019C01E0
:10532000C901DF91CF911F910F91FF90EF90DF9016
:10533000CF90BF90AF909F908F907F906F905F9035
:1053400008951F920F920FB60F9211242F933F933F
:105350004F935F936F937F938F939F93AF93BF937D
:10536000EF93FF938091E1001092E100982F83FF6B
:105370000FC01092E90081E08093EB001092EC00E6
:1053800082E38093ED001092170688E08093F0008E
:1053900092FF34C083E08093E9008091F20088237B
:1053A00019F08AE38093E8008FB7F89492E0909325
:1053B000E9009091F2008FBF992321F087E096E0F9
:1053C0000E94032580911506882351F080911506CF
:1053D00081508093150680911506882309F45D9A03
:1053E00080911606882351F0809116068150809393
:1053F000160680911606882309F4289AFF91EF91EA
:10540000BF91AF919F918F917F916F915F914F91DC
:105410003F912F910F900FBE0F901F9018950F93F3
:105420001F93DF93CF930F92CDB7DEB719828E0112
:105430000F5F1F4FC8010E942925C8010E94FE2F3F
:10544000898190E00F90CF91DF911F910F91089586
:105450001F920F920FB60F921124EF92FF921F939B
:105460002F933F934F935F936F937F938F939F936C
:10547000AF93BF93EF93FF93DF93CF93CDB7DEB797
:105480006197DEBFCDBF1092E9008091E80083FFF5
:105490000FC1FE0131969E01275F3F4F03C08091EF
:1054A000F1008193E217F307D1F7289884E68093FF
:1054B000160682EF8093E800998197FF05C08091DE
:1054C000E80080FFFCCF03C08EEF8093E800292F17
:1054D00030E0C90180769070892B09F0C2C08A81C2
:1054E000882329F41092F1001092F100D6C0813087
:1054F00009F4D3C0833009F4D0C0853049F48091D9
:10550000E80080FFFCCF8B8180688093E300C5C0FA
:10551000863009F07CC01C81EF80F8841230C1F520
:105520001092E900109219061092180610921B06AC
:1055300010921A060E940F2A99E0FE013996DF01A7
:10554000292F1D922A95E9F799871A8791E09E875E
:1055500090E8988B9AEF998B209118063091190654
:10556000275F3F4F3C872B878D871092E900109271
:10557000190610921806F0921B06E0921A0680E0B7
:10558000BF0149E050E00E9477280E940F2A85C0A1
:105590001092E9001092190610921806F0921B065C
:1055A000E0921A06123241F482E290E00E94F62F55
:1055B000892B09F476C071C0113079F488E0E816BF
:1055C000F10419F481E080931C0680911C06882365
:1055D00009F06BC0E7E0F2E013C0133009F061C0DE
:1055E0008B81882319F4E9ECF1E00AC0823019F4C8
:1055F000EDECF1E005C0813009F053C0EFEEF1E0D1
:10560000449180E8BF0150E00E94772846C087306F
:1056100009F447C0883021F481E08093F1003DC057
:105620008930D9F523703070232BD9F5ECE2F2E004
:1056300091E031E026E39093E9003093EB00849110
:105640008093EC002093ED009F5F3196953099F7A1
:105650008EE78093EA001092EA008B818093170610
:105660001CC08F8198851092E90010921906109243
:10567000180690931B0680931A068D81882329F4BF
:10568000CE0101960E94352506C0823051F4CE012C
:1056900001960E94C72E882321F08EEF8093E800A8
:1056A00007C081E28093EB0003C0E9E1F2E0A8CFFC
:1056B0006196DEBFCDBFCF91DF91FF91EF91BF919A
:1056C000AF919F918F917F916F915F914F913F919A
:1056D0002F911F91FF90EF900F900FBE0F901F9092
:1056E00018952F923F924F925F926F927F928F9276
:1056F0009F92AF92BF92CF92DF92EF92FF920F9361
:105700001F93DF93CF93CDB7DEB73B014C01190157
:105710002A016D897E898F89988D6A197B098C0988
:105720009D09621A730A840A950AA40193010E94D2
:10573000C033E218F30804091509A80197010E9473
:1057400014342A0D3B1D4C1D5D1DB901CA01CF91BA
:10575000DF911F910F91FF90EF90DF90CF90BF905E
:10576000AF909F908F907F906F905F904F903F9001
:105770002F900895FC019B0184819581681779071A
:1057800028F4608171816115710529F410921E065B
:105790006EE176E002C0620F731FCB0108950F9394
:1057A0001F93CF93DF93EC018B016F5F7F4F888155
:1057B00099810E94E62D009711F480E005C099833D
:1057C00088831B830A8381E0DF91CF911F910F9122
:1057D0000895CF93DF93EC0188819981892B29F07B
:1057E0008A819B818617970760F4CE010E94CF2B98
:1057F000882341F08C819D81892B19F4E881F981FE
:10580000108281E0DF91CF910895EF92FF920F9384
:105810001F93CF93DF93EC017B016C817D81E114B9
:10582000F104C1F04115510599F08A01060F171FC7
:10583000B8010E94E92B882369F0888199812C8125
:105840003D81820F931FB7010E9467031D830C8364
:1058500081E001C080E0DF91CF911F910F91FF9017
:10586000EF900895DF93CF9300D0CDB7DEB7698373
:105870001A82BE016F5F7F4F41E050E00E94052C0D
:105880000F900F90CF91DF910895CF93DF93EC01AC
:1058900088819981009711F00E944E2D19821882FB
:1058A0001D821C821B821A82DF91CF910895EF9294
:1058B000FF920F931F93CF93DF93EC017B018A013B
:1058C000BA010E94E92B882321F4CE010E94452CC5
:1058D00007C01D830C8388819981B7010E946703EB
:1058E000CE01DF91CF911F910F91FF90EF9008951E
:1058F000CF93DF93EC01198218821B821A821D82DA
:105900001C821E826115710551F0DB010D90002093
:10591000E9F71197A61BB70BAD010E94572CDF9139
:10592000CF9108950F931F93182F092F61157105BB
:1059300059F0DB010D900020E9F71197A61BB70B7A
:10594000AD010E94572C02C00E94452C812F902F40
:105950001F910F910895FC01808191810E944E2D2D
:1059600008950F931F93CF93DF93BC01823091056D
:1059700010F462E070E0E0912E06F0912F0640E016
:1059800050E0A0E0B0E024C08081918186179707A5
:10599000D0F08617970771F482819381109729F0D0
:1059A00013969C938E9312972CC090932F068093FE
:1059B0002E0627C04115510519F08417950718F4D4
:1059C0008D01AC01EF01DF01828193819C01F9011E
:1059D0003097D1F641155105F9F0CA01861B970B96
:1059E0008430910580F48A819B810115110521F095
:1059F000F8019383828304C090932F0680932E0630
:105A0000FE01329645C0FE01E80FF91F61937193C4
:105A10000297998388833CC080912C0690912D0633
:105A2000892B41F48091CE039091CF0390932D0662
:105A300080932C064091D0035091D103411551051C
:105A400041F44DB75EB78091CC039091CD03481BD4
:105A5000590B20912C0630912D0624173507B0F4F0
:105A6000CA01821B930B8617970780F0AB014E5F2C
:105A70005F4F8417950750F0420F531F50932D0628
:105A800040932C06F9016193719302C0E0E0F0E0CD
:105A9000CF01DF91CF911F910F910895CF93DF93A5
:105AA0009C01009709F48FC0EC0122971B821A8297
:105AB00060912E0670912F066115710581F4888121
:105AC0009981820F931F20912C0630912D06281763
:105AD000390739F5D0932D06C0932C0674C0DB012D
