:100000000C94A9000C94D1000C94D1000C94D10054
:100010000C94D1000C94D1000C94D1000C94D1001C
:100020000C94D1000C94D1000C94D1000C94D1000C
:100030000C94D1000C94D1000C94D1000C94D100FC
:100040000C9431210C94D1000C945E230C94AC23BD
:100050000C94D1000C94D1000C94D1000C94D100DC
:100060000C94D1000C94D100084AD73B3BCE016ED2
:1000700084BCBFFDC12F3D6C74319ABD56833DDAFF
:100080003D00C77F11BED9E4BB4C3E916BAAAABE0E
:10009000000000803F05A84CCDB2D44EB93836A937
:1000A000020C50B9918688083CA6AAAA2ABE000074
:1000B00000803F00000000240027002A000000000C
:1000C00000250028002B0000000000230026002946
:1000D00000040404040404040402020202020203F1
:1000E00003030303030102040810204080010204FB
:1000F000081020010204081020000000070002017F
:1001000000000304060000000000000000494E4605
:10011000494E4954594E414ECDCCCC3D0AD7233C93
:1001200017B7D13877CC2B329595E6241FB14F0AFB
:10013000000020410000C84200401C4620BCBE4CCC
:10014000CA1B0E5AAEC59D749802C20DCC1B182551
:10015000C51B11241FBECFEFD8E0DEBFCDBF13E01B
:10016000A0E0B1E0EAEDFFE502C005900D92A63CEB
:10017000B107D9F716E0A6ECB3E001C01D92A63492
:10018000B107E1F711E0C0E5D1E004C02297FE011C
:100190000E949A2FC834D107C9F70E946E250C948B
:1001A000E02F0C940000A0E0B0E0E9EDF0E00C944A
:1001B000AF2FEC015B016115710519F0FB01918313
:1001C0008083F9908F2D90E00E949E2F892BC9F794
:1001D000FDE2FF1621F4F990EE24E39405C02BE232
:1001E000F21609F4F990EE248E0101501040C80176
:1001F0006DE071E043E050E00E943302892B01F58D
:100200008E010E5F1F4FC80160E171E045E050E0D4
:100210000E943302892B19F48E01095F1F4FA1142C
:10022000B10419F0F50111830083E0FC04C070E013
:1002300090E080E814C070E090E080E86FEF08C1C3
:10024000C80165E171E043E050E00E943302892B70
:1002500069F4A114B10429F470E090E080EC6FE738
:10026000F7C02296F501D183C083F6CF8824992464
:1002700040E050E060E070E0EF2DE053EA30A0F5A0
:10028000F2E0EF2A8E2D90E09C0128703070E2FEA3
:1002900006C0232B79F50894811C911C2BC0232BBD
:1002A00019F0089481089108DB01CA0112E0880F57
:1002B000991FAA1FBB1F1A95D1F7480F591F6A1F14
:1002C0007B1F440F551F661F771F4E0F511D611D69
:1002D000711D483929E9520729E9620729E17207A6
:1002E00048F084E0E82A06C0EE3F31F4E3FC39C070
:1002F00098E0E92AF990C0CFE53311F0E53189F5AE
:1003000029912D3219F4E0E1EE2A05C02B3219F0C3
:1003100081E090E003C0299182E090E0E22FE05379
:10032000EA3018F0C81BD90B1CC020E030E0FCE01C
:1003300020383F075CF4C901880F991F880F991F67
:10034000280F391F220F331F2E0F311DE991E05363
:10035000EA3068F3E4FE03C0309521953F4F820EEA
:10036000931ECE2CDD24E1FE07C0A114B10421F0C0
:100370002197F501D183C083CB01BA010E94D92C0A
:100380007B018C01F3E0CF22DD2423E0C216D104EF
:1003900021F417FB109517F9109557016801C80152
:1003A000B70120E030E040E050E00E94392C882383
:1003B00009F44AC097FE0DC02CE2E22E21E0F22E95
:1003C0009094819491089394C0E2D0E000E010E012
:1003D00012C094E4E92E91E0F92EF6CFF7012591B1
:1003E000359145915491C601B5010E943F2E5B01A4
:1003F0006C018C1A9D0A8C169D0684F7D595C795BD
:100400000F5F1F4F0630110529F08CEF9FEFE80EAC
:10041000F91EF1CFC501D6017C018D018C2D880F0D
:100420008D2D881F8F3F51F0C601B50120E030E0CF
:1004300040E050E00E94392C882331F482E290E0C1
:1004400090934506809344067E2D9F2D802F612F2B
:10045000272F392F482F562FB901CA01CDB7DEB744
:10046000ECE00C94CB2FFB01DC014150504088F0B4
:100470008D9181341CF08B350CF4805E6591613474
:100480001CF06B350CF4605E861B611171F3990BE7
:100490000895881BFCCFFB01DC0102C001900D9286
:1004A00041505040D8F70895FB01DC0101900D92B6
:1004B0000020E1F708950E943F2E20E030E040E860
:1004C0005EE30E943F2E0E94A82C9B01AC0182E0BB
:1004D000220F331F441F551F8A95D1F7B901CA0156
:1004E0000895883549F4409322045093230460937F
:1004F0002404709325040895893549F44093260413
:1005000050932704609328047093290408958A3532
:1005100041F440932A0450932B0460932C0470936D
:100520002D04089590933B0480933A040895089510
:10053000EF92FF920F931F938CE394E068EC70E0CE
:1005400042E050E023E030E004E010E0F5E0EF2E80
:10055000F12C0E94F62086E594E068EC70E046E01D
:1005600050E027E030E008E010E0E9E0EE2EF12C6A
:100570000E94F6201F910F91FF90EF9008958E5FDB
:100580009F4F09F00EC18DE196E060E071E00E949E
:100590000C276091FC037091FD038DE196E04AE029
:1005A00050E00E94DA268DE196E062E071E00E9460
:1005B0000C276091FE037091FF038DE196E04AE005
:1005C00050E00E94DA268DE196E062E071E00E9440
:1005D0000C2760910204709103048DE196E04AE0DB
:1005E00050E00E94DA268DE196E062E071E00E9420
:1005F0000C2760910404709105048DE196E04AE0B7
:1006000050E00E94DA268DE196E062E071E00E94FF
:100610000C2760910E0470910F048DE196E04AE082
:1006200050E00E94DA268DE196E062E071E00E94DF
:100630000C2760911004709111048DE196E04AE05E
:1006400050E00E94DA268DE196E062E071E00E94BF
:100650000C2760910804709109048DE196E04AE04E
:1006600050E00E94DA268DE196E062E071E00E949F
:100670000C2760910A0470910B048DE196E04AE02A
:1006800050E00E94DA268DE196E062E071E00E947F
:100690000C2760911A0470911B048DE196E04AE0EA
:1006A00050E00E94DA268DE196E062E071E00E945F
:1006B0000C2760911C0470911D048DE196E04AE0C6
:1006C00050E00E94DA268DE196E062E071E00E943F
:1006D0000C2760911E0470911F048DE196E04AE0A2
:1006E00050E00E94DA268DE196E062E071E00E941F
:1006F0000C2760912004709121048DE196E04AE07E
:1007000050E00E94DA268DE196E062E071E00E94FE
:100710000C2740912204509123046091240470918D
:1007200025048DE196E022E030E00E94F3278DE180
:1007300096E062E071E00E940C27409126045091FF
:10074000270460912804709129048DE196E022E04D
:1007500030E00E94F3278DE196E062E071E00E94B4
:100760000C2760913A0470913B048DE196E04AE0D9
:1007700050E00E94DA268DE196E062E071E00E948E
:100780000C276091FA037091FB038DE196E04AE03B
:1007900050E00E94DA268DE196E064E071E00E946C
:1007A0000C270895CF93DF938E5F9F4F59F5C0E0DC
:1007B000D0E085EF94E0BE010E94410CFE01E453BD
:1007C000FC4F80832196C430D10599F78091CC03EA
:1007D0009091CD03A091CE03B091CF0388559F4453
:1007E000A244B24479F4C0E0D0E085EF94E0BE01C9
:1007F0000E94410CFE01E453FC4F80832196C037D8
:10080000D10599F7DF91CF910895CF93DF932FEF23
:100810008E3F9207B1F02FEF8F3F920709F445C04A
:100820008D5F9F4F09F050C0C0E0D0E085EF94E0AD
:10083000BE0140E00E94480C2196C037D105B1F7B7
:1008400043C088E59FE4A2E4B2E48093CC03909394
:10085000CD03A093CE03B093CF03C0E0D0E0FE0160
:10086000E453FC4F85EF94E0BE0140810E94480CA8
:100870002196C037D10599F74091CC035091CD0313
:100880006091CE037091CF038DE196E02AE030E0D5
:100890000E94C6268DE196E048E55FE462E472E4DA
:1008A0002AE030E00E94C6260FC0C4E0D0E0FE017E
:1008B000E453FC4F85EF94E0BE0140810E94480C58
:1008C0002196CE32D10599F7DF91CF91089586E335
:1008D00091E062E170E00E94DE1188E491E063E162
:1008E00070E00E94DE118BE591E063E170E00E9410
:1008F000DE118EE691E062E170E00E94DE11089563
:1009000080E891E063E070E00E94DE1184E891E00D
:1009100063E070E00E94DE1188E891E063E070E03F
:100920000E94DE1108954F925F926F927F928F9294
:100930009F92AF92BF92CF92DF92EF92FF920F936E
:100940001F93CF93DF933A019C0143E0880F991FD7
:100950004A95E1F7220F331F820F931F2C01CB0121
:100960007B0113E0EE0CFF1C1A95E1F7880F991F2D
:10097000E80EF91E00E010E04301AA2497FCA094C1
:10098000BA2CACEBCA2EA2E0DA2ECE18DF0849C092
:100990008CE891E06DE070E00E94DE11CE15DF057D
:1009A0004CF0CC16DD0634F00E151F051CF0C016F9
:1009B000D10604F5C801B2010E94342F892B51F0F1
:1009C000CE01B2010E94342F892B21F082E0CB3B73
:1009D000D80781F48AE991E068E070E00E94DE11B6
:1009E000C501B4010E94792183EA91E063E070E0DF
:1009F0000E94DE11219682E0CC3BD80749F689E1BE
:100A000091E06DE070E00E94DE1187E291E06EE01F
:100A100070E00E94DE110F5F1F4F82E00C3B180751
:100A200019F0C0E0D0E0B4CFC0E0D0E073010027FF
:100A3000F7FC0095102F8CE891E06DE070E00E94CB
:100A4000DE118AE991E068E070E00E94DE11C801E1
:100A5000B7010E94792183EA91E063E070E00E948F
:100A6000DE11219682E0CC3BD80729F7DF91CF91A8
:100A70001F910F91FF90EF90DF90CF90BF90AF90BC
:100A80009F908F907F906F905F904F90089580918E
:100A9000140461E00E94B6228091160461E00E9475
:100AA000B6228091180461E00E94B62208958091D8
:100AB000140460E00E94B6228091160460E00E9457
:100AC000B6228091180460E00E94B6220895BC010D
:100AD0002091FA033091FB032115310521F02130DB
:100AE0003105B9F40AC0009719F480911A0409C0BD
:100AF00080911A040E9417220895009731F4809182
:100B00001C0460E00E94B622089580911C040E949B
:100B100017220895BC012091FA033091FB0321159F
:100B2000310521F021303105E9F40DC08F3F9105E9
:100B300011F0009719F480911A040CC080911A04E6
:100B40000E94172208958F3F910511F0009731F40C
:100B500080911C0461E00E94B622089580911C04DB
:100B60000E9417220895DF93CF93CDB7DEB72A975F
:100B70000FB6F894DEBF0FBECDBF282F19821A82A0
:100B80001B821C82FE01359686E0DF011D928A954C
:100B9000E9F790E024C0E60FF71F80819F5F82177E
:100BA000F1F4DE0111969E01255F3F4F09C0E60F6B
:100BB000F71F8081882361F0803251F08D939F5F11
:100BC000E92FF0E0E417F5071CF4A217B30779F753
:100BD000CE01019660E070E00E94D30009C0E92FC9
:100BE000F0E0E417F507BCF260E070E080E090E030
:100BF0002A960FB6F894DEBF0FBECDBFCF91DF911E
:100C00000895AF92BF92CF92DF92EF92FF920F932F
:100C10001F93CF93DF935C01EB018A0180E50E9473
:100C2000B3050E94A82C6B01161617061CF0E2E310
:100C3000CE2ED12C84E4BE01A8010E94B3050E94EF
:100C4000A82C7B01161617061CF073E0E72EF12C7A
:100C50008DE4BE01A8010E94B3050E94A82CEB01FF
:100C60001616170614F0C5E0D0E00E94800481E05B
:100C7000A816B10431F082E0A816B10409F046C00C
:100C800020C0C701BE01A6010E9493048FE092E03C
:100C900061E170E00E94DE110E94670481E292E04F
:100CA00065E170E00E94DE1188E392E063E070E0AD
:100CB0000E94DE118CE392E061E170E00E94DE119F
:100CC00025C08BE492E060E170E00E94DE118CE5CB
:100CD00092E061E170E00E94DE118EE692E061E157
:100CE00070E00E94DE1180E892E060E170E00E9416
:100CF000DE1181E992E065E170E00E94DE1187EA91
:100D000092E065E170E00E94DE11DBCFDF91CF91D0
:100D10001F910F91FF90EF90DF90CF90BF90AF9019
:100D2000089580911E0461E00E9477228091200442
:100D300061E00E94772280911E0460E00E94B6224A
:100D40008091200460E00E94B6220895813611F05F
:100D5000813421F470931F0460931E04823611F0D5
:100D6000823421F470932104609320040E94910640
:100D70000895CF93DF93EC018091FA039091FB03E8
:100D80000297029730F0CE010297029710F40E946A
:100D90009106D093FB03C093FA03DF91CF9108959E
:100DA00080911A0461E00E94772280911C0461E026
:100DB0000E94772280911A0460E00E94B6228091FE
:100DC0001C0460E00E94B6220895813611F081343F
:100DD00021F470931B0460931A04823611F082345C
:100DE00021F470931D0460931C040E94D0060895A2
:100DF0008091FC0361E00E9477228091020461E00F
:100E00000E9477228091140461E00E9477228091F1
:100E10000E0462E00E9477228091080462E00E9442
:100E200077228091FE0361E00E9477228091040482
:100E300061E00E9477228091160461E00E9477228F
:100E40008091100462E00E94772280910A0462E09F
:100E50000E9477228091000461E00E9477228091B5
:100E6000060461E00E9477228091180461E00E94EC
:100E700077228091120462E00E94772280910C0414
:100E800062E00E9477220895883529F470930F0458
:100E900060930E040DC0893529F47093110460939A
:100EA000100406C08A3521F4709313046093120471
:100EB0000E94F8060895883529F470930904609318
:100EC00008040DC0893529F470930B0460930A045B
:100ED00006C08A3521F470930D0460930C040E94BF
:100EE000F8060895883529F470930304609302048A
:100EF0000DC0893529F4709305046093040406C07D
:100F00008A3521F470930704609306040E94F80662
:100F10000895883529F47093FD036093FC030DC098
:100F2000893529F47093FF036093FE0306C08A3568
:100F300021F470930104609300040E94F806089560
:100F40001092CC031092CD031092CE031092CF03D7
:100F50001092FB031092FA038AE090E09093FD0355
:100F60008093FC0389E090E09093FF038093FE035D
:100F70002FEF3FEF30930104209300048BE090E0CB
:100F8000909303048093020483E090E0909305041F
:100F900080930404309307042093060480E190E0DA
:100FA00090930904809308048CE090E090930B04E4
:100FB00080930A0430930D0420930C0481E190E0A7
:100FC00090930F0480930E048DE090E090931104B1
:100FD000809310043093130420931204309315046B
:100FE00020931404309317042093160430931904AB
:100FF0002093180485E090E090931B0480931A04DA
:1010000086E090E090931D0480931C048FE090E0B4
:1010100090931F0480931E0484E190E09093210438
:101020008093200485E69AEFAEE2B3E48093220435
:1010300090932304A0932404B09325048093260462
:1010400090932704A0932804B093290480932A0442
:1010500090932B04A0932C04B0932D048EE893EE70
:10106000AAE8B5E480932E0490932F04A093300453
:10107000B09331048093320490933304A0933404EA
:10108000B09335048093360490933704A0933804CA
:10109000B093390488EB9BE090933B0480933A042F
:1010A0008EEF9FEF0E94D2030E94D0060E9491060D
:1010B0000E94F8060E9457050895CF92DF92EF92A2
:1010C000FF920F931F93D82EC62E042F0E940A233F
:1010D0007C018C2D0E940A239701220F331F282B9D
:1010E000392B10E0000F111F000F111F202B312B87
:1010F0002330310501F1243031054CF42130310524
:10110000A9F022303105A4F4232B71F018C025304A
:10111000310551F0253031055CF02630310559F0AC
:101120002730310561F402C08D2D03C08C2D04C021
:101130008C2D61E002C08D2D60E00E94B6221F91CF
:101140000F91FF90EF90DF90CF9008951F93182F8D
:101150000E940A23892B11F020E007C0812F0E94F2
:101160000A2320E0892B09F421E0822F1F910895A2
:10117000CF92EF92FF920F931F93CF93DF93EB01E8
:10118000E216F3060407150759F00E94A608882303
:1011900081F0CC2071F404C080E0CC2011F40EC0AA
:1011A00080E0DF91CF911F910F91FF90EF90CF9052
:1011B0000895CE010E94A608882371F781E0F1CF3F
:1011C0002F923F924F925F926F927F928F929F9257
:1011D000AF92BF92CF92DF92EF92FF920F931F9345
:1011E000DF93CF93CDB7DEB760970FB6F894DEBF2D
:1011F0000FBECDBF988B8F877A8769871A010B87BF
:101200001C872D873E870E944705D1012D913D9176
:101210004D915C91139714966D917D918D919C9158
:101220001797621773078407950714F4CA01B90169
:101230006093C6037093C7038093C8039093C90358
:10124000F101208531854285538562177307840734
:10125000950714F4CA01B9016093C6037093C703DC
:101260008093C8039093C90322E030E040E050E04F
:101270000E94692F882499245401821A930AA40A8F
:10128000B50A1A82A985BA852D913D914D915C913F
:10129000EF85F88980819181A281B3812817390770
:1012A0004A075B0714F0F1E0FA831982A985BA8531
:1012B00014962D913D914D915C911797EF85F8898A
:1012C00084819581A681B781281739074A075B0772
:1012D00014F0F1E0F983DD24A985BA8518962D91E3
:1012E0003D914D915C911B97EF85F88980859185A3
:1012F000A285B385281739074A075B0714F0DD2458
:10130000D3942B853C854D855E852F3F8FE3380731
:1013100080E0480780E058076CF0CA01B90128EE68
:1013200033E040E050E00E94692F3093CB032093DC
:10133000CA0304C01092CB031092CA038D829E820E
:10134000AF82B886240135016091080470910904C8
:10135000AF85B8892D913D914D915C91E985FA85D4
:10136000E080F1800281138180910E0490910F043E
:10137000CA800E94B8088C8360910A0470910B04A3
:10138000AF85B88914962D913D914D915C91179739
:10139000E985FA85E480F580068117818091100443
:1013A00090911104C9800E94B8088B8360910C044D
:1013B00070910D04AF85B88918962D913D914D918E
:1013C0005C911B97E985FA85E084F1840285138599
:1013D0008091120490911304CD2C0E94B808182F0C
:1013E000FC81FF23B9F1F10180819181A281B38158
:1013F000880E991EAA1EBB1E181419041A041B0479
:101400004CF58091FC03609102044A810E945D08C2
:101410008091C6039091C703A091C803B091C903FE
:10142000881A990AAA0ABB0AEF85F88980819181F6
:10143000A281B381FA81FF2321F00196A11DB11D84
:1014400003C00197A109B109EF85F88980839183D1
:10145000A283B383FB81FF2309F447C0F101848198
:101460009581A681B7812D813E814F815885280FB6
:10147000391F4A1F5B1F2D833E834F8358871216E7
:101480001306140615068CF58091FE036091040482
:1014900049810E945D088091C6039091C703A09185
:1014A000C803B091C9032D813E814F815885281B07
:1014B000390B4A0B5B0B2D833E834F835887EF8597
:1014C000F88984819581A681B781F981FF2321F074
:1014D0000196A11DB11D03C00197A109B109EF85B6
:1014E000F88984839583A683B7831123B1F1F10131
:1014F00080859185A285B385480E591E6A1E7B1E84
:10150000141415041604170444F580910004609126
:1015100006044D2D0E945D088091C6039091C7037B
:10152000A091C803B091C903481A590A6A0A7B0AF4
:10153000EF85F88980859185A285B385DD2021F02E
:101540000196A11DB11D05C00197A109B109EF8543
:10155000F88980879187A287B3872091CA03309149
:10156000CB031216130644F4B901882777FD809542
:10157000982F0E94792104C08B859C850E94D221DE
:10158000FC81FF2309F0E0CE2B81222309F0DCCE81
:10159000112309F0D9CE60960FB6F894DEBF0FBEC6
:1015A000CDBFCF91DF911F910F91FF90EF90DF9012
:1015B000CF90BF90AF909F908F907F906F905F90F3
:1015C0004F903F902F9008959F92AF92BF92CF92ED
:1015D000DF92EF92FF920F931F93982E00D000D0CE
:1015E000882777FD8095982F20EB39E040E050E088
:1015F000EDB7FEB7218332834383548320E030E08C
:1016000040E050E0F4EBEF2EF12C012D112DE4EF32
:10161000AE2EE1E0BE2EC12CD12C0E9409286B0118
:101620007C010F900F900F900F90892D60E00E9429
:10163000B62200EB19E00C191D09000F111FC8019B
:101640000E94D221892D61E00E94B622C6010E942B
:10165000D221892D60E00E94B622C8010E94D221C9
:101660001F910F91FF90EF90DF90CF90BF90AF90C0
:101670009F900895BC018091FA039091FB03823002
:10168000910519F0039771F407C080911E049091A1
:101690001F040E94E40A089580912004909121047F
:1016A0000E94E40A08952091FA033091FB0337FD6C
:1016B0000BC02230310534F0243031052CF40E9467
:1016C0003A0B08950E94670508952091FA0330911E
:1016D000FB0337FD0BC02230310534F024303105D7
:1016E0002CF40E943A0B08950E948A0508950F93E6
:1016F0001F930E94F90B0E94C90B8A3059F40E9473
:10170000F10B8C010E94F40BBC01C8010E94DE1198
:101710000E94E10B0E94C90B8B3359F40E94F10B1C
:101720008C010E94F40BBC01C8010E94721D0E9432
:10173000E10B0E94D40B892B11F00E9457050E94E7
:1017400097021F910F9108950F931F930E94290CE8
:101750000E94A0070E94B4100E94951B0DE116E0A4
:10176000C80162E173E00E94F627C80165E373E0F7
:101770000E94F6278BE393E063E070E00E94DE11A5
:101780001F910F9108950E94770B08950E94A40B5A
:1017900008958091F1049091F204892B11F480E076
:1017A000089580917004089520E030E08091F30462
:1017B0009091F4048151974214F021E030E0C90186
:1017C000089580E0E82FF0E0EF58FB4F10828F5F24
:1017D0008038C1F71092F2041092F1041092700454
:1017E000089581E794E008958091F1049091F204C6
:1017F00008958DE196E00E946E2418161906DCF417
:101800008DE196E00E949F24282F8093700410920F
:10181000F4041092F3048A30D9F08091F10490918D
:10182000F204FC01EF58FB4F208301969093F204E1
:101830008093F10408958091F3049091F40401964B
:101840009093F4048093F30485E090E00E94D22109
:1018500008958DE196E040E855E260E070E00E9476
:10186000E72380E0E82FF0E0EF58FB4F10828F5F16
:101870008038C1F71092F2041092F10410927004B3
:101880000895F999FECF72BD61BDF89A80B50895AB
:10189000F999FECF1FBA72BD61BD40BD0FB6F89475
:1018A000FA9AF99A0FBE08952F923F924F925F9243
:1018B0006F927F928F929F92AF92BF92CF92DF9260
:1018C000EF92FF920F931F93DF93CF93CDB7DEB7C5
:1018D0006C970FB6F894DEBF0FBECDBF6C01498781
:1018E0005A876B877C871901DC011896ED90FD9073
:1018F0000D911C911B978D919D910D90BC91A02DE8
:101900008D839E83AF83B887C801B7012D813E8147
:101910004F8158850E945F2B20E030E040E450E486
:101920000E943F2E6D877E878F87988BF601608996
:10193000718982899389A80197010E945F2B20E019
:1019400030E040E450E40E943F2E2D853E854F85D7
:1019500058890E945F2B698B7A8B8B8B9C8B28E03C
:1019600030E0C20ED31ED6011496ED90FD900D917D
:101970001C911797E8EFFFEFCE0EDF1ED6011496ED
:101980008D919D910D90BC91A02D89839A83AB83FD
:10199000BC83C801B70129813A814B815C810E94D7
:1019A0005F2B20E030E040E450E40E943F2E4B01EA
:1019B0005C01E0E1F0E0CE0EDF1ED60114966D91E1
:1019C0007D918D919C911797A80197010E945F2BA3
:1019D00020E030E040E450E40E943F2EA501940155
:1019E0000E945F2B6D8B7E8B8F8B988F69857A859C
:1019F0008B859C859B01AC010E943F2E2B013C01F5
:101A000029853A854B855C850E943F2E698F7A8FA8
:101A10008B8F9C8FE8E0F0E0CE0EDF1ED60114968F
:101A20006D917D918D919C911797E8EEFFEFCE0E11
:101A3000DF1E29813A814B815C810E945F2BA501C9
:101A400094010E945F2B2D893E894F89588D0E94F9
:101A50005F2B298D3A8D4B8D5C8D0E943F2E7B0133
:101A60008C016D897E898F89988DA30192010E94D6
:101A70003F2E9B01AC01C801B7010E94602B7B0186
:101A80008C01C501B40129853A854B855C850E948E
:101A90003F2E9B01AC01C801B7010E94602B298138
:101AA0003A814B815C810E94602B4B015C01D60125
:101AB00058966D917D918D919C915B972D813E8182
:101AC0004F8158850E945F2B2D853E854F85588913
:101AD0000E945F2B29893A894B895C890E945F2B80
:101AE000298D3A8D4B8D5C8D0E943F2E7B018C01A0
:101AF00069897A898B899C89A30192010E943F2E72
:101B00009B01AC01C801B7010E94602B7B018C01D5
:101B10006D857E858F85988929853A854B855C857D
:101B20000E943F2E9B01AC01C801B7010E94602BAF
:101B30002D813E814F8158850E94602BF101608389
:101B4000718382839383C401D50184839583A683A3
:101B5000B7836C960FB6F894DEBF0FBECDBFCF91A2
:101B6000DF911F910F91FF90EF90DF90CF90BF908A
:101B7000AF909F908F907F906F905F904F903F902D
:101B80002F9008958091220490912304A091240421
:101B9000B09125048093F6049093F704A093F80481
:101BA000B093F9048091260490912704A091280411
:101BB000B09129048093FA049093FB04A093FC0451
:101BC000B093FD0480912A0490912B04A0912C04E1
:101BD000B0912D048093FE049093FF04A093000520
:101BE000B093010508952F923F924F925F926F92AA
:101BF0007F928F929F92AF92BF92CF92DF92EF929D
:101C0000FF920F931F93DF93CF9300D000D0CDB7F7
:101C1000DEB769837A838B839C83E0901A05F0900A
:101C20001B0500911C0510911D0560901E0570900C
:101C30001F0580902005909021052090220530906E
:101C40002305409024055090250520913E053091B4
:101C50003F0540914005509141058091420590918A
:101C60004305A0914405B091450582179307A40749
:101C7000B50784F4A0904605B0904705C09048058C
:101C8000D0904905A216B306C406D50694F45901AE
:101C90006A010FC0A0904605B0904705C090480566
:101CA000D0904905A816B906CA06DB0614F45C01F3
:101CB0006D01C801B701A80197010E943F2E7B0169
:101CC0008C01C401B301A40193010E943F2E9B012A
:101CD000AC01C801B7010E94602B7B018C01C201DD
:101CE000B101A20191010E943F2E9B01AC01C801EC
:101CF000B7010E94602B0E94AC2E20EC31EE44E62E
:101D00005CE40E943F2E29813A814B815C810E94D4
:101D1000402C7B018C01C601B5010E94DB2C9B018C
:101D2000AC01C801B7010E94402C0E94A82C9B0165
:101D3000AC01CA010F900F900F900F90CF91DF91DF
:101D40001F910F91FF90EF90DF90CF90BF90AF90D9
:101D50009F908F907F906F905F904F903F902F90CB
:101D600008958091460590914705A0914805B0914E
:101D70004905181619061A061B063CF460E070E0C7
:101D800088E495E40E94F30D089560913A047091FF
:101D90003B04882777FD8095982F0E94DB2C0E94BA
:101DA000F30D0895AF92BF92CF92DF92EF92FF9220
:101DB0000F931F93A0900E05B0900F05C0901005D3
:101DC000D0901105C601B50120910205309103059F
:101DD00040910405509105050E945F2B7B018C0109
:101DE00020E030E040E050E00E94342E181624F04D
:101DF00017FB109517F91095E0921A05F0921B0544
:101E000000931C0510931D05609112057091130538
:101E100080911405909115052091060530910705D4
:101E200040910805509109050E945F2B7B018C01B0
:101E300020E030E040E050E00E94342E181624F0FC
:101E400017FB109517F91095E0921E05F0921F05EB
:101E500000932005109321056091160570911705D8
:101E6000809118059091190520910A0530910B0574
:101E700040910C0550910D050E945F2B7B018C0158
:101E800020E030E040E050E00E94342E181624F0AC
:101E900017FB109517F91095E0922205F092230593
:101EA00000932405109325056091F6047091F704C2
:101EB0008091F8049091F904A60195010E945B02BB
:101EC0006093320570933305809334059093350504
:101ED0006091FA047091FB048091FC049091FD04E0
:101EE000209112053091130540911405509115056C
:101EF0000E945B0260933605709337058093380526
:101F0000909339056091FE047091FF048091000563
:101F10009091010520911605309117054091180503
:101F2000509119050E945B027B018C0160933A0578
:101F300070933B0580933C0590933D0520913205BD
:101F40003091330540913405509135058091260537
:101F500090912705A0912805B0912905281B390BE0
:101F60004A0B5B0B20933E0530933F0540934005A1
:101F70005093410557FF0FC088279927DC01821B2A
:101F8000930BA40BB50B80933E0590933F05A09354
:101F90004005B093410520913605309137054091B9
:101FA00038055091390580912A0590912B05A09113
:101FB0002C05B0912D05281B390B4A0B5B0B209388
:101FC000420530934305409344055093450557FF20
:101FD0000FC088279927DC01821B930BA40BB50B3C
:101FE0008093420590934305A0934405B093450523
:101FF00080912E0590912F05A0913005B09131056B
:10200000A8019701281B390B4A0B5B0B209346054F
:1020100030934705409348055093490557FF0FC03B
:1020200088279927DC01821B930BA40BB50B8093A7
:10203000460590934705A0934805B0934905109233
:10204000AA0360910E0570910F0580911005909183
:10205000110520910205309103054091040550912E
:1020600005050E94342E88231CF081E08093AA038A
:102070001092AB03609112057091130580911405C5
:1020800090911505209106053091070540910805AE
:10209000509109050E94342E88231CF081E0809322
:1020A000AB031092AC0360911605709117058091F7
:1020B00018059091190520910A0530910B05409162
:1020C0000C0550910D050E94342E88231CF081E0F0
:1020D0008093AC031F910F91FF90EF90DF90CF9012
:1020E000BF90AF9008950F931F938B019C0186E2E0
:1020F00095E062E375E04EE355E00E94E0088091D0
:102100000E0590910F05A0911005B09111058093D7
:10211000020590930305A0930405B09305058091F3
:10212000120590911305A0911405B09115058093A7
:10213000060590930705A0930805B09309058091C3
:10214000160590911705A0911805B0911905809377
:102150000A0590930B05A0930C05B0930D050E9402
:10216000D20E1F910F91089580E090E0A0E0B0E0C2
:102170008093020590930305A0930405B093050591
:102180008093060590930705A0930805B093090571
:1021900080930A0590930B05A0930C05B0930D0551
:1021A00080930E0590930F05A0931005B093110531
:1021B0008093120590931305A0931405B093150511
:1021C0008093160590931705A0931805B0931905F1
:1021D0008091220490912304A0912404B0912504BD
:1021E0008093F6049093F704A093F804B093F90455
:1021F0008091260490912704A0912804B09129048D
:102200008093FA049093FB04A093FC04B093FD0424
:1022100080912A0490912B04A0912C04B0912D045C
:102220008093FE049093FF04A0930005B0930105F2
:102230000E94D20E0895AF92BF92CF92DF92EF929A
:10224000FF920F931F935B016C01609302057093E3
:1022500003058093040590930505209306053093AC
:1022600007054093080550930905E0920A05F0928E
:102270000B0500930C0510930D056091F604709109
:10228000F7048091F8049091F904A60195010E9449
:102290005B02609326057093270580932805909331
:1022A00029056091FA047091FB048091FC049091DF
:1022B000FD042091060530910705409108055091D5
:1022C00009050E945B0260932A0570932B05809399
:1022D0002C0590932D056091FE047091FF04809170
:1022E00000059091010520910A0530910B05409160
:1022F0000C0550910D050E945B0260932E057093B2
:102300002F0580933005909331050E94D20E1F91C6
:102310000F91FF90EF90DF90CF90BF90AF90089516
:10232000DF93CF93CDB7DEB72A970FB6F894DEBF11
:102330000FBECDBF282F19821A821B821C82FE017C
:10234000359686E0DF011D928A95E9F790E024C07A
:10235000E60FF71F80819F5F8217F1F4DE0111966F
:102360009E01255F3F4F09C0E60FF71F808188233C
:1023700061F0803251F08D939F5FE92FF0E0E41718
:10238000F5071CF4A217B30779F7CE01019660E0B8
:1023900070E00E94D30009C0E92FF0E0E417F507D0
:1023A000BCF260E070E080E090E02A960FB6F8940E
:1023B000DEBF0FBECDBFCF91DF9108952F923F9228
:1023C0004F925F926F927F928F929F92AF92BF9245
:1023D000CF92DF92EF92FF920F931F93DF93CF93F1
:1023E000CDB7DEB7CB55D0400FB6F894DEBF0FBEE9
:1023F000CDBF4C013B01DC018C918F3211F40C9468
:10240000301B873439F0883529F0893519F08A3541
:1024100009F053C687E4B401A3010E9490110E9401
:10242000A82C2C966FAF2C976430C8F065961FAE21
:10243000659766961FAE669767961FAE6797689614
:102440001FAE68970F2EF0E02F2EF0E03F2EF0E049
:102450004F2EF0E05F2EF02D6201510183C080917C
:102460004A05882309F441C090E006C0E80DF91D33
:102470008081883541F09F5FE92FF0E0E615F70590
:10248000ACF30C94501B88E5B401A3010E94901199
:102490005B016C0190E006C0E80DF91D8081893573
:1024A00041F09F5FE92FF0E0E615F705ACF30C94DF
:1024B0005A1B89E5B401A3010E9490111B012C0154
:1024C00090E006C0E80DF91D80818A3541F09F5FDC
:1024D000E92FF0E0E615F705ACF30C94641B8AE5F0
:1024E000B401A3010E94901131C088E5B401A30199
:1024F0000E9490112091020530910305409104053E
:10250000509105050E94602B5B016C0189E5B401C7
:10251000A3010E949011209106053091070540917A
:102520000805509109050E94602B1B012C018AE5CA
:10253000B401A3010E94901120910A0530910B056E
:1025400040910C0550910D050E94602B65966FAF70
:10255000659766967FAF669767968FAF6797689621
:102560009FAF68978CE4B401A3010E9490110E9470
:10257000A82C70934C0560934B05161617061CF497
:10258000CB010E94650B2C96EFAD2C97E43109F43A
:1025900021C4E53168F4E43020F4E23008F0A3C04F
:1025A00023C02C96FFAD2C97F43009F064C504C409
:1025B0002C962FAD2C972E3109F4A3C42F3138F46B
:1025C000253109F43CC42C3109F055C577C42C964B
:1025D0003FAD2C973B3509F440C53C3509F440C567
:1025E0003A3509F048C535C5A0920E05B0920F05E1
:1025F000C0921005D0921105209212053092130559
:10260000409214055092150565962FAD6597669614
:102610003FAD669767964FAD679768965FAD6897D1
:10262000C901DA018093160590931705A093180548
:10263000B09319050E94D20E90E006C0E80DF91D76
:102640008081873439F09F5FE92FF0E0E615F705C8
:10265000ACF31FC02C968FAD2C97813089F586E4A2
:10266000B401A3010E9490110E94A82C9B01161690
:1026700017067CF4B901882777FD8095982F0E9472
:10268000DB2C60934D0570934E0580934F0590931E
:102690005005E0904D05F0904E0500914F051091CA
:1026A0005005C801B70120E030E040E050E00E9452
:1026B000342E18162CF4C801B7010E94F30D02C085
:1026C0000E94B10E6093510570935205809353059B
:1026D0009093540560915105709152058091530576
:1026E000909154050BC482E4B401A3010E9490119F
:1026F0000E94A82C6330710509F09EC180910205EB
:1027000090910305A0910405B091050589879A87EA
:10271000AB87BC878091060590910705A0910805BD
:10272000B09109058D879E87AF87B88B81E6B4018C
:10273000A3010E949011698B7A8B8B8B9C8B82E614
:10274000B401A3010E9490116D8B7E8B8F8B988FAB
:1027500083E6B401A3010E949011698F7A8F8B8F59
:102760009C8F84E6B401A3010E9490116D8F7E8F2F
:102770008F8F98A385E6B401A3010E94901169A3ED
:102780007AA38BA39CA386E6B401A3010E949011B7
:102790006DA37EA38FA398A7E984FA840B851C857B
:1027A0008D859E85AF85B88989A79AA7ABA7BCA759
:1027B0002B961FAE1EAE2B970F2EF0E02F2EF0E0C3
:1027C0003F2EF0E04F2EF0E05F2EF02D2B96AEADB9
:1027D000BFAD2B97BD01882777FD8095982F0E946C
:1027E000DB2C29E33EE843EE5DE30E943F2EAB0184
:1027F000BC01CE0109969E012F5F3F4F0E94540CF1
:1028000089819A81AB81BC8129968CAF9DAFAEAF97
:10281000BFAF2997C801B70129962CAD3DAD4EAD8C
:102820005FAD29970E945F2B5B016C018D819E81BA
:10283000AF81B88525968CAF9DAFAEAFBFAF259762
:1028400069A57AA58BA59CA525962CAD3DAD4EAD71
:102850005FAD25970E945F2B7B018C01C601B501FE
:10286000A60195010E943F2E5B016C01C801B701D2
:10287000A80197010E943F2E9B01AC01C601B50142
:102880000E94602B7B018C0120E030E040E050E0B2
:102890000E94342E181664F4C801B7010E94AC2EB1
:1028A0009B01AC01C201B1010E94602B1B012C01F4
:1028B0002B96AEADBFAD2B9711962B96BFAFAEAF9B
:1028C0002B971A9789F02996ECACFDAC0EAD1FAD95
:1028D000299725968CAD9DADAEADBFAD259789A747
:1028E0009AA7ABA7BCA772CFC201B1012091A403E4
:1028F0003091A5034091A6035091A7030E94402C5C
:102900000E94262C0E94A82C6B0192E0C916D104CB
:102910001CF482E0C82ED12C0894C108D108B6015D
:10292000882777FD8095982F0894C11CD11C0E94A0
:10293000DB2C9B01AC0160E070E080E89FE30E942B
:10294000402C1B012C01AA24BB24B501882777FD4C
:102950008095982F0E94DB2CA20191010E943F2EAE
:10296000AB01BC01CE0109969E012F5F3F4F0E9433
:10297000540C2D813E814F81588589819A81AB818C
:10298000BC8180930E0590930F05A0931005B09322
:1029900011052093120530931305409314055093AD
:1029A000150565962FAD659766963FAD6697679658
:1029B0004FAD679768965FAD6897C901DA0180935C
:1029C000160590931705A0931805B09319050E945A
:1029D000D20EE0904D05F0904E0500914F051091FC
:1029E0005005C801B70120E030E040E050E00E940F
:1029F000342E18162CF4C801B7010E94F30D02C042
:102A00000E94B10E60935105709352058093530557
:102A10009093540560915105709152058091530532
:102A2000909154050E9473100894A11CB11CAC1421
:102A3000BD040CF48ACF36C389E4B401A3010E941B
:102A400090112091020530910305409104055091A9
:102A500005050E94602B64966CAF7DAF8EAF9FAF73
:102A600064978AE4B401A3010E949011E0900605E6
:102A7000F09007050091080510910905A80197013C
:102A80000E94602B60966CAF7DAF8EAF9FAF60975A
:102A900060910205709103058091040590910505F0
:102AA00064962CAD3DAD4EAD5FAD64970E945F2B3B
:102AB0006DAB7EAB8FAB98AFC801B70160962CAD04
:102AC0003DAD4EAD5FAD60970E945F2B69AB7AABB9
:102AD0008BAB9CABC601B50164962CAD3DAD4EAD44
:102AE0005FAD64970E945F2B5B016C01C201B10175
:102AF00060962CAD3DAD4EAD5FAD60970E945F2BF3
:102B00007B018C012C96AFAD2C97A230A1F4C801AB
:102B10009501A6010E94D32B21966CAF7DAF8EAF9D
:102B20009FAF219769A97AA98BA99CA92DA93EA934
:102B30004FA958AD14C069A97AA98BA99CA92DA940
:102B40003EA94FA958AD0E94D32B21966CAF7DAF03
:102B50008EAF9FAF2197B701C8019501A6010E94D2
:102B6000D32B7B018C0121962CAD3DAD4EAD5FADDD
:102B700021970E94392C181654F0C801B7012BED8B
:102B80003FE049EC50E40E94602B7B018C01C801BE
:102B9000B70121962CAD3DAD4EAD5FAD21970E94A2
:102BA0005F2B69AF7AAF8BAF9CAF6DA97EA98FA960
:102BB00098AD9B01AC010E943F2E7B018C0169A95D
:102BC0007AA98BA99CA99B01AC010E943F2E9B0175
:102BD000AC01C801B7010E94602B0E94AC2E1B0102
:102BE0002C0129AD3AAD4BAD5CAD0E943F2E20913A
:102BF000A4033091A5034091A6035091A7030E941E
:102C0000402C0E94262C0E94A82C78AB6FA7E1E0F4
:102C1000F0E0FEA7EDA7CB01AA2797FDA095BA2F5C
:102C20006C968CAF9DAFAEAFBFAF6C97BCC02C960F
:102C30009FAD2C97933019F42DA53EA506C02FA566
:102C400038A9ADA5BEA52A1B3B0BB901882777FD86
:102C50008095982F0E94DB2C7B018C016C966CADCB
:102C60007DAD8EAD9FAD6C970E94DB2C9B01AC01BE
:102C7000C801B7010E94402C9B01AC0169AD7AAD3F
:102C80008BAD9CAD0E943F2E9B01AC0121966CAD9B
:102C90007DAD8EAD9FAD21970E94602B7B018C0195
:102CA000C8010E943D2C5B016C01B701C8010E9464
:102CB000A22E7B018C01C201B101A60195010E94E7
:102CC0003F2E9B01AC0164966CAD7DAD8EAD9FAD8A
:102CD00064970E94602B60930E0570930F0580939C
:102CE000100590931105C201B101A80197010E943E
:102CF0003F2E9B01AC0160966CAD7DAD8EAD9FAD5E
:102D000060970E94602B6093120570931305809367
:102D100014059093150565962FAD659766963FADA2
:102D2000669767964FAD679768965FAD6897C901DC
:102D3000DA018093160590931705A0931805B093B8
:102D400019050E94D20EE0904D05F0904E050091BD
:102D50004F0510915005C801B70120E030E040E078
:102D600050E00E94342E18162CF4C801B7010E94BE
:102D7000F30D02C00E94B10E60935105709352058D
:102D800080935305909354056091510570915205BD
:102D900080915305909154050E947310EDA5FEA5F6
:102DA0003196FEA7EDA72DA53EA58FA598A9821760
:102DB00093070CF03CCF76C180E5B401A3010E94DB
:102DC00090110E94A82C882777FD8095982F0E944B
:102DD000792168C180912E0490912F04A091300434
:102DE000B09131048093F6049093F704A093F80413
:102DF000B093F9048091320490913304A09134048B
:102E0000B09135048093FA049093FB04A093FC04E2
:102E1000B093FD048091360490913704A09138045A
:102E2000B09139048093FE049093FF04A0930005B1
:102E3000B093010589E092E0A1E8BBE334C0809142
:102E4000220490912304A0912404B091250480933E
:102E5000F6049093F704A093F804B093F9048091DA
:102E6000260490912704A0912804B091290480930E
:102E7000FA049093FB04A093FC04B093FD048091AA
:102E80002A0490912B04A0912C04B0912D048093DE
:102E9000FE049093FF04A0930005B09301058DEC10
:102EA0009CECACECBDE38093A4039093A503A093AA
:102EB000A603B093A7030E94D20EF4C080E090E076
:102EC000A0E0B0E080930E0590930F05A09310054D
:102ED000B09311058093120590931305A0931405E8
:102EE000B09315058093160590931705A0931805C8
:102EF000B09319050E94D20E0E94B10E0E94731069
:102F0000D1C088E5B401A3010E9490111B012C01DE
:102F100089E5B401A3010E9490117B018C018AE52F
:102F2000B401A3010E9490115B016C0180914A05DC
:102F3000882309F443C090E006C0E80DF91D8081A4
:102F4000883539F09F5FE92FF0E0E615F705ACF31F
:102F5000D1C390E006C0E80DF91D8081893539F0B4
:102F60009F5FE92FF0E0E615F705ACF3CCC390E0E6
:102F700006C0E80DF91D80818A3539F09F5FE92F81
:102F8000F0E0E615F705ACF3C7C320920E053092CA
:102F90000F054092100550921105E0921205F09233
:102FA00013050093140510931505A0921605B09211
:102FB0001705C0921805D092190544C0C801B70181
:102FC00020910605309107054091080550910905AB
:102FD0000E94602B7B018C01C601B50120910A057E
:102FE00030910B0540910C0550910D050E94602B0E
:102FF0005B016C01609102057091030580910405ED
:1030000090910505A20191010E94602B60930E052D
:1030100070930F058093100590931105C701D80197
:103020008093120590931305A0931405B093150592
:10303000C501D6018093160590931705A093180536
:10304000B09319050E94D20E0E94B10E0E94731017
:1030500035CF81E080934A0525C010924A0522C0F1
:1030600060E070E080E090E09B01AC017B018C01AE
:103070000E941B1117C08DE196E062E473E00E948C
:103080000C278DE196E02C966FAD2C974AE050E02E
:103090000E9456268DE196E06AE070E04AE050E03A
:1030A0000E94ED2680914B0590914C05181619064B
:1030B00024F480E090E00E94530BD4018C918D3475
:1030C00009F041C0B401A3010E9490110E94AD2CEF
:1030D0007B018C01633019F06530B1F410C08CE4D1
:1030E000B401A3010E9490110E94A82CDC01CB0125
:1030F0009093A9038093A8030E94650B12C080E0FF
:1031000090E00E94530B0DC08DE196E06BE473E0FC
:103110000E940C278DE196E06E2D4AE050E00E945F
:10312000682680E5B401A3010E9490110E94A82C9A
:103130009B01161617063CF4B901882777FD809588
:10314000982F0E947921F4018081843569F4B401BB
:10315000A3010E9490110E94AD2CDC01CB0190E0F4
:10316000B401A3010E940106D4018C91843209F0BC
:1031700077C2B401A3010E9490110E94AD2C65306A
:1031800009F46FC1663070F4623039F1633020F4B5
:10319000613009F065C223C06330E9F0643009F0A2
:1031A0005FC217C0683079F0693030F4663079F06A
:1031B000673009F055C209C0693009F4F3C16531BF
:1031C00009F04EC226C290E0BFC190E0A3C190E0DA
:1031D0005AC190E0FCC090E0AAC090E058C090E0D6
:1031E00006C0E80DF91D8081883539F09F5FE92F11
:1031F000F0E0E615F705ACF30DC088E5B401A301D6
:103200000E9490110E94A82C9B01AC0188E5B90195
:103210000E94890790E006C0E80DF91D808189357C
:1032200039F09F5FE92FF0E0E615F705ACF30DC02C
:1032300089E5B401A3010E9490110E94A82C9B0172
:10324000AC0189E5B9010E94890790E006C0E80D4C
:10325000F91D80818A3539F09F5FE92FF0E0E6158E
:10326000F705ACF3FDC18AE5B401A3010E949011FA
:103270000E94A82C9B01AC018AE5B9010E94890734
:10328000EFC1E80DF91D8081883539F09F5FE92F86
:10329000F0E0E615F705ACF30DC088E5B401A30135
:1032A0000E9490110E94A82C9B01AC0188E5B901F5
:1032B0000E94720790E006C0E80DF91D80818935F3
:1032C00039F09F5FE92FF0E0E615F705ACF30DC08C
:1032D00089E5B401A3010E9490110E94A82C9B01D2
:1032E000AC0189E5B9010E94720790E006C0E80DC3
:1032F000F91D80818A3539F09F5FE92FF0E0E615EE
:10330000F705ACF3ADC18AE5B401A3010E949011A9
:103310000E94A82C9B01AC018AE5B9010E947207AA
:103320009FC1E80DF91D8081883539F09F5FE92F35
:10333000F0E0E615F705ACF30DC088E5B401A30194
:103340000E9490110E94A82C9B01AC0188E5B90154
:103350000E945B0790E006C0E80DF91D8081893569
:1033600039F09F5FE92FF0E0E615F705ACF30DC0EB
:1033700089E5B401A3010E9490110E94A82C9B0131
:10338000AC0189E5B9010E945B0790E006C0E80D39
:10339000F91D80818A3539F09F5FE92FF0E0E6154D
:1033A000F705ACF35DC18AE5B401A3010E94901159
:1033B0000E94A82C9B01AC018AE5B9010E945B0721
:1033C0004FC1E80DF91D8081883539F09F5FE92FE5
:1033D000F0E0E615F705ACF30DC088E5B401A301F4
:1033E0000E9490110E94A82C9B01AC0188E5B901B4
:1033F0000E94440790E006C0E80DF91D80818935E0
:1034000039F09F5FE92FF0E0E615F705ACF30DC04A
:1034100089E5B401A3010E9490110E94A82C9B0190
:10342000AC0189E5B9010E94440790E006C0E80DAF
:10343000F91D80818A3539F09F5FE92FF0E0E615AC
:10344000F705ACF30DC18AE5B401A3010E94901108
:103450000E94A82C9B01AC018AE5B9010E94440797
:10346000FFC08DE6B401A3010E9490110E94A82C18
:10347000DC01CB010E94B906F3C0E80DF91D808183
:10348000883539F09F5FE92FF0E0E615F705ACF3DA
:103490000AC088E5B401A3010E949011AB01BC01F0
:1034A00088E50E94710290E006C0E80DF91D808158
:1034B000893539F09F5FE92FF0E0E615F705ACF3A9
:1034C0000AC089E5B401A3010E949011AB01BC01BF
:1034D00089E50E94710290E006C0E80DF91D808127
:1034E0008A3539F09F5FE92FF0E0E615F705ACF378
:1034F00022C08AE5B401A3010E949011AB01BC0176
:103500008AE50E94710217C0E80DF91D808186349A
:1035100039F09F5FE92FF0E0E615F705ACF3A0C0A6
:1035200086E4B401A3010E9490110E94A82CDC0142
:10353000CB010E9492020E94B41092C0E80DF91DC6
:103540008081813439F09F5FE92FF0E0E615F705BF
:10355000ACF30DC081E4B401A3010E9490110E945C
:10356000A82C9B01AC0181E4B9010E94E50690E022
:1035700006C0E80DF91D8081823439F09F5FE92F84
:10358000F0E0E615F705ACF30DC082E4B401A30149
:103590000E9490110E94A82C9B01AC0182E4B90109
:1035A0000E94E50690E006C0E80DF91D8081813497
:1035B00039F09F5FE92FF0E0E615F705ACF30DC099
:1035C00081E4B401A3010E9490110E94A82C9B01E8
:1035D000AC0181E4B9010E94A60690E006C0E80DA6
:1035E000F91D8081823439F09F5FE92FF0E0E61504
:1035F000F705ACF335C082E4B401A3010E94901139
:103600000E94A82C9B01AC0182E4B9010E94A6068D
:1036100027C08CE4B401A3010E9490110E94A82C41
:103620006115710519F0CB010E94D20383E5B40145
:10363000A3010E9490110E94A82C6115710519F038
:10364000CB010E94050480E5B401A3010E94901102
:103650000E94A82C6115710519F0CB010E94BF02D0
:103660008DE196E06FE373E00E94F627C55ADF4FC5
:103670000FB6F894DEBF0FBECDBFCF91DF911F9183
:103680000F91FF90EF90DF90CF90BF90AF909F9001
:103690008F907F906F905F904F903F902F90089504
:1036A000A0900205B0900305C0900405D0900505D8
:1036B0000C944A12209006053090070540900805AA
:1036C000509009050C946012B0910A056596BFAF41
:1036D0006597E0910B056696EFAF6697F0910C0544
:1036E0006796FFAF679720910D0568962FAF689793
:1036F0000C94B2122090020530900305409004050E
:103700005090050526CCE0900605F0900705009145
:103710000805109109052BCCA0900A05B0900B0567
:10372000C0900C05D0900D0530CC10926C05109215
:103730006D0510926E0510926F051092780510922B
:10374000790510927A0510927B05109284051092EB
:1037500085051092860510928705089581309105A0
:1037600051F46F5F7F4F81F48DE595E064E573E080
:103770000E9410290895892B39F46F5F7F4F21F43F
:103780008DE595E00E944329089580E090E06FEF79
:103790007FEF0E94AE1B089581E090E06FEF7FEF16
:1037A0000E94AE1B0895EF92FF920F931F93CF9349
:1037B000DF93EC0110926405109265051092660586
:1037C00010926705109268051092690510926A05BB
:1037D00010926B051092700510927105109272058F
:1037E00010927305E0902604F090270400912804BD
:1037F00010912904BE01882777FD8095982F0E949B
:10380000DB2C2DEC3CEC4CEC5DE30E943F2E9B014D
:10381000AC01C801B7010E945B0222273327A9012E
:10382000261B370B480B590B2093740530937505F5
:10383000409376055093770510927C0510927D0594
:1038400010927E0510927F052093800530938105AC
:10385000409382055093830557FF0FC0882799270F
:10386000DC01821B930BA40BB50B80938005909316
:103870008105A0938205B09383058091880590917E
:103880008905A0918A05B0918B05181619061A06AC
:103890001B0684F080913A0490913B04AA2797FD7F
:1038A000A095BA2F8093880590938905A0938A05E7
:1038B000B0938B059E01D7FF03C0309521953F4FF4
:1038C000B901882777FD8095982F0E94DB2C2DEC7D
:1038D0003CEC4CEC5DE30E943F2E20EC31EE44E6E4
:1038E0005CE40E943F2E7B018C0160918805709101
:1038F000890580918A0590918B050E94DB2C9B01A4
:10390000AC01C801B7010E94402C20E030E040E04B
:1039100050E00E94402C0E94A82C8B019C0184E660
:1039200095E060E775E04CE755E00E94E008DF9124
:10393000CF911F910F91FF90EF900895AF92BF929A
:10394000CF92DF92EF92FF920F931F93CF93DF936B
:10395000EC011092640510926505109266051092B4
:103960006705109268051092690510926A05109219
:103970006B05E0902204F090230400912404109140
:103980002504BE01882777FD8095982F0E94DB2CA7
:103990002DEC3CEC4CEC5DE30E943F2E9B01AC0116
:1039A000C801B7010E945B02909580957095619562
:1039B0007F4F8F4F9F4F6093700570937105809379
:1039C000720590937305109274051092750510920C
:1039D0007605109277055B016C0197FF08C0D094C3
:1039E000C094B094A094A11CB11CC11CD11CA09285
:1039F0007C05B0927D05C0927E05D0927F05109225
:103A000080051092810510928205109283058091A5
:103A1000880590918905A0918A05B0918B051816AB
:103A200019061A061B0684F080913A0490913B0413
:103A3000AA2797FDA095BA2F8093880590938905B2
:103A4000A0938A05B0938B059E01D7FF03C03095E4
:103A500021953F4FB901882777FD8095982F0E94C7
:103A6000DB2C2DEC3CEC4CEC5DE30E943F2E20EC7B
:103A700031EE44E65CE40E943F2E7B018C016091B4
:103A800088057091890580918A0590918B050E9427
:103A9000DB2C9B01AC01C801B7010E94402C7B01CB
:103AA0008C01C601B5010E94DB2C9B01AC01C80151
:103AB000B7010E94402C0E94A82C8B019C0184E637
:103AC00095E060E775E04CE755E00E94E008DF9183
:103AD000CF911F910F91FF90EF90DF90CF90BF900B
:103AE000AF9008952F923F924F925F926F927F9284
:103AF0008F929F92AF92BF92CF92DF92EF92FF92FE
:103B00000F931F93CF93DF934C015B01CC24DD24F3
:103B100033E0632E712C21E0422E512C92E0292EAD
:103B2000312C4DC3F401EC0DFD1D10818DE595E0A8
:103B3000612F0E94CA28133509F441C0143554F48A
:103B40001C3409F44BC01D3409F45CC01B3309F06C
:103B50006BC008C01835A9F0193511F1153509F0F9
:103B600063C03FC010925605109255058DE595E053
:103B700064E573E00E942A298DE196E065E573E033
:103B800051C050925605409255058DE595E064E58B
:103B900073E00E942A298DE196E068E573E042C057
:103BA00030925605209255058DE595E064E573E069
:103BB0000E942A298DE196E06EE573E033C0709291
:103BC0005605609255058DE595E064E573E00E9429
:103BD0002A298DE196E064E673E024C084E090E059
:103BE00002C085E090E090935605809355058DE5E1
:103BF00095E064E573E00E942A298DE196E06AE68B
:103C000073E010C087E090E09093560580935505CF
:103C10008DE595E064E573E00E942A298DE196E048
:103C200060E773E00E94F627809155059091560554
:103C30008330910509F498C1843091051CF40197F3
:103C40006CF4AEC28530910509F4DEC08530910573
:103C50000CF401C2079709F0A3C259C28091610513
:103C600090916205059709F09BC28DE595E060E0B3
:103C700070E00E945228FC01E0818E2F80538A3030
:103C800028F4EE2EFF2480ED9FEF0CC08E2F815480
:103C9000863020F0EE24EA94FE2C06C0EE2EFF249F
:103CA00089EC9FEFE80EF91E8DE595E061E070E08C
:103CB0000E945228FC01E0818E2F80538A3028F424
:103CC0000E2F10E0005310400BC08E2F8154863011
:103CD00018F00FEF1FEF04C00E2F10E00753104035
:103CE0008DE595E062E070E00E945228FC01E081E1
:103CF0008E2F80538A3020F4CE2FD0E0E0970AC078
:103D00008E2F8154863018F0CFEFDFEF03C0CE2F17
:103D1000D0E0E7978DE595E063E070E00E945228DF
:103D2000FC01E0818E2F80538A3018F4F0E0F09788
:103D300009C08E2F8154863018F0EFEFFFEF02C0DC
:103D4000F0E0F797902F8827FE2CEE24F29400EFF6
:103D5000F0228E299F2914E0CC0FDD1F1A95E1F780
:103D60008C2B9D2B8E2B9F2B909358058093570562
:103D70008DE595E064E070E00E945228FC01E0814E
:103D80008E2F80538A3020F48E2F90E0C09707C08A
:103D90008E2F8154863040F48E2F90E0C797892B68
:103DA00019F42FEF3FEF02C021E030E0809155057C
:103DB000909156054091570550915805019751F43F
:103DC000249FC001259F900D349F900D11240E94C7
:103DD0009E1C09C0249FC001259F900D349F900D0B
:103DE00011240E94D31B8DE595E064E573E00E94E9
:103DF0002A298DE196E066E773E00E940C27609126
:103E000057057091580520C1809161059091620518
:103E1000049709F0C5C18DE595E060E070E00E946F
:103E20005228FC01E0818E2F80538A3028F4EE2E38
:103E3000FF2480ED9FEF0CC08E2F8154863020F040
:103E4000EE24EA94FE2C06C0EE2EFF2489EC9FEFB0
:103E5000E80EF91E8DE595E061E070E00E945228C1
:103E6000FC01E0818E2F80538A3028F40E2F10E061
:103E7000005310400BC08E2F8154863018F00FEF86
:103E80001FEF04C00E2F10E0075310408DE595E0A2
:103E900062E070E00E945228FC01E0818E2F805386
:103EA0008A3020F4CE2FD0E0E0970AC08E2F8154C4
:103EB000863018F0CFEFDFEF03C0CE2FD0E0E797CA
:103EC0008DE595E063E070E00E945228FC01E081FE
:103ED0008E2F80538A3018F4F0E0F09709C08E2FAF
:103EE0008154863018F0EFEFFFEF02C0F0E0F79753
:103EF000902F8827FE2CEE24F294A0EFFA228E2930
:103F00009F2974E0CC0FDD1F7A95E1F78C2B9D2B58
:103F10008E2B9F2B90935A05809359058DE595E044
:103F200064E573E00E942A298DE196E06CE773E076
:103F30000E940C276091590570915A058DE196E019
:103F40004AE050E00E94ED262091590530915A0533
:103F5000121613060CF024C1B901882777FD80954D
:103F6000982F0E9479211CC1809161059091620572
:103F7000029709F015C18DE595E060E070E00E94C0
:103F80005228FC01E0818E2F80538A3020F4CE2FFE
:103F9000D0E0E0970AC08E2F8154863018F0CFEF22
:103FA000DFEF03C0CE2FD0E0E7978DE595E061E02D
:103FB00070E00E945228FC01E0818E2F80538A30ED
:103FC00020F48E2F90E0C0970AC08E2F8154863047
:103FD00018F08FEF9FEF03C08E2F90E0C797FE0180
:103FE00064E0EE0FFF1F6A95E1F7E82BF92BF093E1
:103FF000AE03E093AD031E161F06B4F4CF0153E0E9
:10400000880F991F5A95E1F7EE0FFF1F8E0F9F1F24
:10401000AA2797FDA095BA2F8093880590938905CC
:10402000A0938A05B0938B058DE595E064E573E078
:104030000E942A298DE196E068E873E00E940C272F
:104040006091AD037091AE038DE196E04AE050E0DF
:104050000E94ED26A5C080916105909162050297AE
:1040600009F09EC08DE595E060E070E00E94522866
:10407000FC01E0818E2F80538A3020F4CE2FD0E0D7
:10408000E0970AC08E2F8154863018F0CFEFDFEF13
:1040900003C0CE2FD0E0E7978DE595E061E070E0BA
:1040A0000E945228FC01E0818E2F80538A3020F438
:1040B0008E2F90E0C0970AC08E2F8154863018F062
:1040C0008FEF9FEF03C08E2F90E0C79734E0CC0FA7
:1040D000DD1F3A95E1F7C82BD92B209729F480E012
:1040E00090E00E94530B03C0CE010E94650B8DE54A
:1040F00095E064E573E00E942A298DE196E06FE87F
:1041000073E00E940C278DE196E0BE019FCF809165
:10411000610590916205029709F042C08DE595E036
:1041200060E070E00E945228FC01E0818E2F8053F5
:104130008A3020F4CE2FD0E0E0970AC08E2F815431
:10414000863018F0CFEFDFEF03C0CE2FD0E0E79737
:104150008DE595E061E070E00E945228FC01E0816D
:104160008E2F80538A3018F4F0E0F09709C08E2F1C
:104170008154863018F0EFEFFFEF02C0F0E0F797C0
:10418000CE0124E0880F991F2A95E1F78E2B9F2BF3
:1041900090935C0580935B05019711F40E9457058D
:1041A0008091610590916205819730F08DE595E0F1
:1041B00064E573E00E942A290894C11CD11CCA142A
:1041C000DB040CF4AFCCDF91CF911F910F91FF90E6
:1041D000EF90DF90CF90BF90AF909F908F907F90A7
:1041E0006F905F904F903F902F900895CF92DF9205
:1041F000EF92FF920F931F936C01842FF6011782A9
:10420000168211821082738362831186108616864D
:104210001786108A118A428B538B358B248B178B10
:10422000068BF18EE08E61E00E947722F601848990
:1042300061E00E947722F601868961E00E94772280
:10424000F601808D61E00E94772284E090E0F60123
:10425000958384831F910F91FF90EF90DF90CF9013
:1042600008951F920F920FB60F9211242F933F9330
:104270008F939F93AF93BF938091900590919105F9
:10428000A0919205B0919305309194050196A11DDE
:10429000B11D232F2D5F2D3720F02D570196A11D25
:1042A000B11D209394058093900590939105A09360
:1042B0009205B093930580918C0590918D05A09106
:1042C0008E05B0918F050196A11DB11D80938C05BF
:1042D00090938D05A0938E05B0938F05BF91AF91FC
:1042E0009F918F913F912F910F900FBE0F901F9034
:1042F00018959B01AC017FB7F89480918C05909143
:104300008D05A0918E05B0918F0566B5A89B05C05F
:104310006F3F19F00196A11DB11D7FBFBA2FA92FC4
:10432000982F8827860F911DA11DB11D62E0880F6F
:10433000991FAA1FBB1F6A95D1F7BC012DC0FFB7FB
:10434000F89480918C0590918D05A0918E05B09187
:104350008F05E6B5A89B05C0EF3F19F00196A11D9A
:10436000B11DFFBFBA2FA92F982F88278E0F911D3F
:10437000A11DB11DE2E0880F991FAA1FBB1FEA957E
:10438000D1F7861B970B885E9340C8F221503040CE
:104390004040504068517C4F211531054105510581
:1043A00071F60895019739F0880F991F880F991FAA
:1043B00002970197F1F70895789484B5826084BDDF
:1043C00084B5816084BD85B5826085BD85B5816019
:1043D00085BDEEE6F0E0808181608083E1E8F0E079
:1043E0001082808182608083808181608083E0E8A8
:1043F000F0E0808181608083E1EBF0E08081846087
:104400008083E0EBF0E0808181608083EAE7F0E088
:1044100080818460808380818260808380818160EC
:1044200080838081806880831092C10008951F93EB
:10443000CF93DF93182FEB0161E00E947722209742
:1044400009F44AC0CF3FD10509F449C0E12FF0E09B
:10445000E750FF4F84918330C1F0843028F48130DD
:1044600051F08230B1F50CC0863019F1873049F136
:10447000843079F514C084B5806884BDC7BD33C06D
:1044800084B5806284BDC8BD2EC0809180008068E4
:1044900080938000D0938900C093880024C08091CD
:1044A0008000806280938000D0938B00C0938A004C
:1044B0001AC08091B00080688093B000C093B300B0
:1044C00012C08091B00080628093B000C093B400AD
:1044D0000AC0C038D1051CF4812F60E002C0812FD2
:1044E00061E00E94B622DF91CF911F910895CF9392
:1044F000DF93482F50E0CA018B519F4FFC0134914C
:104500004F525F4FFA018491882369F190E0880F40
:10451000991FFC01ED54FF4FA591B491FC01E354A8
:10452000FF4FC591D491662351F42FB7F8948C9125
:10453000932F909589238C93888189230BC06230B7
:1045400061F42FB7F8948C91932F909589238C93D5
:104550008881832B88832FBF06C09FB7F8948C91E6
:10456000832B8C939FBFDF91CF910895482F50E00C
:10457000CA0187509F4FFC012491CA018B519F4F64
:10458000FC0194914F525F4FFA013491332309F4A7
:1045900040C0222351F1233071F0243028F421301F
:1045A000A1F0223011F514C02630B1F02730C1F04F
:1045B0002430D9F404C0809180008F7703C08091AB
:1045C00080008F7D8093800010C084B58F7702C0FB
:1045D00084B58F7D84BD09C08091B0008F7703C002
:1045E0008091B0008F7D8093B000E32FF0E0EE0F5C
:1045F000FF1FE354FF4FA591B4912FB7F8946623A2
:1046000021F48C919095892302C08C91892B8C93F5
:104610002FBF0895682F70E0CB0187509F4FFC019A
:104620002491CB018B519F4FFC0144916F527F4FDE
:10463000FB019491992319F420E030E03CC022233F
:1046400051F1233071F0243028F42130A1F02230D0
:1046500011F514C02630B1F02730C1F02430D9F460
:1046600004C0809180008F7703C0809180008F7D8F
:104670008093800010C084B58F7702C084B58F7D91
:1046800084BD09C08091B0008F7703C08091B000D5
:104690008F7D8093B000892F90E0880F991F8953F8
:1046A0009F4FFC01A591B4918C9120E030E08423D0
:1046B00011F021E030E0C901089508951F920F9292
:1046C0000FB60F9211242F933F934F938F939F9385
:1046D000EF93FF938091C00082FD1DC04091C60002
:1046E0002091D5053091D6052F5F3F4F2F73307045
:1046F0008091D7059091D8052817390771F0E0917E
:10470000D505F091D605EB56FA4F40833093D60588
:104710002093D50502C08091C600FF91EF919F9133
:104720008F914F913F912F910F900FBE0F901F903F
:104730001895E0912906F0912A06E05CFF4F8191DF
:10474000919120813181821B930B8F739070892B03
:1047500011F00E945D2308951F920F920FB60F92E1
:1047600011242F933F938F939F93EF93FF93209167
:10477000190630911A0680911B0690911C06281785
:10478000390731F48091C1008F7D8093C10014C03E
:10479000E0911B06F0911C06E752FA4F20818091B0
:1047A0001B0690911C0601968F73907090931C06C7
:1047B00080931B062093C600FF91EF919F918F91EC
:1047C0003F912F910F900FBE0F901F901895AF92B1
:1047D000BF92DF92EF92FF920F931F93CF93DF93DD
:1047E000EC017A018B01DD24403081EE580780E036
:1047F000680780E0780711F0DD24D39491E0A92EBA
:10480000B12CEC89FD89DD2069F0C50108A002C04A
:10481000880F991F0A94E2F7808360E079E08DE3C6
:1048200090E005C0108260E874E88EE190E0A80195
:1048300097010E94472F21503040404050405695EC
:1048400047953795279580E12030380720F0DD2007
:1048500011F0DD24D6CFE889F9893083EA89FB8914
:10486000208319A2EE89FF89408121E030E0C9014F
:104870000C8C02C0880F991F0A94E2F7482B4083E2
:10488000EE89FF894081C9010D8C02C0880F991FF4
:104890000A94E2F7482B4083EE89FF894081C901E1
:1048A0000E8C02C0880F991F0A94E2F7482B4083B0
:1048B000EE89FF8980810F8C02C0220F331F0A947A
:1048C000E2F7209528232083DF91CF911F910F914C
:1048D000FF90EF90DF90BF90AF900895DC011C96A1
:1048E000ED91FC911D97E05CFF4F2191319180810A
:1048F0009181281B390B2F733070C9010895DC0199
:104900001C96ED91FC911D97E05CFF4F2081318159
:10491000E054F040DF01AE5BBF4F8D919C91119749
:104920002817390719F42FEF3FEF07C08D919C919D
:10493000E80FF91F8081282F30E0C9010895DC01BC
:104940001C96ED91FC911D97E05CFF4F2081318119
:10495000E054F040DF01AE5BBF4F8D919C91119709
:104960002817390719F42FEF3FEF10C08D919C9154
:104970001197E80FF91F20818D919C911197019655
:104980008F73907011969C938E9330E0C9010895B7
:10499000DC0191968C919197882339F05496ED9192
:1049A000FC915597808186FFF9CF91961C920895CE
:1049B000CF93DF93EC01EE85FF85E05CFF4F208114
:1049C0003181E054F0402F5F3F4F2F733070DF0193
:1049D000AE5BBF4F8D919C91119728173907D1F38A
:1049E000E05CFF4F80819181E054F040E80FF91FB7
:1049F0006083EE85FF85E05CFF4F31832083EE8985
:104A0000FF89208181E090E00F8C02C0880F991F00
:104A10000A94E2F7282B208381E089A3EC89FD89A1
:104A200080818064808381E090E0DF91CF91089560
:104A30001092200610921F0688EE93E0A0E0B0E0EE
:104A40008093210690932206A0932306B093240618
:104A500089EB93E090931E0680931D0685E995E00F
:104A600090932A068093290689ED95E090932C0671
:104A700080932B0685EC90E090932E0680932D0674
:104A800084EC90E09093300680932F0680EC90E0C9
:104A9000909332068093310681EC90E09093340637
:104AA0008093330682EC90E090933606809335062F
:104AB00086EC90E0909338068093370684E08093EC
:104AC000390683E080933A0687E080933B0685E0D1
:104AD00080933C0681E080933D060895CF93DF9359
:104AE0000E94DC210E94C60BC9E9D3E20E94C30BDD
:104AF0002097E1F30E949923F9CFCF92DF92EF92B2
:104B0000FF920F931F93CF93DF937C016B018A0178
:104B1000C0E0D0E00FC0D6016D916D01D701ED91DD
:104B2000FC910190F081E02DC7010995C80FD91FB4
:104B3000015010400115110571F7CE01DF91CF91A1
:104B40001F910F91FF90EF90DF90CF900895EF921B
:104B5000FF920F931F938C01DC01ED91FC9101906A
:104B6000F081E02D6DE009957C01D801ED91FC917B
:104B70000190F081E02DC8016AE009959C012E0D9D
:104B80003F1DC9011F910F91FF90EF900895CF93A2
:104B9000DF93EC016115710519F420E030E00FC0DE
:104BA000DB010D900020E9F71197A61BB70BE881F8
:104BB000F9810280F381E02DAD0109959C01C901C5
:104BC000DF91CF9108954F925F927F928F929F9243
:104BD000AF92BF92CF92DF92EF92FF920F931F930B
:104BE000DF93CF93CDB7DEB7A1970FB6F894DEBFB2
:104BF0000FBECDBF2C01742ECB01223008F42AE069
:104C000019A231E2C32ED12CCC0EDD1E822E9924A6
:104C1000AA24BB24672D752FA50194010E94472F5C
:104C200079018A01C801B701A50194010E94152FDD
:104C3000472D461B0894C108D1084A3014F4405D42
:104C400001C0495CF6014083E114F104010511053E
:104C500021F07E2C5F2DC801DDCFC201B6010E947C
:104C6000C725A1960FB6F894DEBF0FBECDBFCF917A
:104C7000DF911F910F91FF90EF90DF90CF90BF9049
:104C8000AF909F908F907F905F904F900895DC0140
:104C90002115310541F4ED91FC910190F081E02D59
:104CA000642F099508950E94E3250895EF92FF92DD
:104CB0000F931F939A01E62EFF2400E010E0B80145
:104CC000A7010E9447261F910F91FF90EF90089532
:104CD000CF92DF92EF92FF920F931F936C01E62E1B
:104CE0009A01FF2400E010E0B801A7010E944726C6
:104CF0008C01C6010E94A725080F191FC8011F912A
:104D00000F91FF90EF90DF90CF900895CF92DF92B8
:104D1000EF92FF920F931F93CF93DF93EC016A0101
:104D20007B012115310541F4E881F9810190F08181
:104D3000E02D642F09951FC02A303105D1F477FF8B
:104D400017C0E881F9810190F081E02D6DE20995AD
:104D50008C0144275527BA014C195D096E097F095A
:104D6000CE012AE00E94E3259801280F391F04C0D4
:104D70002AE00E94E3259C01C901DF91CF911F9198
:104D80000F91FF90EF90DF90CF900895EF92FF92F8
:104D90000F931F937C010E9486268C01C7010E94FD
:104DA000A7259C01200F311FC9011F910F91FF9072
:104DB000EF900895EF92FF920F931F937B019A015A
:104DC0000027F7FC0095102FB801A7010E94862646
:104DD0001F910F91FF90EF900895CF92DF92EF9285
:104DE000FF920F931F936C017B019A010027F7FC40
:104DF0000095102FB801A7010E9486268C01C601DC
:104E00000E94A725080F191FC8011F910F91FF903D
:104E1000EF90DF90CF9008950E94C72508957F926C
:104E20008F929F92AF92BF92CF92DF92EF92FF92BA
:104E30000F931F93CF93DF934C017A018B01722E56
:104E4000CB01BA01A80197010E94F92E882321F015
:104E5000C40166E973E021C0C0E0D0E057016801F9
:104E6000E894D7F8C601B5012FEF3FEF4FE75FE7B2
:104E70000E94F92E882351F4C601B5012FEF3FEFB0
:104E80004FE75FE70E94392C181614F0C1E0D0E01C
:104E9000219739F0C4016AE973E00E94C725EC014B
:104EA00093C0C801B7012FEF3FEF4FE75FE40E94C7
:104EB000342E181654F0C801B7012FEF3FEF4FE71B
:104EC0005FEC0E94392C882324F4C4016EE973E05E
:104ED000E4CFC801B70120E030E040E050E00E949C
:104EE000392C87FD03C0C0E0D0E00EC0D401ED91A5
:104EF000FC910190F081E02DC4016DE20995EC0177
:104F000017FB109517F9109520E030E040E05FE3C3
:104F1000DD240BC0CA01B90120E030E040E251E4D9
:104F20000E94402C9B01AC01D394D71498F3C80184
:104F3000B7010E94602B5B016C010E94AD2C7B01CC
:104F40008C01C401B801A7012AE030E00E94472685
:104F5000C80FD91F772039F0C40162EA73E00E94BC
:104F6000C725C80FD91FC801B7010E94D92C9B01C2
:104F7000AC01C601B5010E945F2B24C020E030E0E7
:104F800040E251E40E943F2E7B018C010E94A82C3C
:104F90005B016C01CC24B7FCC094DC2CC401B601CD
:104FA000A5012AE030E00E948626C80FD91FC6015D
:104FB000B5010E94DB2C9B01AC01C801B7010E9426
:104FC0005F2B7A947720D1F6CE01DF91CF911F919C
:104FD0000F91FF90EF90DF90CF90BF90AF909F9098
:104FE0008F907F9008950E940F270895EF92FF926F
:104FF0000F931F937C010E94C7258C01C7010E945B
:10500000A725080F191FC8011F910F91FF90EF905E
:1050100008952F923F924F925F926F927F928F925C
:105020009F92AF92BF92CF92DF92EF92FF920F9337
:105030001F93DF93CF93CDB7DEB73B014C0119012E
:105040002A016D897E898F89988D6A197B098C095F
:105050009D09621A730A840A950AA40193010E94A9
:10506000152FE218F30804091509A80197010E94F9
:10507000692F2A0D3B1D4C1D5D1DB901CA01CF9141
:10508000DF911F910F91FF90EF90DF90CF90BF9035
:10509000AF909F908F907F906F905F904F903F90D8
:1050A0002F900895FC019B018481958168177907F1
:1050B00028F4608171816115710529F410923F0611
:1050C0006FE376E002C0620F731FCB0108950F9368
:1050D0001F93CF93DF93EC018B016F5F7F4F88812C
:1050E00099810E947E2A009711F480E005C099837F
:1050F00088831B830A8381E0DF91CF911F910F91F9
:105100000895CF93DF93EC0188819981892B29F051
:105110008A819B818617970760F4CE010E946728D9
:10512000882341F08C819D81892B19F4E881F981D4
:10513000108281E0DF91CF910895EF92FF920F935B
:105140001F93CF93DF93EC017B016C817D81E11490
:10515000F104C1F04115510599F08A01060F171F9E
:10516000B8010E948128882369F0888199812C8167
:105170003D81820F931FB7010E9454021D830C834F
:1051800081E001C080E0DF91CF911F910F91FF90EE
:10519000EF900895DF93CF9300D0CDB7DEB769834A
:1051A0001A82BE016F5F7F4F41E050E00E949D2850
:1051B0000F900F90CF91DF910895CF93DF93EC0183
:1051C00088819981009711F00E94E629198218823E
:1051D0001D821C821B821A82DF91CF910895EF926B
:1051E000FF920F931F93CF93DF93EC017B018A0112
:1051F000BA010E948128882321F4CE010E94DD2873
:1052000007C01D830C8388819981B7010E945402D5
:10521000CE01DF91CF911F910F91FF90EF900895F4
:10522000CF93DF93EC01198218821B821A821D82B0
:105230001C821E826115710551F0DB010D9000206A
:10524000E9F71197A61BB70BAD010E94EF28DF917C
:10525000CF9108950F931F93182F092F6115710592
:1052600059F0DB010D900020E9F71197A61BB70B51
:10527000AD010E94EF2802C00E94DD28812F902FEF
:105280001F910F910895FC01808191810E94E62970
:1052900008950F931F93CF93DF93BC018230910544
:1052A00010F462E070E0E0914206F091430640E0C5
:1052B00050E0A0E0B0E024C080819181861797077C
:1052C000D0F08617970771F482819381109729F0A7
:1052D00013969C938E9312972CC0909343068093C1
:1052E000420627C04115510519F08417950718F497
:1052F0008D01AC01EF01DF01828193819C01F901F5
:105300003097D1F641155105F9F0CA01861B970B6C
:105310008430910580F48A819B810115110521F06B
:10532000F8019383828304C09093430680934206DE
:10533000FE01329645C0FE01E80FF91F619371939B
:105340000297998388833CC08091400690914106E2
:10535000892B41F48091B1039091B203909341065F
:10536000809340064091B3035091B4034115510519
:1053700041F44DB75EB78091AF039091B003481BE5
:10538000590B209140063091410624173507B0F49F
:10539000CA01821B930B8617970780F0AB014E5F03
:1053A0005F4F8417950750F0420F531F50934106EB
:1053B00040934006F9016193719302C0E0E0F0E090
:1053C000CF01DF91CF911F910F910895CF93DF937C
:1053D0009C01009709F48FC0EC0122971B821A826E
:1053E00060914206709143066115710581F48881D0
:1053F0009981820F931F2091400630914106281712
:10540000390739F5D0934106C093400674C0DB01DB
:1054100040E050E0AC17BD0708F1BB83AA83FE0152
:1054200021913191E20FF31FAE17BF0779F48D91EF
:105430009C911197280F391F2E5F3F4F3983288386
:1054400012968D919C9113979B838A8341155105E8
:1054500071F4D0934306C09342064DC012968D91CD
:105460009C911397AD01009711F0DC01D3CFDA01C5
:105470001396DC93CE931297FA0121913191E20FAA
:10548000F31FCE17DF0769F488819981280F391F30
:105490002E5F3F4FFA01318320838A819B81938362
:1054A0008283E0E0F0E0DB0112968D919C911397EE
:1054B000009719F0BC01FD01F6CFAB014E5F5F4FC5
:1054C000DB018D919C91840F951F209140063091B6
:1054D00041062817390779F4309729F410924306CA
:1054E0001092420602C013821282425050405093E2
:1054F000410640934006DF91CF9108956F927F92CD
:105500008F929F92AF92BF92CF92DF92EF92FF92D3
:105510000F931F93CF93DF938C01009729F4CB0156
:105520000E9449298C01BBC08EEFE82E8FEFF82E28
:10553000E00EF11E4801860E971E8E149F0408F49B
:10554000ACC0D7014D915C91119746175707B8F041
:105550004530510508F4A3C0CA0104978617970780
:1055600008F49DC042505040461B570BF401419334
:1055700051936D937C93CF010E94E62990C05B010B
:10558000A41AB50A3801640E751EA0914206B091A6
:105590004306E0E0F0E0CC24DD2447C0A615B705C3
:1055A000A9F5CD91DC911197CE0102968A159B0544
:1055B00068F1CE018A199B09029612962C911297D6
:1055C00013963C91059758F0F40122833383CA194E
:1055D000DB09D183C083D7016D937C9309C04E5FF3
:1055E0005F4F4C0F5D1FF70151834083C901FC01E0
:1055F000C114D10431F0D6011396FC93EE931297A7
:105600004EC0F0934306E093420649C08D919C91B1
:105610001197E817F90708F4FC016D0112968C91B7
:10562000129713969C919C01D901109709F0B6CF5F
:10563000809140069091410686159705E9F4E6179A
:10564000F707D0F42091B3033091B403211531054D
:1056500041F42DB73EB78091AF039091B003281B62
:10566000390B82169306C8F4909241068092400648
:10567000F7017183608313C0CB010E944929EC01BB
:10568000009759F0D7014D915C91B8010E944B02EF
:10569000C8010E94E6298E0102C000E010E0C801A6
:1056A000DF91CF911F910F91FF90EF90DF90CF90FE
:1056B000BF90AF909F908F907F906F9008955058BB
:1056C000BB27AA270ED06EC22ED230F033D220F0E4
:1056D00031F49F3F11F41EF4FEC10EF4E095E7FB98
:1056E000C9C1E92F81D280F3BA1762077307840713
:1056F000950718F071F49EF5B0C20EF4E0950B2EEC
:10570000BA2FA02D0B01B90190010C01CA01A00113
:105710001124FF27591B99F0593F50F4503E68F16E
:105720001A16F040A22F232F342F4427585FF3CFAF
:10573000469537952795A795F0405395C9F77EF480
:105740001F16BA0B620B730B840BBAF09150A1F0C9
:10575000FF0FBB1F661F771F881FC2F70EC0BA0F4F
:10576000621F731F841F48F4879577956795B795D7
:10577000F7959E3F08F0B3CF9395880F08F09927CF
:10578000EE0F979587950895CED158F080E891E077
:1057900009F49EEFCFD128F040E851E059F45EEFD4
:1057A00009C099C15AC2E92FE0781ED268F3092EC8
:1057B000052AC1F3261737074807590738F00E2E78
:1057C00007F8E02569F0E025E0640AC0EF6307F818
:1057D000009407FADB01B9019D01DC01CA01AD01AA
:1057E000EF935DD0DFD10AD05F91552331F02BEDDF
:1057F0003FE049E450FD49EC63CF0895DF93DD2796
:10580000B92FBF7740E85FE31616170648075B0716
:1058100010F4D92F2DD29F938F937F936F93E6D25D
:10582000E8E6F0E05BD1BED12F913F914F915F91BF
:1058300032D2DD2349F09058A2EA2AED3FE049EC4C
:105840005FE3D0785D274DDFDF91ACC1EFD180F011
:105850009F3740F491110EF401C260E070E080E8DF
:105860009FE3089526F01B16611D711D811D08C15F
:1058700022C1DCD008F481E0089564D1E395A3C18E
:105880000CD090C157D140F04ED130F021F45F3FA1
:1058900019F0F0C05111E2C11EC1A6D198F39923AD
:1058A000C9F35523B1F3951B550BBB27AA276217E4
:1058B0007307840738F09F5F5F4F220F331F441F29
:1058C000AA1FA9F333D00E2E3AF0E0E830D0915061
:1058D0005040E695001CCAF729D0FE2F27D0660F4E
:1058E000771F881FBB1F261737074807AB07B0E88D
:1058F00009F0BB0B802DBF01FF2793585F4F2AF0A3
:105900009E3F510568F0B6C0A9C15F3FECF3983ED9
:10591000DCF3869577956795B795F7959F5FC9F7FF
:10592000880F911D9695879597F90895E1E0660F88
:10593000771F881FBB1F621773078407BA0720F001
:10594000621B730B840BBA0BEE1F88F7E09508956A
:1059500004D06894B11182C108954ED188F09F5748
:1059600090F0B92F9927B751A0F0D1F0660F771FAB
:10597000881F991F1AF0BA95C9F712C0B13081F08B
:105980006CD1B1E0089569C1672F782F8827B85F7F
:1059900039F0B93FCCF3869577956795B395D9F7EC
:1059A0003EF490958095709561957F4F8F4F9F4FF6
:1059B0000895E89409C097FB3EF490958095709502
:1059C00061957F4F8F4F9F4F9923A9F0F92F96E94B
:1059D000BB279395F695879577956795B795F111C0
:1059E000F8CFFAF4BB0F11F460FF1BC06F5F7F4F5D
:1059F0008F4F9F4F16C0882311F096E911C077236F
:105A000021F09EE8872F762F05C0662371F096E877
:105A1000862F70E060E02AF09A95660F771F881F46
:105A2000DAF7880F9695879597F90895990F0008EA
:105A3000550FAA0BE0E8FEEF16161706E807F90760
:105A4000C0F012161306E407F50798F0621B730BFB
:105A5000840B950B39F40A2661F0232B242B252B7C
:105A600021F408950A2609F4A140A6958FEF811D1F
:105A7000811D089597F99F6780E870E060E00895C0
:105A8000882371F4772321F09850872B762F07C055
:105A9000662311F499270DC09051862B70E060E0C9
:105AA0002AF09A95660F771F881FDAF7880F969568
:105AB000879597F908959F3F49F0915028F486956E
:105AC00077956795B7959F5F80389F4F880F96951C
:105AD000879597F908959FEF80EC0895DF93CF9312
